:020000040800F2
:10000000F0B70220AD020008BB020008BD020008E4
:10001000BF020008C1020008C3020008000000007F
:10002000000000000000000000000000C502000801
:10003000C702000800000000C9020008CB02000847
:10004000CD020008CD020008CD020008CD02000854
:10005000CD020008CD020008CD020008CD02000844
:10006000CD020008CD020008CD020008CD02000834
:10007000CD020008CD020008CD020008CD02000824
:10008000CD020008CD020008CD020008CD02000814
:10009000CD020008CD020008CD020008CD02000804
:1000A000CD020008CD020008CD020008CD020008F4
:1000B000CD020008CD020008997D0008CD0200089D
:1000C000CD020008CD020008CD020008CD020008D4
:1000D000CD020008257E0008CD020008CD020008F0
:1000E000CD020008CD020008CD020008CD020008B4
:1000F000CD020008CD020008CD020008CD020008A4
:10010000CD020008F5640008CD020008CD02000809
:10011000CD020008CD020008CD020008CD02000883
:10012000CD020008CD020008CD020008CD02000873
:10013000CD020008CD020008CD020008CD02000863
:10014000CD020008CD020008CD020008CD02000853
:10015000CD020008CD020008CD020008CD02000843
:10016000CD020008CD020008CD020008CD02000833
:10017000CD020008CD020008CD02000800000000FA
:10018000CD020008CD020008CD020008CD02000813
:10019000CD020008CD020008CD020008CD02000803
:1001A000CD020008CD020008CD02000800F002F8E0
:1001B00000F06DF80AA090E8000C82448344AAF194
:1001C0000107DA4501D100F062F8AFF2090EBAE892
:1001D0000F0013F0010F18BFFB1A43F0010318477B
:1001E0006C4C01008C4C01000A444FF0000C10F8DC
:1001F000013B13F0070408BF10F8014B1D1108BFA5
:1002000010F8015B641E05D010F8016B641E01F844
:10021000016BF9D113F0080F1EBF10F8014BAD1C94
:100220000C1B09D16D1E58BF01F801CBFAD505E0B2
:1002300014F8016B01F8016B6D1EF9D59142D6D30C
:10024000704700000023002400250026103A28BF34
:1002500078C1FBD8520728BF30C148BF0B60704738
:10026000642900F03D81752900F03A81782900F079
:100270007381632900F09F83732900F0A483002019
:1002800070471FB50FF0A4FC1FBD10B510BD00F0E6
:1002900027FC1146FFF7F5FF0CF098FC00F045FC39
:1002A00003B4FFF7F2FF03BC07F0CBFF0B48016874
:1002B00041F4700101600A480047FEE7FEE7FEE7EF
:1002C000FEE7FEE7FEE7FEE7FEE7FEE7FEE70000EB
:1002D00004480549034A054B7047000088ED00E0DB
:1002E000AD010008F0AF0220F0B70220F0AF02200D
:1002F000704753EA020C00F069802DE9F04B4FF093
:100300000006002B1FBFB3FA83F503FA05F424FAA5
:1003100005F65E4012BF1643B2FA82F502FA05F402
:10032000C5F120051EBF22FA05FC44EA0C04203565
:1003300056EA044C4FEA144418BF641C4FF00008FE
:100340004FF00009904271EB030C39D3002919BF1B
:10035000B1FA81F701FA07F6B0FA80F700FA07F66A
:10036000C7F120071EBF20FA07FC46EA0C0620371B
:10037000B6FBF4FCA7EB0507103F07F01F0BCBF112
:1003800020060CFA0BFB2CFA06F644BFB3460026F7
:10039000202FA4BF5E464FF0000B5BEA060C08BF9F
:1003A0004FF0010B19EB0B09ABFB027C48EB060885
:1003B000C01B06FB02CC0BFB03CC71EB0C01C1E7AD
:1003C0000B46024641464846BDE8F08B13B54FF058
:1003D00000004FF00001AFF30080BDE81C40704703
:1003E00010B54C1084EA530404D54042C1F1000119
:1003F00038BF491E1B4204D55242C3F1000338BF27
:100400005B1EFFF776FF14F0804F04D04042C1F12D
:10041000000138BF491E14F0004F04D05242C3F10E
:10042000000338BF5B1E10BD0FB4044910B503AA0A
:10043000029800F0CDFA10BC5DF814FB0400002017
:1004400070B5044685690068C10601D5302600E014
:100450002026C00707D070BDD4E90121304690475F
:10046000206A401C20626D1EF6D570BD70B5044632
:1004700085690078C00707D170BDD4E9012120202B
:100480009047206A401C20626D1EF6D570BD70B585
:100490000C460546012A05D02878800600D5EA6971
:1004A000002302E0012305E05B1C934202D2E05CE2
:1004B0000028F9D1A869E618C01AA861286A18446A
:1004C00028622846FFF7BCFF04E0D5E9012114F8B3
:1004D000010B9047B442F8D32846FFF7C7FF70BD21
:1004E0002DE9F0410646002410687529314616A50D
:1004F00010D0AFF30080002802DA404213A507E0D5
:1005000031688A0701D512A502E0490704D511A573
:10051000012401E0AFF3008000210A2206F1240744
:1005200009E0B0FBF2FCB0FBF2F302FB1C00303040
:1005300078541846491C0028F3D123462A463046F1
:10054000BDE8F04100F0D4B9000000002D0000002B
:100550002B0000002000000070B504460D46214627
:100560001068AFF300802188090502D50F4A7A444C
:1005700002E00E4A7A440E32002104F1240305E021
:1005800000F00F060009965D5E54491C0028F7D163
:1005900020780023000704D5702D02D009B1022372
:1005A00011322046BDE8704000F0A2B93247010088
:1005B0002DE9F05F894604464FF0000ADFF874B178
:1005C000FB44C0F820A02046E1688847002874D08A
:1005D000252806D0D4E901219047206A401C2062DA
:1005E000F1E700265F462046E16888472028054657
:1005F00007DB312D05D2781910F8200C08B106431D
:10060000F1E7B00701D526F00406C4F81CA00027C6
:10061000C4F818A02A2D09D0284607F00BFE38B3DD
:1006200004EB8708303DC8F8185019E059F8041B4E
:10063000204604EB87029161E1688847012F054657
:1006400018D1E069002820DA26F020061DE0D8F84D
:10065000180000EB800005EB40003038C8F81800A7
:100660002046E1688847054607F0E4FD0028EED102
:10067000012F0AD02E2D08D12046E16888477F1C23
:100680000546022F46F02006C4DBA069002803DAE5
:10069000404246F00106A061F00701D026F01006A6
:1006A0006C2D0BD0682D09D04C2D39D06A2D35D04A
:1006B000742D35D07A2D33D016E038E0E1682F461E
:1006C00020468847B842054609D16C2F26D04FF402
:1006D0008060E168064320468847054604E06C2FA9
:1006E0001AD04FF4807006430DB3A5F141001928CC
:1006F00002D8203546F400664A4629462046266040
:100700004E46FFF7ADFD80B101280BD0F61D26F057
:10071000070000F1080956E74020E4E78020D8E709
:100720000020D6E706F104094DE7284652E7206A83
:10073000BDE8F09F0847010040EA0103024630B5DA
:100740009B0710D14FF0013400E008C208C91D1BFF
:100750009D4315EAC41FF8D013F0FF0102F8011BF6
:100760000DD01B0AF8E711F8013B002B02F8013B02
:1007700005D011F8013B002B02F8013BF3D130BD4D
:10078000421E12F8013F002BFBD111F8013B002B58
:1007900002F8013BF9D17047032A40F2308010F093
:1007A000030C00F0158011F8013BBCF1020F62440C
:1007B00098BF11F801CB00F8013B38BF11F8013B9D
:1007C000A2F1040298BF00F801CB38BF00F8013B4A
:1007D00011F0030300F00E81083AC0F0088051F8D0
:1007E000043B083A51F804CBA0E80810F5E7121DC5
:1007F0005CBF51F8043B40F8043BAFF30080D207E4
:1008000024BF11F8013B11F801CB48BF11F8012BAF
:1008100024BF00F8013B00F801CB48BF00F8012BD2
:1008200070474FF000020429C0F0128010F0030C52
:1008300000F01481CCF1040CBCF1020F18BF00F8D9
:10084000012BA8BF20F8022BA1EB0C0100F006B988
:100850005FEAC17C24BF00F8012B00F8012B48BFE0
:1008600000F8012B704700004FF0013C50F8042BBA
:1008700051F8043B9A4221D1A2EB0C03934313EAB3
:10088000CC1317D150F8042B51F8043B9A4215D1E0
:10089000A2EB0C03934313EACC130BD150F8042BB7
:1008A00051F8043B9A4209D1A2EB0C03934313EA9B
:1008B000CC13DBD04FF00000704700BFD01A01BA54
:1008C000B1FA81F101F0180122FA01F0CB40C1F137
:1008D0002001DBB2C0B2C01A2CFA01F3D11A914345
:1008E00011EAC311E6D170477047704770477047EF
:1008F0002DE9F0470D4699469246044600F124083A
:100900000168880604D5E06921F01001216000E04B
:100910000120A84201DD471B00E00027A1697A19E8
:1009200002EB0900081AA0612078C00602D4204614
:10093000FFF786FD002608E0D4E901211AF8060039
:100940009047206A401C761C20624E45F4DB2078DC
:10095000C0060AD52046FFF773FD06E0D4E9012161
:1009600030209047206A401C2062381EA7F1010702
:10097000F4DC07E0D4E9012118F805009047206A6B
:10098000401C2062281EA5F10105F3DC2046FFF77C
:100990006DFD2078000602D50220BDE8F087012019
:1009A000FBE710B5436913B1AFF3008001E0FFF737
:1009B0006EFD012010BD127800F124010A700022A2
:1009C0004A700122EDE711684FF0FF32E9E70000BD
:1009D000074B70B50D467B4400F06BF80446284683
:1009E00000F07AF810B14FF0FF3070BD204670BDB6
:1009F000CBA4000010B5203AC0F00B80B1E818502D
:100A0000203AA0E81850B1E81850A0E81850BFF4F8
:100A1000F5AF5FEA027C24BFB1E81850A0E8185097
:100A200044BF18C918C0BDE810405FEA827C24BFEB
:100A300051F8043B40F8043B08BF7047D20728BF79
:100A400031F8023B48BF11F8012B28BF20F8023BC8
:100A500048BF00F8012B70474FF0000200B5134665
:100A600094469646203922BFA0E80C50A0E80C50CE
:100A7000B1F12001BFF4F7AF090728BFA0E80C507F
:100A800048BF0CC05DF804EB890028BF40F8042B78
:100A900008BF704748BF20F8022B11F0804F18BFE5
:100AA00000F8012B7047000001694A1C02610878B8
:100AB000704700B58FB0CDE901310021059105499E
:100AC0007944CDE9031011466846FFF771FD0FB078
:100AD00000BD0000E5FFFFFF007B00F080007047D5
:100AE000754600F02BF8AE4605006946534620F0E7
:100AF0000700854618B020B5FFF7EAFBBDE82040A7
:100B00004FF000064FF000074FF000084FF0000BC9
:100B100021F00701AC46ACE8C009ACE8C009ACE87C
:100B2000C009ACE8C0098D46704710B50446AFF364
:100B300000802046BDE81040FFF7B2BB0048704778
:100B400090AF022000224FF4803105E00A4800688F
:100B500000F0800000B103E0081EA1F10101F5D111
:100B600000BF09B90320704740F2FF50024B1B1D24
:100B700018601046F7E70000342C0140024605E0FB
:100B80001548016801F0450000B100E0F8E700BF3A
:100B900001F0040028B104200F4B1B1D1860032036
:100BA000704701F0010020B101200B4B1B1D1860A4
:100BB000F6E7094824380068904201D01020EFE79A
:100BC00040F2FF50044B1B1D18600348203800689A
:100BD00008231840C0B2E3E7342C014010B50020D0
:100BE0004FF4803205E0164B196801F0450303B15C
:100BF00003E0131EA2F10102F5D100BF12B101F012
:100C000004034BB103200E4B1B1D1B6843F0040370
:100C10000B4C241D236010BD01F0010343B10120E2
:100C2000074B1B1D1B6843F00103054C241D23606B
:100C300040F2FF53024C241D236000BFEBE700008D
:100C4000342C014005E00E48016801F0450000B178
:100C500000E0F8E700BF01F0040048B10848001DBB
:100C6000006840F00400064A121D1060032070471F
:100C700040F2FF50024A121D10600020F7E700000A
:100C8000342C014070B503460C46002505E024488D
:100C9000026802F0450000B100E0F8E700BF02F092
:100CA000040048B11E48001D006840F004001C4EBE
:100CB000361D3060032070BD02F0010048B11848B5
:100CC000001D006840F00100154E361D3060012007
:100CD000F1E7134824380068984201D01020EAE771
:100CE00040F2FF500E4E361D30600D48203801682E
:100CF00001F4604018B9080C20802846DBE701F4B5
:100D0000005008B11320D6E701F4804008B110204C
:100D1000D1E701F4004008B10F20CCE72846CAE72C
:100D2000342C014010B500204FF4803205E0134B05
:100D3000196801F0450303B103E0131EA2F101029B
:100D4000F5D100BF12B101F004034BB103200B4BEE
:100D50001B1D1B6843F00403084C241D236010BDB9
:100D600001F0400343B10020044B1B1D1B6843F0FE
:100D70004003024C241D236000BFF0E7342C0140E7
:100D800038B504464FF0AA3000900949897901FB33
:100D900004F004236A46002105F042FB04498979E6
:100DA0006143481C04236A46002105F039FB38BD25
:100DB000280500202DE9FC4704460D4600275DE08C
:100DC0004FF0000820E001A830490090B1F80290EF
:100DD0004FEAE97109EB91718B102C49897901FB7C
:100DE00004F02A46002105F051F928494888C11726
:100DF00000EB9171BDF80420B2EBA10F00D007E029
:100E000008F101001FFA80F8204880794045DADCBB
:100E100000BF1E488079404502D10020BDE8FC8714
:100E2000204604F081FE064626B1394618A0FFF799
:100E3000FBFA21E0681CF8B10020019016E013498C
:100E4000B1F802904FEAE97109EB91718B100F49EB
:100E50008979BDF8042004FB01200022114605F029
:100E6000ADFABDF80400401C80B2019007488079BB
:100E7000BDF804108842E2DC781C87B2032F9FDBA8
:100E8000214609A0FFF7D0FA0120C7E72805002076
:100E90006572726F7220657261736520626C6F6338
:100EA0006B3A25640D0A000062616420626C6F6316
:100EB0006B20636865636B65643A25640D0A000006
:100EC00038B50446002000900F49897901FB04F0F1
:100ED00001236A46002105F021F99DF80000FF2852
:100EE00010D1094989796143481C01236A460021D0
:100EF00005F014F99DF80000FF2801D1002038BD4D
:100F00000120FCE70220FAE7280500202DE9FE4F2A
:100F100081460F4692461D460024002002908046DE
:100F2000019000263B488079B9FBF0F83948807978
:100F3000B9FBF0F100FB1190019000BF404600F0BA
:100F4000E1F8064633484089B04202D20120BDE8AC
:100F5000FE8F00243AE00198844221D305B32D4846
:100F60004088C01BA84205D22A484088C01B1FFAEF
:100F700080FB01E01FFA85FB264ACDF800B092798C
:100F800006FB0241234A927908FB024053463A4647
:100F900004F0DCFB02900027DA44A5EB0B050AE025
:100FA0001C4A927906FB02411A4A927908FB0240D8
:100FB00004F0D0FC0290029830B13046FFF7E0FE1A
:100FC000012000F029F8B9E7601C84B2114880794B
:100FD000A042C0DC0F488079A04219D1304600F011
:100FE00099FA404604F0A0FD00240CE0094840694D
:100FF00030F81400404504D10649496921F81460CD
:1010000005E0601C84B203484089A042EEDC00BFCA
:1010100000209CE728050020F8B50546002600249E
:1010200006E04FF6FF703049496921F81400641C4E
:101030002D484089A042F4D800202B498881002403
:1010400033E02949897901FB04F004236A46002131
:1010500005F064F89DF80000FF2809D145B1224948
:1010600089796143481C01236A46002105F056F83E
:101070009DF80000FF2813D19DF802009DF8031091
:1010800000EB012618484089B04203D91649496946
:1010900021F8164014488089401C1349888103E0D8
:1010A000214612A0FFF7C0F9641C0F484089A042F6
:1010B000C7D800240BE00C48406930F814000A49F6
:1010C0004989884202DB0849CC8104E0641C064857
:1010D0004089A042EFD800BF0348C089642801DAE4
:1010E0000220F8BD0020FCE7280500206261642092
:1010F000626C6F636B20696E6465783A25640D0AD3
:101100000000000070B50546002418484089401EC4
:1011100017490968884204D214484089401E14497E
:10112000086005F001011248006800F023F8044649
:10113000601C90B90D484089401E0D4909688842DD
:101140000BD90A484089401E0949086005F0010191
:101150000748006800F00EF80446601C10B94FF014
:10116000FF3070BD024804602046FAE728050020E1
:1011700030000020F8B505460E46002000900024FF
:101180006C1C14E0601E00F00100B0420ED1611E24
:10119000094A927901FB02F004236A46002104F017
:1011A000BDFF0098401C08B9601EF8BD641E002CED
:1011B000E8D1601EF9E7000028050020F8B50026F8
:1011C00000202D498881002417E02046FFF778FE93
:1011D00005468DB9204604F0A7FC05463DB12146E1
:1011E00026A0FFF721F92046FFF7CAFD04E02248B8
:1011F0008089401C20498881641C1F484089A04286
:10120000E3D81D48818921A0FFF70EF91A4880898B
:10121000642801DA0120F8BD17488089C0EB40102E
:1012200000EB4000642190FBF1F6002000900024C8
:1012300015E02046FFF744FE05467DB90E49897941
:1012400001FB04F002236A46194605F0E9F800980C
:10125000401C00900098B04200D104E0641C064895
:101260004089A042E5D800BF0120FFF7D5FE08B1B4
:101270000220D0E70020CEE728050020426164204C
:10128000626C6F636B3A25640D0A0000676F6F64D0
:101290005F626C6F636B6E756D3A25640D0A0000BA
:1012A00010B504F06FFC08B1012010BD1F48406963
:1012B00020B11E48416900200CF046FC1B484089C3
:1012C000410000200CF052FC184948610A4652893E
:1012D0005100164A5069FFF7A4FA1448406908B94A
:1012E0000120E2E70120FFF797FE044664B110A059
:1012F000FFF79AF8FFF762FF0446002C13D012A004
:10130000FFF792F80220D0E70848418913A0FFF7C1
:101310008BF80648818917A0FFF786F80348C18932
:1013200019A0FFF781F80020BFE700002805002082
:10133000666F726D6174206E616E6420666C61739D
:10134000682E2E2E0D0A0000666F726D6174206685
:1013500061696C6564210D0A00000000746F74619E
:101360006C20626C6F636B206E756D3A25640D0A9C
:1013700000000000676F6F6420626C6F636B206E0B
:10138000756D3A25640D0A0076616C696420626CA3
:101390006F636B206E756D3A25640D0A00000000C6
:1013A000014600220648C089884202D24FF6FF70EB
:1013B00070470348406930F811201046F8E70000F4
:1013C000280500202DE9FF4F83B014469A460026D9
:1013D000002500BF97E04E48408890FBF4F04C4950
:1013E0008979484304992944B1FBF0F002900298AE
:1013F000FFF7D6FF834646484189594503D8012067
:1014000007B0BDE8F08F4248408890FBF4F04049B7
:101410008979484304992944B1FBF0F200FB12108A
:10142000604301903A4841880198B0FBF1F0384997
:1014300089790BFB0108364841880198B0FBF1F22D
:1014400001FB120932484088A0EB0900B0FBF4F020
:1014500087B2AAEB0500B84202D2AAEB050087B218
:1014600007FB04F083B21FFA89F14046039A04F0A7
:10147000BFFC0646032E39D107FB04F083B21FFAE6
:1014800089F14046039A04F0B3FC0646032E2DD1A1
:1014900007FB04F31FFA89F14046039AFFF736FD74
:1014A0001B488079B8FBF0F0311F0090FFF782FCF9
:1014B00006467EB916488079B8FBF0F0002100900E
:1014C000FFF778FC064612488079B8FBF0F00090F0
:1014D00004F02AFB4EB10E488079B8FBF0F0009082
:1014E000FFF74EFC0120FFF797FD0026042E00D1E8
:1014F00000260EB1022083E7039804FB0700039047
:10150000781E05446D1C5545FFF465AF002077E754
:101510002805002038B50446CC2000900025064957
:10152000897901FB04F001236A46194604F078FF2B
:101530000546284638BD0000280500202DE9FF4F4C
:1015400087B014469A464FF0000B0025681E0290A3
:1015500000BFA7E05648408890FBF4F054498979D1
:10156000484308992944B1FBF0F005900598FFF72E
:1015700017FF06464E484189B14203D801200BB0FF
:10158000BDE8F08F4A48408890FBF4F048498979DB
:10159000484308992944B1FBF0F200FB1210604364
:1015A0000390434841880398B0FBF1F040498979A2
:1015B00006FB010004903E4841880398B0FBF1F21D
:1015C00001FB12093A484088A0EB090080B206905E
:1015D000BDF8180090FBF4F080B20690AAEB05006D
:1015E00087B2BDF81800874201DBBDF8187007FB11
:1015F00004F806A81FFA89F1C8F38F034FF0FF32F1
:101600000090049804F042FD8346BBF1000F01D026
:101610000220B4E7BDF81800B0EB980F09D11FFA0B
:1016200088F31FFA89F1079A049804F005FE8346AF
:1016300001E04FF0010BBBF1000F07D10298B0425F
:1016400004D03046FFF766FF83460296BBF1000FD9
:1016500022D0174880791649498848430399401A8F
:10166000B0FBF4F080B20690AAEB050087B2BDF89B
:101670001800874201DBBDF8187007FB04F81FFA59
:1016800089F14346079A0498FFF740FC8346BBF173
:10169000000F01D0032072E7781E054407984044EC
:1016A00007906D1C5545FFF455AF002067E700001B
:1016B00028050020FCB507460D4600260024002022
:1016C0000090019008220121102004F017FF102043
:1016D000FFF754FA04460CB12046FCBD3A04012140
:1016E000372004F00BFF3720FFF748FA04460CB10F
:1016F0002046F2E7012303220821101F04F014FF03
:1017000000220121332004F0F9FE3320FFF736FADE
:1017100004460CB12046E0E70DE03C48006800F4C8
:10172000001040B139484C3000684DF82600761C56
:10173000022E00D306E03548006840F22A610840D6
:101740000028EAD000BF3148006800F0080048B126
:101750002E48001D006840F008002C49091D086053
:101760000420BAE72948006800F0020048B1274881
:10177000001D006840F002002449091D0860022095
:10178000ABE72248006800F0200048B11F48001D68
:10179000006840F020001D49091D086006209CE7F4
:1017A0001A48006800F4007048B11848001D00682D
:1017B00040F400701549091D086007208DE740F2CC
:1017C000FF501249091D086000980006009901F4B5
:1017D0007F4140EA0120009901F47F0140EA112095
:1017E000009940EA1160686001980006019901F4CF
:1017F0007F4140EA0120019901F47F0140EA112074
:10180000019940EA11602860204666E7342C0140C7
:1018100030B5CC1000F1200353F824304C07E50E0E
:101820000F24AC40A343CD1000F1200444F8253030
:10183000CC1000F1200353F824304C07E40E02FAD8
:1018400004F42343CD1000F1200444F8253030BDCA
:101850002DE9F0470C46DDE90867002100258C469C
:1018600000BF60E04FF0010808FA01F504EA050C3A
:10187000AC4557D1D0F800804FEA410A4FF0030938
:1018800009FA0AF928EA0908C0F80080D0F80080AF
:101890004FEA410902FA09F948EA0908C0F800804C
:1018A000012A01D0022A27D1D0F808804FEA410A44
:1018B0004FF0030909FA0AF928EA0908C0F8088074
:1018C000D0F808804FEA410906FA09F948EA090800
:1018D000C0F80880D0F804904FF0010808FA01F829
:1018E00029EA0809C0F80490D0F8048003FA01F945
:1018F00048EA0908C0F80480D0F80C804FEA410A91
:101900004FF0030909FA0AF928EA0908C0F80C801F
:10191000D0F80C804FEA410907FA09F948EA0908AA
:10192000C0F80C80491C10299CD3BDE8F08700004A
:101930002DE9F05F8246884614462046E21704EB04
:101940005272D2102146E31704EB5373DB10A4EB61
:10195000C3030BB1012300E000231A44624302F0E9
:10196000FF099AF800600AF1010082460578812E8D
:1019700005DB402D03DBFF2D01D0FF2E0DD14FF0F5
:10198000000B06E0002008F8010B0BF1010000F04D
:10199000FF0BCB45F6DBBDE8F09F7F2D03DAA5F109
:1019A0004000C5B202E0A5F14100C5B2A6F1810038
:1019B000C6B2BE2010FB065000FB09F70C2C06D067
:1019C000102C0DD0182C14D0202C24D11AE0134840
:1019D000D0F80900C1194A46404606F0D7FA1AE085
:1019E0000E48D0F81100C1194A46404606F0CEFA1A
:1019F00011E00A48D0F81900C1194A46404606F0DD
:101A0000C5FA08E00548D0F82100C1194A46404609
:101A100006F0BCFA00BF00BF00BFBCE728AF022041
:101A200072B6704762B670471CB50446002001903C
:101A3000009022480088020401210D2004F05EFD80
:101A40001F480068009002E01D4800680090009860
:101A500000F045000028F7D0009800F0010048B1E0
:101A60001748001D006840F001001549091D086075
:101A700001201CBD009800F0040048B11048001D72
:101A8000006840F004000E49091D08600320F0E7DB
:101A90000B48243800680D2801D01020E9E740F2F7
:101AA000FF500749091D086005482038006801906B
:101AB0000198C0F3432020700020DAE724000020C2
:101AC000342C01401CB51748006840F0010015494E
:101AD00008600846006840F0040008600846006896
:101AE00040F080000860022000210B460A46CDE944
:101AF000001001210C48FFF7ABFE012000210B462E
:101B00000A46CDE9001041030848FFF7A1FE012075
:101B100000210B460A46CDE900100C210448FFF7CE
:101B200097FE1CBD30380240000002400008024011
:101B3000001C024010B5044614B101202149087070
:101B40002048007848B32048006850B11E48001F64
:101B5000006830B11D48006818B11D4800680128B0
:101B60001BD10A2007F03CFA0020164908701648DD
:101B7000006808B9012010BD1348001F006808B9AB
:101B80000220F8E71148006808B90320F3E710487D
:101B90000068012814D10420EDE70B4800680128F3
:101BA0000ED10948001F0068012809D107480068C4
:101BB000012805D10648006810B9012001490870C4
:101BC0000020D8E71C0000200C824342340241422E
:101BD0000002404270B5044600260D4805880D48B5
:101BE000006818B1204603F007F80FE00848408865
:101BF00045430021084602F07BFE02F0CBFF0026A1
:101C000002E005490C80761CAE42FAD370BD00009C
:101C10008002002090020020000008602DE9FF4FA4
:101C200081B080460D469146DDF838A0184800681E
:101C300040B1CDF800A04A4629464046049B03F037
:101C400039F821E0A9EB0800401C86B20498401B3B
:101C5000401C1FFA80FB002414E0281981B2404682
:101C600002F046FE02F096FF002707E004FB067034
:101C70003AF8100007490880781C87B2B742F5DBB4
:101C8000601C84B25C45E8DB05B0BDE8F08F000065
:101C9000900200200000086010B504465C48847182
:101CA0005C48006850B1204603F0AEF85948C08A3D
:101CB000574908805748008B488010BD002C51D1EF
:101CC000F020534908804FF4A0704880084680886F
:101CD00049F24131884205D04D48808845F21031A3
:101CE000884214D12C204A4908812A2048812B207F
:101CF00088810846808845F21031884206D14FF429
:101D0000A070434908804FF4F07048807BE0404861
:101D1000808845F21051884210D14FF430503C4930
:101D200008814FF4285048814FF42C5088814FF49B
:101D3000F07008804FF44870488064E03448808830
:101D400041F6631188425ED12C20314908812B2055
:101D500048812A2088814FF4F07008804FF4487041
:101D6000488050E04FF4A07029490880F020488056
:101D70000846808849F24131884205D0244880884D
:101D800045F21031884207D12C20214908812A20B0
:101D900048812B20888129E01D48808845F2105118
:101DA000884210D14FF43050194908814FF428501F
:101DB00048814FF42C5088814FF4487008804FF4CC
:101DC000F070488012E01248808841F66311884222
:101DD0000CD12C200E4908812A2048812B20888193
:101DE0004FF4487008804FF4F070488008488088AD
:101DF00045F21031884206D14FF4F0700449088052
:101E00004FF4A0704880002002F038FC00BF54E777
:101E1000800200209002002070B504460D46164650
:101E20004348006828B132462946204603F002F8AC
:101E300070BD4048808849F24131884205D03D4814
:101E4000808845F21031884214D13A49488902F01D
:101E500095FE201202F086FEE0B202F083FE3549C4
:101E6000888902F08BFE281202F07CFEE8B202F0B4
:101E700079FE54E02F48808845F21051884220D1E5
:101E80002C49488902F07AFE201202F06BFE2949A3
:101E90004989491C88B202F071FEE0B202F062FE8C
:101EA0002449888902F06AFE281202F05BFE21496B
:101EB0008989491C88B202F061FEE8B202F052FE44
:101EC0002DE01C48808841F66311884227D11948CB
:101ED000807920B917480088401E001B84B215493C
:101EE000488902F04BFE201202F03CFEE0B202F004
:101EF00039FE201202F036FEE0B202F033FE0D4948
:101F0000888902F03BFE281202F02CFEE8B202F0B3
:101F100029FE281202F026FEE8B202F023FE054850
:101F2000008905490880891C0E8000BF80E70000F9
:101F30009002002080020020FEFF07602DE9F84F8C
:101F400005460E4617469846DDF828904FF0000BE0
:101F50001448006840B143463A4631462846CDF819
:101F6000009002F08FFF1BE0781B401C1FFA80FBE3
:101F7000344613E02146284602F0BAFC02F00AFE7D
:101F80004FF0000A06E00849A1F800900AF10100AC
:101F90001FFA80FADA45F6DB601C84B24445E9DDBD
:101FA000BDE8F88F90020020000008601CB503F027
:101FB000E3FAFE4988800846808818B103F006F8E5
:101FC00002F076BAFA48006840F00200F84908606A
:101FD0000846006840F018000860F54808300068BE
:101FE00040F00100F249083108600120022100237D
:101FF0000246CDE900102021EE48FFF729FC012020
:10200000032100230222CDE900104EF2B371EA4809
:10201000FFF71EFC0120032100230222CDE900105E
:102020004FF68071E548FFF713FC0C220021E248CF
:10203000FFF7EEFB0C220121DF48FFF7E9FB0C2242
:102040000421DD48FFF7E4FB0C220521DA48FFF705
:10205000DFFB0C220721D848FFF7DAFB0C2208210E
:10206000D548FFF7D5FB0C220921D348FFF7D0FB59
:102070000C220A21D048FFF7CBFB0C220D21CE48C1
:10208000FFF7C6FB0C220E21CB48FFF7C1FB0C2249
:102090000F21C948FFF7BCFB0C220721C748FFF7F7
:1020A000B7FB0C220821C548FFF7B2FB0C2209211F
:1020B000C248FFF7ADFB0C220A21C048FFF7A8FB7E
:1020C0000C220B21BD48FFF7A3FB0C221146BB4895
:1020D000FFF79EFB0C220D21B848FFF799FB0C225D
:1020E0000E21B648FFF794FB0C220F21B348FFF7EF
:1020F0008FFB00204FF0204108604860B049086025
:102100004FF02040006840F480504FF020410860BC
:102110000846006840F4804008600846006840F0C7
:10212000100008600846406848600846406840F073
:102130000F0048600846406840F48C404860A04862
:102140000068C1F804010846D0F8040140F00F000F
:10215000C1F804010846D0F8040140F47060C1F8E9
:1021600004010846006840F001000860322006F0D3
:1021700037FFD32002F002FD02F0E0F98B4988809E
:1021800002F0DCF98949888002F0D8F98749888013
:10219000084680884FF6FF7101EA00208349888055
:1021A00002F0CCF981498988084380498880084633
:1021B000808849F24131884278D0D42002F0DEFC98
:1021C00002F0BCF97949888002F0B8F97749888033
:1021D00002F0B4F975498880084680884FF6FF718F
:1021E00001EA00207149888002F0A8F96F498988C6
:1021F00008436E4988800846808845F2103188423D
:1022000054D04FF45A4002F0B9FC02F097F96749F4
:1022100088804FF45B4002F0B1FC02F08FF9634913
:102220008880084680884FF6FF7101EA00205F49E8
:1022300088804FF45C4002F0A1FC02F07FF95B491A
:10224000898808435949888008468088B0F5004F3E
:1022500002D145F2105088805448808845F21051D0
:10226000884223D0A12002F089FC02F067F94F498F
:10227000888002F063F94D498880084680884FF6CF
:10228000FF7101EA00204949888002F057F9474967
:1022900089880843454988800846808845F26171ED
:1022A000884203D141F66310404988803F488188C5
:1022B00044A0FEF7B9F83D48808849F24131884290
:1022C00072D1CF2002F05AFC002002F04BFCC1205A
:1022D00002F048FC302002F045FCED2002F04EFCFC
:1022E000642002F03FFC032002F03CFC122002F0CC
:1022F00039FC812002F036FCE82002F03FFC85200A
:1023000002F030FC102002F02DFC7A2002F02AFCB2
:10231000CB2002F033FC392002F024FC2C2002F008
:1023200021FC002002F01EFC342002F01BFC0220E5
:1023300002F018FCF72002F021FC202002F012FC31
:10234000EA2002F01BFC002002F00CFC002002F04E
:1023500009FCC02002F012FC1B2002F003FCC1208B
:1023600002F00CFC012002F0FDFBC52002F006FC8F
:10237000302002F0F7FB302002F0F4FBC72002F01F
:10238000FDFBB72002F0EEFB362002F0F7FB482001
:1023900002F0E8FB3A2002F0F1FB552002F0E2FBEC
:1023A000B12002F0EBFB15E0B7E000008002002056
:1023B0003038024000040240000C0240001002408D
:1023C000040100A0204C43442049443A25780D0ADA
:1023D00000000000002002F0C5FB1A2002F0C2FB42
:1023E000B62002F0CBFB0A2002F0BCFBA22002F0D8
:1023F000B9FBF22002F0C2FB002002F0B3FB262062
:1024000002F0BCFB012002F0ADFBE02002F0B6FBC5
:102410000F2002F0A7FB2A2002F0A4FB282002F0E4
:10242000A1FB082002F09EFB0E2002F09BFB08207F
:1024300002F098FB542002F095FBA92002F092FBD9
:10244000432002F08FFB0A2002F08CFB0F2002F0E9
:1024500089FB002002F086FB002002F083FB0020B5
:1024600002F080FB002002F07DFBE12002F086FB01
:10247000002002F077FB152002F074FB172002F019
:1024800071FB072002F06EFB112002F06BFB0620AF
:1024900002F068FB2B2002F065FB562002F062FB85
:1024A0003C2002F05FFB052002F05CFB102002F0F4
:1024B00059FB0F2002F056FB3F2002F053FB3F2058
:1024C00002F050FB0F2002F04DFB2B2002F056FBD8
:1024D000002002F047FB002002F044FB012002F044
:1024E00041FB3F2002F03EFB2A2002F047FB002088
:1024F00002F038FB002002F035FB002002F032FB36
:10250000EF2002F02FFB112002F038FB782006F0BC
:1025100067FD292002F032FB52E5FE48808845F233
:102520001031884240F07C87ED2002F027FB01202B
:1025300002F018FBFE2002F015FBEE2002F01EFB5D
:10254000DE2002F00FFB212002F00CFBF12002F054
:1025500015FB012002F006FBDF2002F00FFB10202C
:1025600002F000FBC42002F009FB8F2002F0FAFA0F
:10257000C62002F003FB002002F0F4FAE22002F091
:10258000F1FAE22002F0EEFAE22002F0EBFABF20CC
:1025900002F0F4FAAA2002F0E5FAB02002F0EEFA16
:1025A0000D2002F0DFFA002002F0DCFA0D2002F02C
:1025B000D9FA002002F0D6FA112002F0D3FA002056
:1025C00002F0D0FA192002F0CDFA002002F0CAFA87
:1025D000212002F0C7FA002002F0C4FA2D2002F0F8
:1025E000C1FA002002F0BEFA3D2002F0BBFA002042
:1025F00002F0B8FA5D2002F0B5FA002002F0B2FA5B
:102600005D2002F0AFFA002002F0ACFAB12002F037
:10261000B5FA802002F0A6FA002002F0A3FA8B207F
:1026200002F0A0FA002002F09DFA962002F09AFA39
:10263000002002F097FAB22002F0A0FA002002F087
:1026400091FA002002F08EFA022002F08BFA0020AC
:1026500002F088FA032002F085FA002002F082FAE4
:10266000B32002F08BFA002002F07CFA002002F086
:1026700079FA002002F076FA002002F073FA0020C6
:1026800002F070FA002002F06DFA002002F06AFAFF
:10269000002002F067FA002002F064FA002002F045
:1026A00061FA002002F05EFA002002F05BFA0020DE
:1026B00002F058FA002002F055FA002002F052FA17
:1026C000002002F04FFA002002F04CFA002002F045
:1026D00049FA002002F046FA002002F043FA0020F6
:1026E00002F040FA002002F03DFA002002F03AFA2F
:1026F000002002F037FAB42002F040FA8B2002F0FA
:1027000031FA002002F02EFA962002F02BFA002077
:1027100002F028FAA12002F025FA002002F022FAA5
:10272000B52002F02BFA022002F01CFA002002F081
:1027300019FA032002F016FA002002F013FA04201E
:1027400002F010FA002002F00DFAB62002F016FA9C
:10275000002002F007FA002002F004FAB72002F08D
:102760000DFA002002F0FEF9002002F0FBF93F20F4
:1027700002F0F8F9002002F0F5F95E2002F0F2F91B
:10278000002002F0EFF9642002F0ECF9002002F0E2
:10279000E9F98C2002F0E6F9002002F0E3F9AC2020
:1027A00002F0E0F9002002F0DDF9DC2002F0DAF9B5
:1027B000002002F0D7F9702002F0D4F9002002F0D6
:1027C000D1F9902002F0CEF9002002F0CBF9EB20F5
:1027D00002F0C8F9002002F0C5F9DC2002F0C2F9CD
:1027E000002002F0BFF9B82002F0C8F9002002F082
:1027F000B9F9002002F0B6F9002002F0B3F9002088
:1028000002F0B0F9002002F0ADF9002002F0AAF9C0
:10281000002002F0A7F9002002F0A4F9BA2002F08B
:10282000ADF9242002F09EF9002002F09BF900206F
:1028300002F098F9002002F095F9C12002F09EF90B
:10284000202002F08FF9002002F08CF9542002F0D1
:1028500089F9002002F086F9FF2002F083F90020B8
:1028600002F080F9C22002F089F90A2002F07AF918
:10287000002002F077F9042002F074F9002002F041
:1028800071F9C32002F07AF93C2002F06BF90020C4
:1028900002F068F93A2002F065F9002002F062F9CE
:1028A000392002F05FF9002002F05CF9372002F0D5
:1028B00059F9002002F056F93C2002F053F90020AB
:1028C00002F050F9362002F04DF9002002F04AF9EA
:1028D000322002F047F9002002F044F92F2002F0E4
:1028E00041F9002002F03EF92C2002F03BF90020D3
:1028F00002F038F9292002F035F9002002F032F90F
:10290000262002F02FF9002002F02CF9242002F0FA
:1029100029F901E080020020002002F023F92420A0
:1029200002F020F9002002F01DF9232002F01AF92C
:10293000002002F017F93C2002F014F9002002F008
:1029400011F9362002F00EF9002002F00BF93220C6
:1029500002F008F9002002F005F92F2002F002F938
:10296000002002F0FFF82C2002F0FCF8002002F01A
:10297000F9F8292002F0F6F8002002F0F3F82620FA
:1029800002F0F0F8002002F0EDF8242002F0EAF85E
:10299000002002F0E7F8242002F0E4F8002002F022
:1029A000E1F8232002F0DEF8002002F0DBF8C4207A
:1029B00002F0E4F8622002F0D5F8002002F0D2F82C
:1029C000052002F0CFF8002002F0CCF8842002F0BD
:1029D000C9F8002002F0C6F8F02002F0C3F8002089
:1029E00002F0C0F8182002F0BDF8002002F0BAF89A
:1029F000A42002F0B7F8002002F0B4F8182002F08A
:102A0000B1F8002002F0AEF8502002F0ABF8002040
:102A100002F0A8F80C2002F0A5F8002002F0A2F8BD
:102A2000172002F09FF8002002F09CF8952002F099
:102A300099F8002002F096F8F32002F093F80020B5
:102A400002F090F8E62002F08DF8002002F08AF8FB
:102A5000C52002F093F8322002F084F8002002F042
:102A600081F8442002F07EF8002002F07BF8652017
:102A700002F078F8002002F075F8762002F072F883
:102A8000002002F06FF8882002F06CF8002002F0BD
:102A900069F8C62002F072F8202002F063F80020E6
:102AA00002F060F8172002F05DF8002002F05AF8FA
:102AB000012002F057F8002002F054F8C72002F07D
:102AC0005DF8002002F04EF8002002F04BF80020E4
:102AD00002F048F8002002F045F8C82002F04EF855
:102AE000002002F03FF8002002F03CF8002002F045
:102AF00039F8002002F036F8C92002F03FF8002033
:102B000002F030F8002002F02DF8002002F02AF840
:102B1000002002F027F8002002F024F8002002F044
:102B200021F8002002F01EF8002002F01BF800201F
:102B300002F018F8002002F015F8002002F012F858
:102B4000002002F00FF8002002F00CF8002002F044
:102B500009F8002002F006F8002002F003F8E02057
:102B600002F00CF8162001F0FDFF002001F0FAFF42
:102B70001C2001F0F7FF002001F0F4FF212001F0FC
:102B8000F1FF002001F0EEFF362001F0EBFF002006
:102B900001F0E8FF462001F0E5FF002001F0E2FF30
:102BA000522001F0DFFF002001F0DCFF642001F083
:102BB000D9FF002001F0D6FF7A2001F0D3FF0020DA
:102BC00001F0D0FF8B2001F0CDFF002001F0CAFF03
:102BD000992001F0C7FF002001F0C4FFA82001F0F8
:102BE000C1FF002001F0BEFFB92001F0BBFF0020B3
:102BF00001F0B8FFC42001F0B5FF002001F0B2FFE2
:102C0000CA2001F0AFFF002001F0ACFFD22001F09C
:102C1000A9FF002001F0A6FFD92001F0A3FF0020AA
:102C200001F0A0FFE02001F09DFF002001F09AFFDD
:102C3000F32001F097FF002001F094FFE12001F064
:102C40009DFF162001F08EFF002001F08BFF1C205D
:102C500001F088FF002001F085FF222001F082FFB3
:102C6000002001F07FFF362001F07CFF002001F002
:102C700079FF452001F076FF002001F073FF52201C
:102C800001F070FF002001F06DFF642001F06AFF89
:102C9000002001F067FF7A2001F064FF002001F0BE
:102CA00061FF8B2001F05EFF002001F05BFF9920A7
:102CB00001F058FF002001F055FFA82001F052FF5D
:102CC000002001F04FFFB92001F04CFF002001F07F
:102CD00049FFC42001F046FF002001F043FFCA2055
:102CE00001F040FF002001F03DFFD22001F03AFF4B
:102CF000002001F037FFD82001F034FF002001F060
:102D000031FFE02001F02EFF002001F02BFFF32027
:102D100001F028FF002001F025FFE22001F02EFF46
:102D2000052001F01FFF002001F01CFF0B2001F027
:102D300019FF002001F016FF1B2001F013FF0020F7
:102D400001F010FF342001F00DFF002001F00AFF18
:102D5000442001F007FF002001F004FF4F2001F0A4
:102D600001FF002001F0FEFE612001F0FBFE0020CB
:102D700001F0F8FE792001F0F5FE002001F0F2FEEE
:102D8000882001F0EFFE002001F0ECFE972001F01A
:102D9000E9FE002001F0E6FEA62001F0E3FE00209F
:102DA00001F0E0FEB72001F0DDFE002001F0DAFEC8
:102DB000C22001F0D7FE002001F0D4FEC72001F0B0
:102DC000D1FE002001F0CEFED12001F0CBFE00208C
:102DD00001F0C8FED62001F0C5FE002001F0C2FEC1
:102DE000DD2001F0BFFE002001F0BCFEF32001F069
:102DF000B9FE002001F0B6FEE32001F0BFFE052081
:102E000001F0B0FE002001F0ADFE0A2001F0AAFEA4
:102E1000002001F0A7FE1C2001F0A4FE002001F01C
:102E2000A1FE332001F09EFE002001F09BFE442015
:102E300001F098FE002001F095FE502001F092FE76
:102E4000002001F08FFE622001F08CFE002001F0D6
:102E500089FE782001F086FE002001F083FE8820A4
:102E600001F080FE002001F07DFE972001F07AFE47
:102E7000002001F077FEA62001F074FE002001F092
:102E800071FEB72001F06EFE002001F06BFEC22043
:102E900001F068FE002001F065FEC72001F062FE2F
:102EA000002001F05FFED12001F05CFE002001F067
:102EB00059FED52001F056FE002001F053FEDD2022
:102EC00001F050FE002001F04DFEF32001F04AFE1B
:102ED000002001F047FEE42001F050FE012001F047
:102EE00041FE002001F03EFE012001F03BFE0020EB
:102EF00001F038FE022001F035FE002001F032FE24
:102F00002A2001F02FFE002001F02CFE3C2001F0D1
:102F100029FE002001F026FE4B2001F023FE0020B8
:102F200001F020FE5D2001F01DFE002001F01AFEE0
:102F3000742001F017FE002001F014FE842001F03F
:102F400011FE002001F00EFE932001F00BFE002088
:102F500001F008FEA22001F005FE002001F002FEB3
:102F6000B32001F0FFFD002001F0FCFDBE2001F0C8
:102F7000F9FD002001F0F6FDC42001F0F3FD002072
:102F800001F0F0FDCD2001F0EDFD002001F0EAFDA3
:102F9000D32001F0E7FD002001F0E4FDDD2001F089
:102FA000E1FD002001F0DEFDF32001F0DBFD00205B
:102FB00001F0D8FDE52001F0E1FD002001F0D2FD97
:102FC000002001F0CFFD002001F0CCFD002001F039
:102FD000C9FD022001F0C6FD002001F0C3FD29203B
:102FE00001F0C0FD002001F0BDFD3C2001F0BAFD64
:102FF000002001F0B7FD4B2001F0B4FD002001F0EE
:10300000B1FD5D2001F0AEFD002001F0ABFD7420AC
:1030100001F0A8FD002001F0A5FD842001F0A2FD33
:10302000002001F09FFD932001F09CFD002001F0A5
:1030300099FDA22001F096FD002001F093FDB32040
:1030400001F090FD002001F08DFDBE2001F08AFD11
:10305000002001F087FDC42001F084FD002001F074
:1030600081FDCD2001F07EFD002001F07BFDD3200D
:1030700001F078FD002001F075FDDC2001F072FD0B
:10308000002001F06FFDF32001F06CFD002001F045
:1030900069FDE62001F072FD112001F063FD0020C2
:1030A00001F060FD342001F05DFD002001F05AFDCB
:1030B000562001F057FD002001F054FD762001F06C
:1030C00051FD002001F04EFD772001F04BFD002066
:1030D00001F048FD662001F045FD002001F042FDB1
:1030E000882001F03FFD002001F03CFD992001F017
:1030F00039FD002001F036FDBB2001F033FD00203A
:1031000001F030FD992001F02DFD002001F02AFD95
:10311000662001F027FD002001F024FD552001F07C
:1031200021FD002001F01EFD552001F01BFD0020B7
:1031300001F018FD452001F015FD002001F012FD01
:10314000432001F00FFD002001F00CFD442001F0B0
:1031500009FD002001F006FDE72001F00FFD3220FF
:1031600001F000FD002001F0FDFC552001F0FAFC0B
:10317000002001F0F7FC762001F0F4FC002001F0C3
:10318000F1FC662001F0EEFC002001F0EBFC672072
:1031900001F0E8FC002001F0E5FC672001F0E2FC12
:1031A000002001F0DFFC872001F0DCFC002001F0B2
:1031B000D9FC992001F0D6FC002001F0D3FCBB2003
:1031C00001F0D0FC002001F0CDFC992001F0CAFCF8
:1031D000002001F0C7FC772001F0C4FC002001F0C2
:1031E000C1FC442001F0BEFC002001F0BBFC5620D5
:1031F00001F0B8FC002001F0B5FC232001F0B2FC86
:10320000002001F0AFFC332001F0ACFC002001F005
:10321000A9FC452001F0A6FC002001F0A3FCE82059
:1032200001F0ACFC002001F09DFC002001F09AFCB4
:10323000992001F097FC002001F094FC872001F018
:1032400091FC002001F08EFC882001F08BFC002016
:1032500001F088FC772001F085FC002001F082FC61
:10326000662001F07FFC002001F07CFC882001F04A
:1032700079FC002001F076FCAA2001F073FC00200C
:1032800001F070FCBB2001F06DFC002001F06AFC35
:10329000992001F067FC002001F064FC662001F039
:1032A00061FC002001F05EFC552001F05BFC002079
:1032B00001F058FC552001F055FC002001F052FCB3
:1032C000442001F04FFC002001F04CFC442001F0B0
:1032D00049FC002001F046FC552001F043FC002091
:1032E00001F040FCE92001F049FCAA2001F03AFC81
:1032F000002001F037FC002001F034FC002001F038
:1033000031FC002001F03AFCAA2001F02BFCCF2078
:1033100001F034FC002001F025FC002001F022FC2B
:10332000002001F01FFC002001F01CFC002001F037
:1033300019FC002001F016FC002001F013FC002015
:1033400001F010FC002001F00DFC002001F00AFC4F
:10335000002001F007FC002001F004FC002001F037
:1033600001FC002001F0FEFB002001F0FBFB00202F
:1033700001F0F8FB002001F0F5FBF02001F0FEFB6E
:10338000002001F0EFFB502001F0ECFB002001F0E9
:10339000E9FB002001F0E6FB002001F0E3FBF32055
:1033A00001F0ECFB002001F0DDFBF92001F0E6FB71
:1033B000062001F0D7FB102001F0D4FB292001F0FA
:1033C000D1FB002001F0CEFB3A2001F0D7FB5520C5
:1033D00001F0C8FB112001F0D1FB642005F000FED4
:1033E000292001F0CBFB352001F0C8FB002001F0C3
:1033F000B9FB512001F0C2FBFF2001F0B3FB5320C9
:1034000001F0BCFB2C2001F0ADFB552001F0B6FB18
:10341000822001F0A7FB2C2001F0B0FB01F048B89E
:10342000FE48808845F2105188427DD155214FF4E5
:10343000704001F0B9FBAA214FF2010001F0B4FB8A
:1034400052214FF2020001F0AFFB08214FF20300BE
:1034500001F0AAFB01214FF2040001F0A5FB0D21B0
:103460004FF4304001F0A0FB0D214BF2010001F0C0
:103470009BFB0D214BF2020001F096FB34214FF42F
:10348000364001F091FB34214BF2016001F08CFBDE
:1034900034214BF2026001F087FB0D214FF43140E3
:1034A00001F082FB0D214BF2011001F07DFB0D219B
:1034B0004BF2021001F078FB34214FF4374001F059
:1034C00073FB34214BF2017001F06EFB34214BF29F
:1034D000027001F069FB00214FF4324001F064FBFF
:1034E00000214BF2012001F05FFB00214BF2022092
:1034F00001F05AFB24214FF4384001F055FB242100
:103500004BF6010001F050FB24214BF6020001F0C4
:103510004BFB01214FF43F4001F046FB0F214FF4DC
:10352000334001F041FB00E0FDE30F214BF201309D
:1035300001F03AFB0F214BF2023001F035FB342150
:103540004FF4394001F030FB34214BF6011001F00B
:103550002BFB34214BF6021001F026FB08214FF41F
:10356000354001F021FB08214BF2015001F01CFB1A
:1035700008214BF2025001F017FB03214FF44240A7
:1035800001F012FB24214FF43A4001F00DFB2421FD
:103590004BF6012001F008FB24214BF6022001F03C
:1035A00003FB00214FF43C4001F0FEFA78214BF67A
:1035B000014001F0F9FA00214BF6024001F0F4FA63
:1035C00000214FF43D4001F0EFFA78214BF6015015
:1035D00001F0EAFA00214BF6025001F0E5FA002171
:1035E0004FF43E4001F0E0FA64214BF6016001F037
:1035F000DBFA00214FF4514001F0D6FA33214DF2AD
:10360000011001F0D1FA00214DF2021001F0CCFAC4
:1036100034214DF2031001F0C7FA00214DF20410DD
:1036200001F0C2FA3A214DF2051001F0BDFA002175
:103630004DF2061001F0B8FA4A214DF2071001F0E0
:10364000B3FA00214DF2081001F0AEFA5C214DF200
:10365000091001F0A9FA00214DF20A1001F0A4FAB4
:1036600081214DF20B1001F09FFA00214DF20C1058
:1036700001F09AFAA6214DF20D1001F095FA002101
:103680004DF20E1001F090FAE5214DF20F1001F00D
:103690008BFA01214DF2101001F086FA13214DF240
:1036A000111001F081FA01214DF2121001F07CFAA3
:1036B00054214DF2131001F077FA01214DF214104C
:1036C00001F072FA82214DF2151001F06DFA01211C
:1036D0004DF2161001F068FACA214DF2171001F0F0
:1036E00063FA02214DF2181001F05EFA00214DF24A
:1036F000191001F059FA02214DF21A1001F054FA92
:1037000001214DF21B1001F04FFA02214DF21C1065
:1037100001F04AFA34214DF21D1001F045FA022160
:103720004DF21E1001F040FA67214DF21F1001F01A
:103730003BFA02214DF2201001F036FA84214DF2BD
:10374000211001F031FA02214DF2221001F02CFA81
:10375000A4214DF2231001F027FA02214DF224108A
:1037600001F022FAB7214DF2251001F01DFA0221D5
:103770004DF2261001F018FACF214DF2271001F07A
:1037800013FA02214DF2281001F00EFADE214DF25B
:10379000291001F009FA02214DF22A1001F004FA71
:1037A000F2214DF22B1001F0FFF902214DF22C1005
:1037B00001F0FAF9FE214DF22D1001F0F5F9032187
:1037C0004DF22E1001F0F0F910214DF22F1001F002
:1037D000EBF903214DF2301001F0E6F933214DF2FF
:1037E000311001F0E1F903214DF2321001F0DCF962
:1037F0006D214DF2331001F0D7F900214FF4524002
:1038000001F0D2F933214DF2012001F0CDF9002170
:103810004DF2022001F0C8F9342101E080020020BD
:103820004DF2032001F0C0F900214DF2042001F017
:10383000BBF93A214DF2052001F0B6F900214DF215
:10384000062001F0B1F94A214DF2072001F0ACF950
:1038500000214DF2082001F0A7F95C214DF209206A
:1038600001F0A2F900214DF20A2001F09DF9812119
:103870004DF20B2001F098F900214DF20C2001F0DF
:1038800093F9A6214DF20D2001F08EF900214DF2A1
:103890000E2001F089F9E5214DF20F2001F084F9A5
:1038A00001214DF2102001F07FF913214DF211207A
:1038B00001F07AF901214DF2122001F075F954213D
:1038C0004DF2132001F070F901214DF2142001F0A6
:1038D0006BF982214DF2152001F066F901214DF2BC
:1038E000162001F061F9CA214DF2172001F05CF9B0
:1038F00002214DF2182001F057F900214DF2192054
:1039000001F052F902214DF21A2001F04DF9012186
:103910004DF21B2001F048F902214DF21C2001F06C
:1039200043F934214DF21D2001F03EF902214DF200
:103930001E2001F039F967214DF21F2001F034F902
:1039400002214DF2202001F02FF984214DF2212097
:1039500001F02AF902214DF2222001F025F9A421DB
:103960004DF2232001F020F902214DF2242001F034
:103970001BF9B7214DF2252001F016F902214DF275
:10398000262001F011F9CF214DF2272001F00CF98A
:1039900002214DF2282001F007F9DE214DF2292005
:1039A00001F002F902214DF22A2001F0FDF8F22186
:1039B0004DF22B2001F0F8F802214DF22C2001F0FD
:1039C000F3F8FE214DF22D2001F0EEF803214DF227
:1039D0002E2001F0E9F810214DF22F2001F0E4F83B
:1039E00003214DF2302001F0DFF833214DF2312078
:1039F00001F0DAF803214DF2322001F0D5F86D2103
:103A00004DF2332001F0D0F800214FF4534001F083
:103A1000CBF833214DF2013001F0C6F800214DF210
:103A2000023001F0C1F834214DF2033001F0BCF84E
:103A300000214DF2043001F0B7F83A214DF2053083
:103A400001F0B2F800214DF2063001F0ADF84A2144
:103A50004DF2073001F0A8F800214DF2083001F0D6
:103A6000A3F85C214DF2093001F09EF800214DF2DF
:103A70000A3001F099F881214DF20B3001F094F8F1
:103A800000214DF20C3001F08FF8A6214DF20D30DF
:103A900001F08AF800214DF20E3001F085F8E521A1
:103AA0004DF20F3001F080F801214DF2103001F09D
:103AB0007BF813214DF2113001F076F801214DF21F
:103AC000123001F071F854214DF2133001F06CF80E
:103AD00001214DF2143001F067F882214DF21530CA
:103AE00001F062F801214DF2163001F05DF8CA21B3
:103AF0004DF2173001F058F802214DF2183001F064
:103B000053F800214DF2193001F04EF802214DF228
:103B10001A3001F049F801214DF21B3001F044F850
:103B200002214DF21C3001F03FF834214DF21D30DE
:103B300001F03AF802214DF21E3001F035F867210C
:103B40004DF21F3001F030F802214DF2203001F02B
:103B50002BF884214DF2213001F026F802214DF29C
:103B6000223001F021F8A4214DF2233001F01CF89D
:103B700002214DF2243001F017F8B7214DF2253023
:103B800001F012F802214DF2263001F00DF8CF219C
:103B90004DF2273001F008F802214DF2283001F0F3
:103BA00003F8DE214DF2293000F0FEFF02214DF234
:103BB0002A3000F0F9FFF2214DF22B3000F0F4FF33
:103BC00002214DF22C3000F0EFFFFE214DF22D309E
:103BD00000F0EAFF03214DF22E3000F0E5FF102146
:103BE0004DF22F3000F0E0FF03214DF2303000F0B5
:103BF000DBFF33214DF2313000F0D6FF03214DF2CF
:103C0000323000F0D1FF6D214DF2333000F0CCFFA7
:103C100000214FF4544000F0C7FF33214DF2014022
:103C200000F0C2FF00214DF2024000F0BDFF342140
:103C30004DF2034000F0B8FF00214DF2044000F0C7
:103C4000B3FF3A214DF2054000F0AEFF00214DF2E6
:103C5000064000F0A9FF4A214DF2074000F0A4FF02
:103C600000214DF2084000F09FFF5C214DF2094019
:103C700000F09AFF00214DF20A4000F095FF8121EB
:103C80004DF20B4000F090FF00214DF20C4000F08F
:103C90008BFFA6214DF20D4000F086FF00214DF272
:103CA0000E4000F081FFE5214DF20F4000F07CFF57
:103CB00001214DF2104000F077FF13214DF2114029
:103CC00000F072FF01214DF2124000F06DFF54210F
:103CD0004DF2134000F068FF01214DF2144000F056
:103CE00063FF82214DF2154000F05EFF01214DF28D
:103CF000164000F059FFCA214DF2174000F054FF62
:103D000002214DF2184000F04FFF00214DF2194002
:103D100000F04AFF02214DF21A4000F045FF012158
:103D20004DF21B4000E005E300F03EFF02214DF2A2
:103D30001C4000F039FF34214DF21D4000F034FFEB
:103D400002214DF21E4000F02FFF67214DF21F406F
:103D500000F02AFF02214DF2204000F025FF8421CF
:103D60004DF2214000F020FF02214DF2224000F0F0
:103D70001BFFA4214DF2234000F016FF02214DF25B
:103D8000244000F011FFB7214DF2254000F00CFF58
:103D900002214DF2264000F007FFCF214DF22740CF
:103DA00000F002FF02214DF2284000F0FDFEDE216E
:103DB0004DF2294000F0F8FE02214DF22A4000F0B9
:103DC000F3FEF2214DF22B4000F0EEFE02214DF207
:103DD0002C4000F0E9FEFE214DF22D4000F0E4FE03
:103DE00003214DF22E4000F0DFFE10214DF22F4056
:103DF00000F0DAFE03214DF2304000F0D5FE332111
:103E00004DF2314000F0D0FE03214DF2324000F07F
:103E1000CBFE6D214DF2334000F0C6FE00214FF481
:103E2000554000F0C1FE33214DF2015000F0BCFEC0
:103E300000214DF2025000F0B7FE34214DF2035044
:103E400000F0B2FE00214DF2045000F0ADFE3A2128
:103E50004DF2055000F0A8FE00214DF2065000F092
:103E6000A3FE4A214DF2075000F09EFE00214DF2C4
:103E7000085000F099FE5C214DF2095000F094FECC
:103E800000214DF20A5000F08FFE81214DF20B50BF
:103E900000F08AFE00214DF20C5000F085FEA621B4
:103EA0004DF20D5000F080FE00214DF20E5000F05A
:103EB0007BFEE5214DF20F5000F076FE01214DF220
:103EC000105000F071FE13214DF2115000F06CFE05
:103ED00001214DF2125000F067FE54214DF21350B3
:103EE00000F062FE01214DF2145000F05DFE8221CF
:103EF0004DF2155000F058FE01214DF2165000F021
:103F000053FECA214DF2175000F04EFE02214DF231
:103F1000185000F049FE00214DF2195000F044FE07
:103F200002214DF21A5000F03FFE01214DF21B50CC
:103F300000F03AFE02214DF21C5000F035FE342113
:103F40004DF21D5000F030FE02214DF21E5000F0E7
:103F50002BFE67214DF21F5000F026FE02214DF28C
:103F6000205000F021FE84214DF2215000F01CFE73
:103F700002214DF2225000F017FEA4214DF22350F1
:103F800000F012FE02214DF2245000F00DFEB72188
:103F90004DF2255000F008FE02214DF2265000F0AF
:103FA00003FECF214DF2275000F0FEFD02214DF21D
:103FB000285000F0F9FDDE214DF2295000F0F4FD0B
:103FC00002214DF22A5000F0EFFDF2214DF22B506C
:103FD00000F0EAFD02214DF22C5000F0E5FDFE213B
:103FE0004DF22D5000F0E0FD03214DF22E5000F077
:103FF000DBFD10214DF22F5000F0D6FD03214DF2D4
:10400000305000F0D1FD33214DF2315000F0CCFDA5
:1040100003214DF2325000F0C7FD6D214DF23350B7
:1040200000F0C2FD00214FF4564000F0BDFD3321E9
:104030004DF2016000F0B8FD00214DF2026000F089
:10404000B3FD34214DF2036000F0AEFD00214DF2CE
:10405000046000F0A9FD3A214DF2056000F0A4FDD6
:1040600000214DF2066000F09FFD4A214DF20760ED
:1040700000F09AFD00214DF2086000F095FD5C21F2
:104080004DF2096000F090FD00214DF20A6000F051
:104090008BFD81214DF20B6000F086FD00214DF279
:1040A0000C6000F081FDA6214DF20D6000F07CFD5A
:1040B00000214DF20E6000F077FDE5214DF20F601A
:1040C00000F072FD01214DF2106000F06DFD132132
:1040D0004DF2116000F068FD01214DF2126000F018
:1040E00063FD54214DF2136000F05EFD01214DF29D
:1040F000146000F059FD82214DF2156000F054FD6E
:1041000001214DF2166000F04FFDCA214DF21760FB
:1041100000F04AFD02214DF2186000F045FD00213B
:104120004DF2196000F040FD02214DF21A6000F0DE
:104130003BFD01214DF21B6000F036FD02214DF2E6
:104140001C6000F031FD34214DF21D6000F02CFDAB
:1041500002214DF21E6000F027FD67214DF21F6025
:1041600000F022FD02214DF2206000F01DFD8421AF
:104170004DF2216000F018FD02214DF2226000F0A6
:1041800013FDA4214DF2236000F00EFD02214DF23B
:10419000246000F009FDB7214DF2256000F004FD18
:1041A00002214DF2266000F0FFFCCF214DF2276086
:1041B00000F0FAFC02214DF2286000F0F5FCDE214F
:1041C0004DF2296000F0F0FC02214DF22A6000F06F
:1041D000EBFCF2214DF22B6000F0E6FC02214DF2E7
:1041E0002C6000F0E1FCFE214DF22D6000F0DCFCC3
:1041F00003214DF22E6000F0D7FC10214DF22F600C
:1042000000F0D2FC03214DF2306000F0CDFC3321F0
:104210004DF2316000F0C8FC03214DF2326000F035
:10422000C3FC6D214DF2336000F0BEFC55214FF40C
:10423000704000F0B9FCAA214FF2010000F0B4FC7C
:1042400052214FF2020000F0AFFC08214FF20300B0
:1042500000F0AAFC00214FF2040000F0A5FCCC21E4
:104260004FF4314000F0A0FC00214BF2011000F0AF
:104270009BFC05214FF4364000F096FC70214FF472
:10428000374000F091FC70214BF2017000F08CFC83
:1042900001214FF4384000F087FC03214BF6010068
:1042A00000F082FC03214BF6020000F07DFC0321AC
:1042B0004BF6030000F078FC02214FF43C4000F084
:1042C00073FC00214BF6014000F06EFC00214BF620
:1042D000024000F069FCD0214FF4494000F064FC3A
:1042E00002214CF6011000F05FFC50214CF6021048
:1042F00000F05AFC50214CF6031000F055FC502100
:104300004CF6041000F050FC00214FF4545000F023
:104310004BFC55214FF4685000F046FC4FF4885098
:1043200000F02CFC782004F077FE4FF4245000F0CD
:1043300025FCBDE07E48808841F663118842F8D1B3
:10434000E22000F01BFC1D2000F00CFC022000F01D
:1043500009FC042000F006FC642004F05DFEE0206F
:1043600000F00CFC012000F0FDFB0A2004F038FEF8
:10437000E02000F003FC032000F0F4FB0C2004F02C
:104380002FFE012000F0FAFB0A2004F029FEE620AF
:1043900000F0F4FB2F2000F0E5FBFF2000F0E2FB33
:1043A000FF2000F0DFFBB02000F0E8FB202000F051
:1043B000D9FB002000F0D6FB032000F0D3FB40F235
:1043C0001F3000F0CFFB012000F0CCFB40F2DF10EB
:1043D00000F0C8FB002000F0C5FBB42000F0CEFBCD
:1043E000042000F0BFFB40F21F4000F0BBFB0020A8
:1043F00000F0B8FB2E2000F0B5FB002000F0B2FB6F
:10440000002000F0AFFB002000F0ACFB002000F02B
:10441000A9FBB62000F0B2FB022000F0A3FB4FF492
:10442000037000F09FFB002000F09CFB172000F0C1
:1044300099FB152000F096FB002000F093FB002074
:1044400000F090FBF02000F099FB032000F08AFBC5
:10445000292000F093FBD02000F090FB002000F01A
:1044600081FBBE2000F08AFB052000F07BFBFE20D4
:1044700000F078FB012000F075FB002000F072FBDB
:10448000002000F06FFB002000F06CFBB82000F073
:1044900075FB032000F066FB012000F063FBBA20EF
:1044A00000F06CFB012000F05DFB642000F0B6F82A
:1044B0001F48808849F24131884211D01C488088C9
:1044C00045F2103188420BD01948808845F21051CE
:1044D000884205D01648808841F6631188421CD175
:1044E0001448006820F00F004FF02041C1F804018B
:1044F0000846D0F8040120F47060C1F804010846B1
:10450000D0F8040140F00400C1F804010846D0F8D6
:10451000040140F48060C1F804010020FDF7BCFBF9
:104520000120054908604FF6FF70FDF753FB1CBDE5
:1045300080020020040100A09482404208B5034894
:1045400000880090BDF8000008BD00000000086071
:104550002DE9F04105460E4600240027A0462D48CF
:104560000088A84203DD2B484088B04202DC0020CE
:10457000BDE8F0812848006820B13146284601F0A6
:104580004BF8F5E73146284600F0B2F9214880881B
:1045900049F2413188420BD01E48808845F21031E3
:1045A000884205D01B48808841F66311884203D1B8
:1045B0002E2000F0E3FA09E01648808845F21051F9
:1045C000884203D14FF4385000F0D8FAFFF7B6FF15
:1045D00004461048808841F66311884201D1204684
:1045E000C6E7022009F0E0FAFFF7A8FF0446022020
:1045F00009F0DAFAFFF7A2FF8046E7B24FF6FF7044
:1046000000EA0727E012C002B91240EA411040EA6E
:10461000E820ADE7800200209002002070B52DED6B
:10462000048B0446BE2000F0A9FA052000F09AFA97
:1046300020460BF0BCF941EC190B9FED0E0B53EC2F
:10464000102B0BF0C7F941EC180B0BF083F985B276
:10465000284600F087FA012000F084FAFF2000F0DD
:1046600081FA002000F07EFA002000F07BFABDEC19
:10467000048B70BD6666666666660440F0B50546E6
:104680000024002799488079012805D1974880881F
:1046900041F66311884208D194488079F0B9934873
:1046A000808841F66311884218D1082D15D2DFE8C1
:1046B00005F00406080A0C0E101206250DE0072569
:1046C0000BE0042509E0052507E0012505E00025AC
:1046D00003E0032501E0022500BF00BF8348808876
:1046E00049F24131884211D08048808845F210312A
:1046F00088420BD07D48808845F21051884205D011
:104700007A48808841F6631188427DD1082D1CD2F9
:10471000DFE805F00406090C0F12151800BF14E0BD
:1047200044F0800411E044F040040EE044F0C00482
:104730000BE044F0200408E044F0600405E044F09D
:10474000A00402E044F0E00400BF00BF6748808896
:1047500045F21051884202D14FF4585700E03627F5
:104760006248808845F2103188420DD05F488088C9
:1047700045F21051884207D05C48808841F66311A9
:10478000884201D044F008042146384600F00CFA73
:104790005648808841F6631188421DD004F02000FD
:1047A00068B15248008851494988884214DA4F4814
:1047B000068840884D490880084646800CE04B48F2
:1047C00000884A494988884206DD4848068840886A
:1047D00046490880084646804448808845F2105182
:1047E000884254D14149488900F0C8F9002000F0BE
:1047F000B9F93E494989491C88B200F0BFF9002047
:1048000000F0B0F9394900E06FE04989891C88B2AD
:1048100000F0B4F935490988491EC1F30F2000F0B2
:10482000A1F932494989C91C88B200F0A7F92F497A
:104830000978491EC8B200F095F92C49888900F022
:104840009DF9002000F08EF928498989491C88B219
:1048500000F094F9002000F085F924498989891C29
:1048600088B200F08BF921494988491EC1F30F2015
:1048700000F078F91D498989C91C88B200F07EF9D9
:104880001A498978491EC8B200F06CF92DE0174921
:10489000488900F073F9002000F064F9002000F06E
:1048A00061F912490988491EC1F30F2000F05AF935
:1048B0000E490978491EC8B200F054F90B4988899D
:1048C00000F05CF9002000F04DF9002000F04AF9FA
:1048D00006494988491EC1F30F2000F043F90349F6
:1048E0008978491EC8B200F03DF9F0BD8002002071
:1048F00010B502460C464B48808849F24131884247
:1049000005D04848808845F21031884214D1454985
:10491000488900F033F9101200F024F9D0B200F009
:1049200021F94049888900F029F9201200F01AF98C
:10493000E0B200F017F973E03A48808841F663115D
:10494000884247D137488079A8B936480088401E48
:10495000801A82B23349488900F010F9002000F033
:1049600001F9002000F0FEF8101200F0FBF8D0B2C0
:1049700000F0F8F816E02B49488900F0FFF8101213
:1049800000F0F0F8D0B200F0EDF826490988491E91
:10499000C1F30F2000F0E6F822490978491EC8B299
:1049A00000F0E0F81F49888900F0E8F8201200F0D4
:1049B000D9F8E0B200F0D6F81A494988491EC1F387
:1049C0000F2000F0CFF817498978491EC8B200F0CF
:1049D000C9F825E01348808845F2105188421FD15C
:1049E0001049488900F0CAF8101200F0BBF80D49D0
:1049F0004989491C88B200F0C1F8D0B200F0B2F881
:104A00000849888900F0BAF8201200F0ABF805498F
:104A10008989491C88B200F0B1F8E0B200F0A2F830
:104A200010BD0000800200202DE9F84F80460F469F
:104A300016461C46BB462046E31704EB5373DB10B7
:104A400021464FEAE47C04EB5C7C4FEAEC0CA4EBDF
:104A5000CC0CBCF1000F02D04FF0010C01E04FF084
:104A6000000C6344224604EBD27C4FEA6C0C03FB3F
:104A70000CF3DBB20093A6F12000C6B200255EE085
:104A80000C2C07D106EB46002F4901EB800010F8F3
:104A900005901BE0102C05D12C4800EB061010F8F7
:104AA000059013E0182C07D106EBC600284901EB4E
:104AB000800010F8059009E0202C05D1254800EB76
:104AC000C61010F8059001E0BDE8F88F4FF0000A1D
:104AD0002FE009F0800030B11F4839460268404697
:104AE000FDF79AF907E00A9828B91C483946026888
:104AF0004046FDF791F94FEA49604FEA1069781C8A
:104B000087B217484088B84200DCDDE7A7EB0B000E
:104B1000A0420AD15F4608F101001FFA80F8104850
:104B20000088404500DCCFE706E00AF1010000F014
:104B3000FF0ABAF1080FCCDB00BF681CC5B20098B1
:104B400085429DDB00BFBFE7DAFB00084E0001088D
:104B50003E0601089A1301080C00002010000020F6
:104B60008002002001B5BDF800000090BDF80000F3
:104B70000149088008BD00000000086001B5BDF8CB
:104B800000000090BDF800000149088008BD000049
:104B9000FEFF076002480089024908807047000054
:104BA00080020020FEFF0760024A1080921C1180E4
:104BB00070470000FEFF07601CB50B48006840F01E
:104BC0000200094908600120032100230246CDE9C3
:104BD00000100648FCF73CFE012005490860054925
:104BE000C1F880021CBD00003038024000040240C1
:104BF000848240420080404218B504460648009432
:104C0000008B401E83B20448C08A401E82B200213D
:104C1000084600F037F918BD90020020F0B50346B1
:104C20000C461546002100200022214E366826F051
:104C300080561F4F3E6001E04E1CB1B21C4E3668DC
:104C400006F000561EB141F6FF76B142F4DB41F6A4
:104C5000FF76B14201D1012029E042EA831242EA03
:104C60000472134E88363260361D366826F440369C
:104C70000F4F8C373E603E46366846EA05463E603A
:104C80000B4E366846F08056094F3E6001E04E1CE0
:104C9000B1B2074E366806F000561EB941F6FF76EF
:104CA000B142F4DB41F6FF76B14200D10220F0BD03
:104CB000003802402DE9F04F04460D4616464FF0ED
:104CC000000CDFF8349199F81590B9F1000F04D079
:104CD0002046294632461F4611E02846DFF8189143
:104CE000D9F80490A9EB0609A9F101011A46DFF8E9
:104CF0000891D9F80490A9EB0409A9F10107DFF89C
:104D0000F890B9F80090A2EB000A0AF1010AA9EBA9
:104D10000A091FFA89F8DFF8E09099F81490DFF893
:104D2000DCA05AF82990DFF8D0A0DAF81CA0DFF850
:104D3000C8B0DBF800B00BFB010B0AFB0B9EDFF8E1
:104D4000C090D9F8009049F40009DFF8B4A0CAF87F
:104D50000090DFF8B090D9F8009029F00109DFF851
:104D6000A4A0CAF800904FF00009CAF800904FF0D4
:104D70000209CAF81C904FF00009CAF81090D146F9
:104D8000C9F84080DDF82490CAF80C90D146C9F8E3
:104D90003CE0A7EB010909F10109A2EB000A0AF1C5
:104DA000010A49EA0A49DFF85CA0CAF84490D146F2
:104DB000D9F8009049F00109CAF8009005E00CF11B
:104DC000010CBCF5001F00D308E0DFF83890D9F8DB
:104DD000049009F00209B9F1000FF0D000BFDFF82C
:104DE0002490D9F8089049F00209DFF818A0CAF811
:104DF0000890BDE8F08F0000900200201400002011
:104E00003038024000B002400949487530B98988FD
:104E1000074AD18211460988118308E0012806D18A
:104E200003490988024AD182114689881183704753
:104E30009002002070B5114B5B7D6BB10F4BDB69AD
:104E40000E4D2D6805FB01056B430C4D2D7D0C4E61
:104E500056F82550EA520FE0084B1D685B681B1A94
:104E60005B1E05FB0313054DED696B43034D2D7D63
:104E7000034E56F82550EA5270BD00009002002003
:104E8000140000202DE9F04F04460D4616464FF061
:104E9000000CDFF8289199F81590B9F1000F04D0B3
:104EA0002046294632461F4611E02846DFF80C917D
:104EB000D9F80490A9EB0609A9F101011A46DFF817
:104EC000FC90D9F80490A9EB0409A9F10107DFF8D7
:104ED000EC90B9F80090A2EB000A0AF1010AA9EBE4
:104EE0000A091FFA89F8DFF8D49099F81490DFF8CE
:104EF000D0A05AF82990DFF8C4A0DAF81CA0DFF897
:104F0000BCB0DBF800B00BFB010B0AFB0B9EDFF81B
:104F1000B490D9F8009049F40009DFF8A8A0CAF8C5
:104F20000090DFF8A490D9F8009029F00109DFF88B
:104F300098A0CAF800904FF44039CAF800904FF09A
:104F40000209CAF83490D146C9F84080C9F83CE05B
:104F5000A7EB010909F10109A2EB000A0AF1010A14
:104F600049EA0A49DFF860A0CAF84490DDF82490C5
:104F7000CAF83890D146D9F8009049F00109CAF82A
:104F8000009005E00CF1010CBCF5001F00D308E017
:104F9000DFF83490D9F8049009F00209B9F1000F54
:104FA000F0D000BFDFF82090D9F8089049F002094E
:104FB000DFF814A0CAF80890BDE8F08F9002002036
:104FC000140000203038024000B002407FB50024B9
:104FD000002500F0D1FA0546D348006840F0806013
:104FE000D1490860D0481438006840F00200CE492A
:104FF000143908600846006840F4F0700860012029
:10500000022100230246CDE900102021C748FCF709
:105010001FFC0120032100230222CDE900108102A0
:10502000C348FCF715FC0120032100230222CDE92F
:1050300000104FF40C61BF48FCF70AFC012003216B
:1050400000230222CDE900104FF47E41BA48FCF75C
:10505000FFFB0120032100230222CDE9001040F2D2
:10506000F761B648FCF7F4FB0E220A21B048FCF7C2
:10507000CFFB0E220621AF48FCF7CAFB0E22072108
:10508000AC48FCF7C5FB0E220B21AA48FCF7C0FB7D
:105090000E220921A848FCF7BBFB0E220A21A648D4
:1050A000FCF7B6FB0E220B21A348FCF7B1FB0E2246
:1050B0000C21A148FCF7ACFB0E220D219E48FCF709
:1050C000A7FB0E2211469C48FCF7A2FB0E220F21E3
:1050D0009948FCF79DFB0E2200219848FCF798FBAD
:1050E0000E2201219548FCF793FB0E2202219348E2
:1050F000FCF78EFB0E2204219048FCF789FB0E2260
:1051000005218E48FCF784FB0E2206218B48FCF714
:105110007FFB0E2207218948FCF77AFB0E2209212A
:105120008648FCF775FB0E220A218448FCF770FBC9
:1051300044F24230854218D14FF4F0708049086043
:105140004FF48870486001200881488128208881B8
:105150000820C881052008820820488202220421F4
:105160004FF49070FFF75AFD50E047F284008542FB
:1051700018D14FF44870724908604FF4F0704860DD
:105180000120088148812E2088811720C881D220E3
:10519000088216204882012203214FF4C670FFF7CF
:1051A0003DFD33E047F21600854219D14FF480608F
:1051B000634908604FF4167048601420088103208A
:1051C00048818C2088811420C881A02008820C206E
:1051D0004882012202214FF4B470FFF71FFD15E051
:1051E00047F21800854207D14FF4A0605449086087
:1051F0004FF44870486009E048F21600854205D136
:1052000040114F4908604FF416704860002400BFF9
:1052100000BF00BF4B48046049484089441E4848CD
:105220000089401E44EA004446481038046044485F
:1052300040894349C9890844441E4148008940497E
:1052400089890844401E44EA00443E480C38046002
:105250003B4840893A49C989084439494968084462
:10526000441E3748008936498989084434490988E9
:105270000844401E44EA004432480838046030487C
:1052800040892F49C98908442D49496808442C4957
:10529000498A0844441E2A480089294989890844C2
:1052A0002749098808442649098A0844401E44EAD7
:1052B00000442448001F0460002022491431086083
:1052C000012000F0D7F920482049086002201C493D
:1052D000C861002007210622CDE90002CDE90210B5
:1052E0001A48FF2302220168002000F035F8144814
:1052F000808880B200901248008883B20022114654
:10530000104600F09DF80E480088114908800C48AE
:1053100080884880002000F0A7F901200D4908602E
:10532000801EFFF769FC7FBD443802400004024044
:105330000014024000180240001C024000200240FD
:105340009002002018680140000000C014000020F6
:1053500080020020948240422DE9F04106ACF0CC5E
:10536000E0B9DFF878C0CCF80010DFF870C0ACF11D
:10537000180CCCF800200CF1040CCCF8003047EAF3
:10538000046CDFF85880A8F11008C8F800C046EA9D
:10539000052C08F10408C8F800C01DE0DFF83CC087
:1053A0000CF1800CCCF80010DFF830C00CF1680C68
:1053B000CCF800200CF1040CCCF8003047EA046C67
:1053C000DFF8188008F17008C8F800C046EA052C1C
:1053D00008F10408C8F800C0BDE8F081AC680140DD
:1053E000012910D130B9154A126842F00102134B5D
:1053F0001A6019E0114A8032126842F001020F4B24
:1054000080331A6010E079B930B90C4A126822F082
:1054100001020A4B1A6007E0084A8032126822F043
:105420000102064B80331A60044A603A126842F067
:105430000102024B603B1A60704700008468014023
:105440002DE9F04782460F4690461E46DDF8209033
:105450000025BAF1000F43D1B81945490968C1F3D5
:105460000B410844040442480068C0F30B40384430
:10547000401C20433E497C31086008EB09003C4950
:105480000968C1F30A010844040439480068C0F3FC
:105490000A004044401C20433549803108603448AC
:1054A0008830006800F007050DB904240AE0012DDA
:1054B00001D1032406E0052D01D0062D01D10124E0
:1054C00000E0022406FB04F0C01C06FB04F140EAE5
:1054D00001402749A4310860081DC0F8009041E050
:1054E000B81923490968C1F30B4108440404204852
:1054F0000068C0F30B403844401C20431C49FC3179
:10550000086008EB09001A490968C1F30A01084458
:10551000040417480068C0F30A004044401C2043BC
:105520001449086013480830006800F007050DB9F9
:1055300004240AE0012D01D1032406E0052D01D049
:10554000062D01D1012400E0022406FB04F0C01C5A
:1055500006FB04F140EA0140064924310860081DB9
:10556000C0F8009001215046FFF73AFFBDE8F087F0
:105570000C6801400C6901401CB5002420480068FB
:1055800040F4A0701E490860012000210B460A4625
:10559000CDE9001040211B48FCF75AF901200021F9
:1055A0000B460A46CDE9001084211748FCF750F954
:1055B00016480068C4B21648D0F8080244EA400011
:1055C000C4B21448006844EA8000C4B214B944F27A
:1055D00042301CBD012C02D147F28400F9E7022CB5
:1055E00002D147F21600F4E7032C02D147F218006B
:1055F000EFE7042C02D148F21600EAE70020E8E7C2
:105600003038024000180240002002401802434295
:10561000000044421C02444210B502461048407D3E
:1056200068B10F48C0690E4B1B6803FB0123584348
:105630000B4B1B7D0B4C54F82330185A10BD0848F7
:1056400003684068801A401E03FB0010044BDB69AE
:105650005843034B1B7D034C54F82330185AEDE795
:1056600090020020140000200149087570470000D6
:1056700090020020012806D10749096841F0010184
:10568000054A116006E028B90349096821F00101C3
:10569000014A116070470000186801402DE9F0418F
:1056A0000746884614461D46284600F033F8C5F1E3
:1056B000040007FA00F60F20284100EA080006431C
:1056C00006F00F06E21704EBD2625211920002F1CB
:1056D000E022D2F800212146E31704EBD3635B11EB
:1056E000A4EB431C012303FA0CF31A432046E317EF
:1056F00004EBD3635B119B0003F1E023C3F80021AB
:105700000348005D40EA061001490855BDE8F081F4
:1057100000E400E00146072323EA01021202054BE0
:1057200018684FF6FF031840034B18431043014B12
:10573000186070470CED00E00000FA054A0A5202BA
:105740000243014B1A60704708ED00E02DE9FE4F5F
:105750008046894617461D460C9C00260020029074
:10576000019083460090824676488079B8FBF0F03D
:1057700080B2019073488079B9FBF0F01FFA80FB8A
:105780005846019901EBD1725210A1EB42020BEB8A
:10579000D0735B10ABEB43039A4202D00120BDE80B
:1057A000FE8F00206849087068490870087081F809
:1057B00000804FEA182008704FEA18400870352022
:1057C00061490870002000F01BFD06460EB1022062
:1057D000E5E7012000F014FD06460EB10220DEE7E9
:1057E00085205949087059490F703812087081F89E
:1057F00000904FEA192008704FEA194008701E20E7
:1058000000F008F9E11704EBD1514912A4EB412152
:1058100089B10020029009E015F8010B4FF000411A
:105820000870BDF80800401C80B20290BDF8080066
:10583000A042F1DB7AE02046E11704EBD151C1F33D
:10584000472100913846F91707EBD151C1F3472A98
:10585000002634E03E48006840F040004FF0204110
:10586000C1F880000020029009E015F8010B4FF00C
:1058700000410870BDF80800401C80B20290BDF8DD
:105880000800B0F5007FF0DB00BF3148001D006864
:1058900000F040000028F8D02D481430016806EBD5
:1058A0000A0228481C3040F822104FF02040D0F85F
:1058B000800020F0400026490860701CC6B20098A5
:1058C0008642C7DB1F484088103000EB8A0080B258
:1058D00002901E2000F09EF885201B490870BDF83C
:1058E00008001A490870BDF80800001208701E2050
:1058F00000F090F813481C3000EB8A05002002905D
:105900000FE0002606E015F8010B4FF0004108708B
:10591000701CC6B2042EF6DBBDF80800401C80B235
:105920000290BDF8081000988142EADB1020064979
:10593000087000F049FC402801D001202FE700202A
:105940002DE70000280500200000018000000280F3
:10595000800000A02DE9F04104460D464FF00008FC
:105960000026002728488079B4FBF0F086B226484C
:105970008079B5FBF0F087B23846314606EBD1723C
:105980005210A6EB420207EBD0735B10A7EB430368
:105990009A4202D00120BDE8F08100201B49087026
:1059A0001B49087008700C70200A0870200C0870E1
:1059B000352016490870002000F022FC8046B8F11E
:1059C000000F01D00220E6E7012000F019FC80461C
:1059D000B8F1000F01D00220DDE785200B490870E7
:1059E00000200B49087008700D70280A0870280CF8
:1059F000087010200549087000F0E6FB402801D02F
:105A00000120C8E70020C6E728050020000001802B
:105A10000000028001B502E00098401E009000984E
:105A20000028F9D108BD00002DE9F74F82B00546E6
:105A3000164600200190002481460120039900F0C1
:105A400055F807460020039900F050F88246314689
:105A5000012000F04BF880463146002000F046F867
:105A6000834687EA0A0080EA080080EA0B0001907A
:105A700040F6FF710198884219D187EA080421464F
:105A80000FA0FAF7D1FC2046E11704EB51714FEA61
:105A9000E109E11704EB5171C910A4EBC102012126
:105AA000914015F80920514005F8091006E008A0BA
:105AB000FAF7BAFC012005B0BDE8F08F0020FAE744
:105AC0006572726F72706F733A25640D0A00000080
:105AD0003262697420656363206572726F72206F31
