:020000040800F2
:10000000004201245504000899BA0008F7A400082A
:10001000F1B800087D1D0008F9100108000000007B
:100020000000000000000000000000009503000830
:10003000E525000800000000F103000857C900088A
:100040006F0400086F0400086F0400086F040008C4
:100050006F0400086F0400086F0400086F040008B4
:100060006F0400086F0400086F0400086F040008A4
:100070006F040008F11F000801200008112000088B
:100080006F0400086F0400086F0400086F04000884
:100090006F0400086F0400086F0400086F04000874
:1000A0006F0400086F0400086F0400086F04000864
:1000B0006F0400086F0400086F0400086F04000854
:1000C0006F0400086F0400086F0400086F04000844
:1000D0006F0400086F04000859E800086F04000866
:1000E0006F0400086F040008000000006F0400089F
:1000F0006F0400086F0400086F0400086F04000814
:100100006F0400086F0400086F0400086F04000803
:1001100099D500086F0400086F0400086F040008F8
:100120006F0400086F0400086F0400086F040008E3
:100130006F0400086F0400086F0400086F040008D3
:1001400000000000000000000000000000000000AF
:100150006F0400086F0400086F0400086F040008B3
:100160006F0400086F0400086F0400086F040008A3
:100170006F0400086F0400086F040008000000000E
:100180006F0400086F0400086F0400086F04000883
:100190006F0400086F0400086F0400086F04000873
:1001A0008DAB00086F0400086F0400086F0400089E
:1001B0006F0400086F0400086F0400086F04000853
:1001C0006F0400086F0400086F0400086F04000843
:1001D0006F04000801BE00086F0400086F040008E7
:1001E0006F0400086F0400086F0400086F04000823
:1001F0006F0400086F0400086F0400086F04000813
:100200006F0400086F0400086F0400086F04000802
:100210006F0400086F040008F5CB00086F040008A5
:100220006F0400086F0400086F040008000000005D
:100230006F0400086F040008000000006F0400084D
:100240006F0400086F0400086F0400086F040008C2
:100250006F0400086F0400086F0400086F040008B2
:100260006F0400086F0400086F0400086F040008A2
:100270006F0400086F0400086F040008000000000D
:100280006F0400086F0400086F04000800000000FD
:10029000000000006F04000800F002F800F06AF8A7
:1002A0000AA090E8000C82448344AAF10107DA45D1
:1002B00001D100F05FF8AFF2090EBAE80F0013F0B9
:1002C000010F18BFFB1A43F001031847383D050022
:1002D000583D05000A444FF0000C10F8013B13F0A4
:1002E000070408BF10F8014B1D1108BF10F8015B8F
:1002F000641E05D010F8016B641E01F8016BF9D182
:1003000013F0080F1EBF10F8014BAD1C0C1B09D1D8
:100310006D1E58BF01F801CBFAD505E014F8016B4A
:1003200001F8016B6D1EF9D59142D6D370470000DC
:100330000023002400250026103A28BF78C1FBD8EE
:10034000520728BF30C148BF0B6070471FB542F04D
:100350009FF900F013FB04000020002142F07AF91D
:10036000401C60600020002142F05EF9E0601FBD8B
:1003700010B510BD00F0F1FB1146FFF7E7FF3AF0B2
:100380007BFA00F099FE03B4FFF7F2FF03BC00F024
:10039000E3FA00002C4B19680868B0E8F04F80F3CE
:1003A0000988BFF36F8F4FF0000080F3118870470A
:1003B0000000000008480068006880F308884FF0DB
:1003C000000080F3148862B661B6BFF34F8FBFF3AD
:1003D0006F8F00DF00BF00BF08ED00E0DFF80C000A
:1003E000016841F470010160704700BF88ED00E0D2
:1003F000EFF30980BFF36F8F134B1A681EF0100FD5
:1004000008BF20ED108A20E9F04F106009B44FF0CA
:10041000500080F31188BFF34F8FBFF36F8F41F00F
:10042000FBF84FF0000080F3118809BC19680868D8
:10043000B0E8F04F1EF0100F08BFB0EC108A80F348
:100440000988BFF36F8F704708030024EFF305801E
:10045000704700000948804709480047FEE7FEE76B
:10046000FEE7FEE7FEE7FEE7FEE7FEE7FEE7FEE764
:1004700004480549054A064B70470000F9CA0008C0
:10048000990200080036012400420124003A0124A8
:10049000003A012453EA020C00F069802DE9F04B88
:1004A0004FF00006002B1FBFB3FA83F503FA05F4E3
:1004B00024FA05F65E4012BF1643B2FA82F502FA3C
:1004C00005F4C5F120051EBF22FA05FC44EA0C0420
:1004D000203556EA044C4FEA144418BF641C4FF010
:1004E00000084FF00009904271EB030C39D300294A
:1004F00019BFB1FA81F701FA07F6B0FA80F700FAEE
:1005000007F6C7F120071EBF20FA07FC46EA0C06D3
:100510002037B6FBF4FCA7EB0507103F07F01F0BD5
:10052000CBF120060CFA0BFB2CFA06F644BFB346BF
:100530000026202FA4BF5E464FF0000B5BEA060C9E
:1005400008BF4FF0010B19EB0B09ABFB027C48EB2A
:100550000608C01B06FB02CC0BFB03CC71EB0C01A5
:10056000C1E70B46024641464846BDE8F08B13B54D
:100570004FF000004FF00001AFF30080BDE81C40D9
:10058000704770B5064600F04DF9046805463046E0
:100590000A22002100F0A8F92C6070BD40EA010396
:1005A000024630B59B0710D14FF0013400E008C27D
:1005B00008C91D1B9D4315EAC41FF8D013F0FF01A5
:1005C00002F8011B0DD01B0AF8E711F8013B002BC4
:1005D00002F8013B05D011F8013B002B02F8013B6A
:1005E000F3D130BD10B5431C02E010F8011B71B10E
:1005F0008107FAD14FF0013202C88C1A8C4314EAF9
:10060000C211F9D0C01A0A0603D0C01E10BDC01A0C
:1006100010BD0A0401D0801E10BD0902FCD0401E8E
:1006200010BD032A40F2308010F0030C00F015805A
:1006300011F8013BBCF1020F624498BF11F801CBE5
:1006400000F8013B38BF11F8013BA2F1040298BF4A
:1006500000F801CB38BF00F8013B11F0030300F0B4
:100660002580083AC0F0088051F8043B083A51F858
:1006700004CBA0E80810F5E7121D5CBF51F8043B5D
:1006800040F8043BAFF30080D20724BF11F8013BD0
:1006900011F801CB48BF11F8012B24BF00F8013B32
:1006A00000F801CB48BF00F8012B704710B5203A85
:1006B000C0F00B80B1E81850203AA0E81850B1E81B
:1006C0001850A0E81850BFF4F5AF5FEA027C24BFD1
:1006D000B1E81850A0E8185044BF18C918C0BDE8C8
:1006E00010405FEA827C24BF51F8043B40F8043B91
:1006F00008BF7047D20728BF31F8023B48BF11F846
:10070000012B28BF20F8023B48BF00F8012B70479F
:1007100002F0FF0343EA032242EA024200F002B879
:100720004FF000020429C0F0128010F0030C00F01A
:100730001B80CCF1040CBCF1020F18BF00F8012B98
:10074000A8BF20F8022BA1EB0C0100F00DB85FEA66
:10075000C17C24BF00F8012B00F8012B48BF00F832
:10076000012B70474FF0000200B5134694469646A1
:10077000203922BFA0E80C50A0E80C50B1F12001B4
:10078000BFF4F7AF090728BFA0E80C5048BF0CC062
:100790005DF804EB890028BF40F8042B08BF7047C0
:1007A00048BF20F8022B11F0804F18BF00F8012B32
:1007B000704700004FF0013C50F8042B51F8043B07
:1007C0009A4215D1A2EB0C03934313EACC130BD13D
:1007D00050F8042B51F8043B9A4209D1A2EB0C03C8
:1007E000934313EACC13E7D04FF00000704700BFEB
:1007F000D01A01BAB1FA81F101F0180122FA01F020
:10080000CB40C1F12001DBB2C0B2C01A2CFA01F317
:10081000D11A914311EAC311E6D17047704770476E
:100820007047000000487047A035012410B5FFF75D
:10083000F9FF006810BD10B50446FFF7F3FF046030
:1008400010BD00000FB4002300B589B00CA90091C1
:100850000B99CB60214B7B440693214B7B44079340
:1008600004236FF00042CDE901321E4A7A446B4600
:1008700008920246002041F073FF09B05DF814FBB6
:1008800070B506464FF0FF3015460C46324686B02E
:100890000091CDE9010169460020049004A8FFF70A
:1008A000D1FF02460498211825B108B1084600E09E
:1008B00020462860049800280DD0002A02DD009808
:1008C000884208D03246081B69460094CDE90104ED
:1008D00004A8FFF7B7FF06B070BD00003D0100009F
:1008E00055010000150100002DE9F04791460F4623
:1008F00080460446002614F8015B2DB100F036F85E
:100900000068405DC007F6D12B2D02D02D2D18D0E8
:10091000641E4A463946204600F05DF827B1396822
:10092000A14201D1C7F800804FF0020471050BD538
:100930004042002803DDFFF775FF0460A007BDE813
:10094000F08746F48066E4E70028F8DAFFF76AFFEC
:1009500004606FF00040F2E701491820ABBEFEE7EB
:100960002600020000487047A035012410B500F0B1
:1009700005F8001D10BD00BFDD1C040000487047D5
:10098000C035012410B50446FFF7F0FF0068005D94
:1009900000F0010010BD426842B1016811F8013B4E
:1009A00023B1521EC0E90012184670470121C160F0
:1009B000881E704742685AB1C368016843B98368AA
:1009C0008B4205D0491E521CC0E90012002070471E
:1009D0004FF0FF3070472DE9F05F824615468B4699
:1009E00000270AF10104B9460078302801D09DB1F2
:1009F00013E014F8010B0127782803D0582801D000
:100A000045B10AE00DB1102D07D1002714F8010BF4
:100A1000102502E0082500E00A250026B0460EE079
:100A200005FB080005FB06F101271FFA80F801EB22
:100A30001046B6F5803F00D3B94614F8010B29469D
:100A400000F0B0F80028EBDABBF1000F05D00FB1D1
:100A5000641E00E05446CBF80040B9F1000F06D008
:100A6000FFF7E0FE02210160C81EBDE8F09F48EAE2
:100A70000640FAE72DE9F047814616468AB0354828
:100A800078440DC88DE80D0032487844801C03ACD2
:100A90000DC884E80D0041F69B300844372190FBD7
:100AA000F1F290FBF1F5A5F1800501FB12041B3C6E
:100AB00002D56442012000E00020DFF898A08046C3
:100AC0000027FA44AAF1BE0A0EE0E0070AD0324637
:100AD000684607EB470101230AEB810100F0AAFFFA
:100AE0008DE8070064107F1C002CEED1194F7F4465
:100AF000AE3F19E0E80715D007EB04100DF1180A16
:100B000090E80E008AE80E00C068F04201D1981902
:100B100008903246012306A903A800F08BFF03AB1F
:100B200083E807006D10641C002DE3D14FF0010332
:100B300032466946B8F1000F03A802D000F050FF1A
:100B400001E000F077FFC9E90001C9F808200AB008
:100B5000BDE8F0876830050070477546FFF702FF73
:100B6000AE4605006946534620F00700854618B09A
:100B700020B5FFF77DFCBDE820404FF000064FF0A8
:100B800000074FF000084FF0000B21F00701AC46C2
:100B9000ACE8C009ACE8C009ACE8C009ACE8C009E1
:100BA0008D4670473A2800D2303820F02002412A82
:100BB00001D3A2F13700884201D34FF0FF307047D4
:100BC0002DE9FF4F06468BB00878FF2806D0491C58
:100BD0002D2805D000244FF0000908E000200CE08B
:100BE0000124F8E709EB8903491C00EB4309087865
:100BF000FF28F7D114B1C9F1000081461078002513
:100C00002C46AA4629462D2801D02B2804D1521C57
:100C10002D2813D0002082468B461078FF280FD055
:100C20004FF0000C0A21521CA5FB017804FB018146
:100C300005FB0C11C5194BEB0104EEE70120EAE7B7
:100C4000002108464FF00000BAF1000F02D000EB7F
:100C500080004008C0F38157012F01DD4FF0FF37BE
:100C60000E9955EA040009EB01080BD04FF0020978
:100C700018F5FA7F16DA4FEACA70002F706008DDA7
:100C8000012007E04FEACA70C6E900B00FB0BDE826
:100C9000F08F00203060FFF7C5FDC0F800901821EC
:100CA000084616E0B8F5FA7F18DD002F02DAF7489B
:100CB000784401E0F6487844D0E90010C6E9001015
:100CC00040EACA707060FFF7ADFDC0F800901421D3
:100CD00008460FB0BDE8F04F41F0DFBC00210846E8
:100CE0004FF00000B8F10001099002DAC7F10002EC
:100CF00000E03A4601DAC8F1000106A8FFF7BAFEA3
:100D000006AB93E8070003AB83E8070044F23E001C
:100D10005BEA04010090584604D144F21E012C46BF
:100D20005D460091210C0904014306D10099240479
:100D300044EA15442D041039009104F07F41014329
:100D400006D10099240244EA15642D020839009165
:100D500004F07041014306D10099240144EA15745E
:100D60002D01091F009104F04041014306D1009973
:100D7000A40044EA9574AD00891E009104F000417E
:100D8000084304D100986D196441401E00904FF053
:100D900001033A466846B8F1000FCDE9014503A9C1
:100DA00002DD00F05CFE01E000F02FFEBAF1000F62
:100DB00004460D4601D084F00044002108464FF05F
:100DC0000000099940F2FF77484010F00C0F07D15E
:100DD00024F00040284303D0C4F30A50B84212D193
:100DE000FFF720FDC0F80090C4F30A50B8420AD1C2
:100DF000A8487844D0E90010C6E9001004F000418A
:100E00000843706042E7C6E900543FE72DE9FF4F11
:100E10001F464FF0000A4FF0FF38454691B0D7E922
:100E20000146CDF83CA0FFF7A9FDC0680168405C11
:100E30001090B96912986D1C8847396A81468847B5
:100E40000028F6D1B9F1FF3F0AD0002E24F4D06477
:100E500011DDB9F12B0F08D0B9F12D0F0BD102E044
:100E6000404615B013E744F48064B96912986D1CCC
:100E70008847761E8146600504A901D52D2000E033
:100E80002B20002E01F1010B0DF130088DF8100020
:100E90003FDDB9F1690F08D0B9F1490F05D0B9F1BB
:100EA0006E0F02D0B9F14E0F1CD13B4601A8009540
:100EB00080E85002DDE912126FF0020041F054FCAC
:100EC000C11CCED10EE0B96912986D1C88478146CD
:100ED0001398761E44F4007405600F98401C002E91
:100EE0000F9016DDB9F1300FEDD0B9F1780F02D0C7
:100EF000B9F1580F0DD10F9801280AD13B46CDE921
:100F00000054DDE91212001F029641F02BFCC11CB7
:100F1000A7D1109989453ED144F0800406E0139989
:100F2000681CAAF1010A44F400740860B9696D1CD8
:100F30001298761E884730288146F0D02BE0109911
:100F4000894505D1200603D4761E44F0800418E0BC
:100F5000484611F053FA08B3761E0DF123018B4574
:100F600044F4007408D2A9F130000BF8010B2006FC
:100F700007D5AAF1010003E0200602D40AF101001E
:100F80008246A00502D51399681C0860B9691298B9
:100F90006D1C88478146002ED1DC53E0002E51DDC8
:100FA000B9F1650F02D0B9F1450F4BD1A00549D574
:100FB000B9696D1C1298761E24F440748847002E7F
:100FC00081460CDD2B2804D0B9F12D0F07D144F454
:100FD0008074B96912986D1C8847761E8146E005B9
:100FE00001D52D2100E02B2108F8011BCDF8008050
:100FF00021E0761E0DF13901884544F400740CD2CD
:10100000A9F1300010F0FF0088F8000002D100992B
:10101000884509D908F1010806E0E00501D51E4818
:1010200001E042F20F708246B96912986D1C884740
:10103000814613980560002E04DD484611F0DEF964
:101040000028D6D1F96912988847FF2053468BF8BB
:10105000000088F8000000200A900B9004AA0CA958
:101060000AA8FFF7ADFDA00502D46FF00100F8E675
:1010700014F0240F12D0E0071CD13868DDE90A1201
:10108000031D3B600068C0E9001213E078330500DF
:101090006A3305002E320500F1D8FFFF0AA9684621
:1010A00011F07EF8E00705D13868009A011D39601B
:1010B000006802602846D4E610B50446AFF300800D
:1010C0002046BDE81040FFF75EB900002DE9FF4F54
:1010D0001F464FF03C0987B04FF00042DDE9141085
:1010E00001F10108DDF858A002EA40500390002009
:1010F00005908346054604460490B969461E089843
:101100008847AAF1010A0290BAF1000F3BDD02986C
:101110002E2815D01021FFF745FD00282EDB4FF0BB
:10112000010B0599014317D0B9F1000F0BDB4A46BB
:10113000C11700F0F5F905430C43A9F1040905E0D6
:10114000012004900BE008B145F001050120059055
:10115000049820B9361D02E0049800B1361FB96921
:10116000089808F101088847BBF1000FAAF1010AAD
:101170000290C9D00999C1F80080C5E7029870288B
:1011800008D0502806D0F96908988847BBF1000FAD
:1011900014D04FE0002002900120BBF1000F04901A
:1011A00009D0B969089808F101088847AAF101092E
:1011B000B9F1000F07DCF969089888476FF0010062
:1011C0000BB0BDE8F08F2B2804D02D280CD14FF0A8
:1011D000FF300490B969089808F101088847A9F11F
:1011E0000109B9F1000FE6DD411CE4D00A21FFF747
:1011F000D9FC0028DFDB029908F1010801EB81012D
:1012000000EB41000290B969089888470A21FFF76E
:10121000C9FC099AA9F10109B9F1000FC2F80080CF
:1012200001DD0028E7DAF9690898884704990298EF
:1012300000FB016655EA040004D004F040410900B7
:1012400002D006E0039898E0A40044EA9574AD004B
:10125000B61E04F00041080002D16D196441761EEB
:10126000159810F0240F03D04FF00B095C4803E0F1
:101270004FF028096FF07D008246564507DAAAEB49
:1012800006018944B9F1410F01DD4FF04109012008
:101290000021A9F1010200F043F9024628400B4663
:1012A0002140084301D0012100E00021501E02919D
:1012B00043F1FF3128402140084301D0012000E0E4
:1012C00000200299834651EA0B014FD000210846C5
:1012D0004FF00000039900F4400039B100EB8000AA
:1012E0004FF4400100EBD07001EA60008015012846
:1012F00002DD4FF0FF3000E013D0401C36D00298E2
:1013000060B3BBF1000F0CD14A460120002100F070
:1013100007F928402140084301D0012000E00020C7
:10132000E0B101204A46002100F0FAF803464019D6
:101330000A4661412D1A8C4111D3B9F1400F09DDE4
:10134000159810F0240F02D0AAF1340603E0AAF198
:10135000170600E0761C00254FF0004406E05B1EF7
:1013600042F1FF3220EA030521EA0204CAF101003A
:10137000B04206DA1B490398084301900020009010
:101380000EE0039AC4F3D321E80A0A43164940EA5F
:1013900044500A433146CDE90002684610F0B4FFDC
:1013A000159810F0240F0BD01598C00715D1386888
:1013B000DDE90012031D3B600068C0E900120CE08B
:1013C00002A8694610F0ECFE1598C00705D13868F0
:1013D000029A011D3960006802604046F0E6000094
:1013E00002FCFFFF0000F07F0000F03F2DE9FF4FFF
:1013F00092461D4685B04FF00041DDE9124BDDE914
:1014000014727F1E01EA4B50414940F0FF4940EA07
:101410000108002122F020004928049102D04E2822
:1014200028D04CE03BA0012607C88DE80700A96939
:101430000698641C88477F1E014606D41DF80600E6
:1014400018B121F0200181420BD0E9690698884744
:10145000032E34D0082E32D06FF0010009B0BDE861
:10146000F08F761C032E01D0082EE0D1601CCAF844
:101470000000DCE7A9690698641C88477F1E2AD40F
:1014800020F02000412826D1A9690698641C8847CD
:101490007F1E20D420F020004E281CD1A969069878
:1014A000641C88477F1E48F4002849F48009CAF864
:1014B000004001D4282806D0E969069888475FEAE9
:1014C000CB7012D022E0A9690698641C88477F1E61
:1014D00001D4002803DAE96906988847BCE729287F
:1014E000F1D1641CCAF80040E9E71BF0240F07D0D3
:1014F00028680499031D2B600068C0E9001805E006
:101500002868021D2A600068C0F800902046A5E700
:101510000000F07F494E46494E49545900000000F2
:10152000B2F120030AD5C2F1200301FA02F120FA38
:1015300003F300FA02F041EA0301704700FA03F1F5
:101540004FF00000704720F07F4C80EA030023F04A
:101550007F47ACEB070303F57C5300F0004003F139
:10156000FF032DE980494FEA154B09B44FEA1443B4
:1015700025EA0B4E24EA03480FF2042606EB132754
:1015800049083E785FEA320203FB0667C7F50007A9
:1015900007FB06F64FEA54374FEAD64606F1020635
:1015A00007FB066CCCF1005C4FEA1C472CEA074CA9
:1015B00007FB06F40CFB06F504EB15464FEA9616FE
:1015C00034BF00204FF000404FEAD13706FB07FC44
:1015D0004FEA1C4C0CFB0BF7D21B03FB0CF761EB27
:1015E00007010CFB0EF7B0EB074072EB17420CFB48
:1015F00008F734BFA2EB0742B2EB074261EB174199
:101600004FEA0C444FEA910706FB07FC4FEA1C4CDB
:101610000CFB0BF7B0EBC74072EB573203FB0CF738
:1016200034BFA2EBC742B2EBC74261EB57310CFBB0
:101630000EF7B0EBC70072EB57720CFB08F734BF24
:10164000A2EBC702B2EBC70261EB5771039F4FEAEF
:10165000816141EA921104EBCC044FEAD1374FEAA1
:10166000826206FB07FC42EA90124FEA80604FEA72
:101670001C4C0CFB0BF7D21B03FB0CF761EB0701B7
:101680000CFB0EF7B0EB074072EB17420CFB08F7B0
:1016900034BFA2EB0742B2EB074261EB17414FEABE
:1016A0008C554FEA910704EB9C2406FB07FC4FEA9C
:1016B0001C4C0CFB0BF7B0EBC74072EB573203FB33
:1016C0000CF734BFA2EBC742B2EBC74261EB573114
:1016D0000CFB0EF7B0EBC70072EB57720CFB08F770
:1016E00034BFA2EBC702B2EBC70261EB577115EB37
:1016F0004C254FEA816141EA92114FEA82624FEA3A
:10170000D13742EA901206FB07FC44F100044FEA8D
:1017100080604FEA1C4C0CFB0BF7D21B03FB0CF751
:1017200061EB07010CFB0EF7B0EB074072EB1742C1
:101730000CFB08F734BFA2EB0742B2EB074261EBA8
:10174000174115EB1C154FEA813141EA92414FEAEE
:10175000823242EA90424FEA80304FEA0C7644F1FE
:10176000000448EA03434EEA0B484FF0000EB2EB88
:10177000080C71EB030724BF624639464EEB0E0E90
:101780004FF0000B0018524149414BEB0B0BB2EBF1
:10179000080C71EB03077BF1000B24BF624639464E
:1017A0004EEB0E0E4FF0000B0018524149414BEB2F
:1017B0000B0BB2EB080C71EB03077BF1000B24BFA2
:1017C000624639464EEB0E0E51EA020718BF46F04C
:1017D000010616EB0E7655F1000254F1000103D517
:1017E000BDE88901BDE80088BDE88901BDE8004881
:1017F000B619524141EB0101A3F10103704780800A
:101800007F7E7D7C7B7A797877767675747372715A
:1018100071706F6E6E6D6C6C6B6A6A696868676612
:1018200066656464636362616160605F5F5E5E5DA4
:101830005D5C5C5B5B5A5A59595858575756565518
:1018400055555454535352525251515050504F4F7A
:101850004F4E4E4D4D4D4C4C4C4B4B4B4A4A4A49CA
:10186000494948484847474747464646454545440D
:1018700044444443434343424242424141410000C5
:1018800046EA0646A3F570534FEA164646EA425624
:101890004FEAD22242EA415210B54FEAD121A3F1D8
:1018A000010300F02FF820F0004000F1020C00F0DE
:1018B000004701EB00501146BCF5006F40EA0700FD
:1018C00000D210BDBAF1000F0AD01CB503B44FF01E
:1018D00004004FF004014FF000000FBCBDE81040C1
:1018E0004FF00001BBF1010FB9BF04484FF0FF31C9
:1018F0000348002140EA070010BD00BFFFFFEF7F53
:101900000000F07F002B9C4630D477002BD01CB514
:101910004FEA370703B44FF010004FF01001BAF14F
:10192000000F06D0BCF1000FDCBF40F0080040F013
:1019300008014FF000000FBCBDE810400BF1010B97
:10194000BBF1010F08BF5FEA170722BF12F10102C6
:1019500011F101014FF0004143F1000300F000409C
:1019600043EA00007047F9D35708D0E746EA064635
:1019700013F1400F4FEA16461FDD13F1200FDFBFB2
:1019800016430A46002120335B42BED0C3F1200734
:1019900046EA064602FA07F74FEA164646EA0706FF
:1019A000C3F1200722FA03F201FA07F721FA03F143
:1019B0004FF0000342EA0702A7E746EA020646EABA
:1019C00006464FEA164646EA0106BCBF46EA064608
:1019D000360C4FF000034FF000024FF0000194E787
:1019E0002DE9804C9A46934670B491E8380007C8B8
:1019F00031EA400C48BF34EA430C03D5FFF7A3FD9E
:101A0000FFF780FFF0BCBDE8008C2DE9804C9A46C2
:101A1000934670B491E8380007C831EA400C48BFDB
:101A200034EA430C03D5FFF78EFDFFF729FFF0BC26
:101A3000BDE8008C2DE9804C9A46934670B491E83D
:101A4000380007C810F0804F08BF13F0804F03D153
:101A500000F01AF8FFF756FFF0BCBDE8008C2DE946
:101A6000804C9A46934670B491E8380007C810F04D
:101A7000804F08BF13F0804F03D100F005F8FFF747
:101A8000FFFEF0BCBDE8008C20F07F4780EA030039
:101A900023F07F4C07EB0C03A3F57C5300F00040D0
:101AA000A3F1FE0392F0000F00F0B38095F0000F59
:101AB00000F077802DE901494FEA11404FEA1446C2
:101AC00021EA004800FB06FC24EA064708FB06F66C
:101AD00007FB08F800FB07F718EB06484CEB164C21
:101AE0004FEA124B18EB07484FEA15464CEB1740EC
:101AF00022EA0B4E0BFB06FC25EA06470EFB06F618
:101B000007FB0EFE0BFB07F71EEB064E4CEB164CCD
:101B10004FF000061EEB074E4CEB174B18EB0B0873
:101B200040F1000018EB0E0B58EB000840F10000EC
:101B30008F1A4FF000013CBFC943661B14BFB5EBC1
:101B4000040C00213CBFC943F61B4FEA17444EEA80
:101B50008E0E27EA04454FEA1C4704FB07622CEA75
:101B6000074C05FB07F70CFB05F604FB0CFC16EB1A
:101B7000074642EB174216EB0C4642EB1C421BEBAE
:101B8000060658EB0202414146EA9E0601D5BDE831
:101B90000189B619524141EB0101A3F10103BDE8EE
:101BA00001894FEA14454FEA114724EA054621EA24
:101BB000074C05FB07F406FB07F70CFB06F105FBDA
:101BC0000CFC11EB074144EB17444FEA124711EBB1
:101BD0000C4144EB1C4422EA074C05FB07F206FBD0
:101BE00007F70CFB06F605FB0CFC16EB074642EB71
:101BF000174216EB0C4642EB1C456A1854F10001E3
:101C000048BF7047B619524141EB0101A3F10103EE
:101C1000704795F0000F37D04FEA11424FEA144752
:101C200021EA024624EA074C02FB07F106FB07F70C
:101C30000CFB06F402FB0CFC14EB074441EB1741D0
:101C40004FEA154714EB0C4441EB1C4125EA074CC5
:101C500002FB07F506FB07F70CFB06F602FB0CFC84
:101C600016EB074645EB174516EB0C4645EB1C42B9
:101C7000121951F1000148BF7047B619524141EBAA
:101C80000101A3F1010370474FEA14454FEA1147E0
:101C900024EA054621EA074C05FB07F106FB07F796
:101CA0000CFB06F24FF0000605FB0CFC12EB0742A2
:101CB00041EB174112EB0C4251EB1C4148BF7047FE
:101CC000921841EB0101A3F10103704710B50446DE
:101CD0004FF4807221460248FEF7E8FC10BD000078
:101CE00068110124024908780021014A11707047E7
:101CF000B003002410B5174804781748006838B1BD
:101D000003F04EF814490968401AB0F5967F00D9DF
:101D10005324622C14D008DC422C10D0462C0BD05B
:101D20004C2C0FD0522C13D10FE0662C05D06C2C0C
:101D300009D0722C0CD109E000BF012010BD00BFFA
:101D40000220FBE700BF0320F8E700BF0420F5E70F
:101D50000020F3E7A8030024AC0300245320044927
:101D600008700020034908600349087070470000AC
:101D7000A8030024AC030024B003002400BFFEE746
:101D80000346042B15D007DC7BB1012B0ED0022BB0
:101D90000DD0032B12D10BE0202B0BD0212B0AD01E
:101DA000222B09D0232B09D107E008E007E006E049
:101DB00005E004E003E002E001E000E000BF00BF56
:101DC000002070470020704710B5002204490548E4
:101DD0000CF0E3FF044903480CF0D0FF002010BDD5
:101DE0007424012498190124741C012470B504463C
:101DF0000D460749286808600120064908702146F9
:101E000005480CF0BBFF04480CF084FF002070BDB7
:101E1000B8030024B40300249819012410B5034624
:101E20000C460021084610BD00B52DED108B89B081
:101E3000B0EE409BB0EE41ABB0EE42BBB0EE43CB58
:101E40003CEE4A0B9FED361B20EE010B9FED361B3F
:101E500080EE012BB0EE42DB9FED310B29EE000B43
:101E60009FED311B80EE012B8DED062B9FED2C0B92
:101E70002BEE000B9FED2C1B80EE012B8DED042B28
:101E8000B0EE4D0B0FF070FDB0EE40EB9DED040B8E
:101E90000FF0F2FB2EEE000B8DED020B9DED060B0D
:101EA0000FF0EAFBB0EE40EB9DED040B0FF05CFD94
:101EB0002EEE00EB9DED060B0FF056FDB0EE40FB55
:101EC0009DED040B0FF0D8FB2FEE00FBB0EE4D0B99
:101ED0000FF0D2FB0FEE40EB8DED00EB9DED001B04
:101EE0009DED020B0FF0C8FA9FED0F1B20EE010BCA
:101EF0009FED0B1B80EE012BB0EE428BB5EEC08B3D
:101F0000F1EE10FA05D29FED0A0B38EE000BB0EEA1
:101F1000408BB7EEC80B09B0BDEC108B00BD0000C4
:101F200000000060FB2109400000000000806640C6
:101F3000000000000080764010B52DED0E8BB0EE55
:101F4000408BB0EE419BB0EE42ABB0EE43BB3AEEFD
:101F5000480B9FED151B20EE010BB0EE40DB9FED13
:101F6000140B28EE000B9FED141B80EE012BB0EE3E
:101F700042EBB0EE4E0B0FF07FFB3BEE491B9FEDAB
:101F80000A2B21EE021B20EE010BB0EE40CB2DEE12
:101F90000D1B0CEE0C1BB0EE410B0FF007FEB7EE65
:101FA000C00BBDEC0E8B10BD00000000802DFB406F
:101FB00000000060FB210940000000000080664036
:101FC00070B505460C4605B970BD14B1012C00D0A2
:101FD000FAE7284609F09CFD284614F069FA85F8CE
:101FE000104114B9284614F057FA00BFECE700007E
:101FF00010B5024801F0DAFA10BD0000AC07002469
:1020000010B5024801F0D2FA10BD000024080024E7
:1020100010B5024801F0CAFA10BD00009C08002467
:102020000146374A0868904249D0354A1832086854
:10203000904244D0324A3032086890423FD0304A11
:102040004832086890423AD02D4A6032086890427F
:1020500035D02B4A78320868904230D0284A9032E6
:10206000086890422BD0264AA8320868904226D0B1
:10207000244A0868904222D0224A183208689042C6
:102080001DD0204A30320868904218D01D4A48328C
:102090000868904213D01B4A6032086890420ED004
:1020A000184A78320868904209D0164A9032086877
:1020B000904204D0134AA8320868904201D101200E
:1020C00000E00020B0B10A78103A1823B2FBF3F018
:1020D00000F007020C4B9A5CCA65032805D90A6810
:1020E0006FF30902121D8A6503E00A686FF30902A3
:1020F0008A6503E0086820F0FF008865886D7047F6
:102100001000024010040240C8E1040810B5026843
:102110002B4C0368A34222D0294C14340368A342F9
:102120001DD0274C28340368A34218D0244C3C34DB
:102130000368A34213D0224C50340368A3420ED04C
:102140001F4C64340368A34209D01D4C78340368E3
:10215000A34204D01A4C8C340368A34201D101235A
:1021600000E000238BB10378083B1424B3FBF4F1A7
:10217000144B03EB81030366124B8033436601F07B
:102180001F040123A340836618E00378103B182442
:10219000B3FBF4F10C4B9A4204D80B4BA83B9A4288
:1021A00000D30831094B03EB81030366074B8033EF
:1021B000436601F01F040123A340836610BD0000A5
:1021C0000854025800580258B8040240000802405F
:1021D0000179A9B3082940D8204B02689A4222D03D
:1021E0001E4B143302689A421DD01C4B28330268E0
:1021F0009A4218D0194B3C3302689A4213D0174BBD
:10220000503302689A420ED0144B643302689A42EB
:1022100009D0124B783302689A4204D00F4B8C33AA
:1022200002689A4201D1012200E000224AB14A1E0E
:102230000B4B03EB8202C266094A4032026708E098
:102240000BE04A1E074B03EB8202C266054A40328E
:1022500002674A1E0123934043677047085402589F
:102260000059025800090240014600208A69D2B98B
:102270008A6A32B1012A0DD0022A03D0032A10D172
:102280000EE000BFCA6A02F08072B2F1807F00D116
:10229000012007E0CA6AB2F1C07F00D1012001E04D
:1022A00000E000BF36E08A69B2F5005F1BD18A6AA0
:1022B00032B1012A07D0022A03D0032A11D10AE041
:1022C00000BF01200EE0CA6A02F08072B2F1807F86
:1022D00000D1012006E0CA6AB2F1C07F00D101201E
:1022E00000E000BF16E08A6A32B1012A05D0022A56
:1022F00004D0032A0CD103E000BF00BF012008E096
:10230000CA6A02F08072B2F1807F00D1012000E041
:1023100000BF00BF70470000F0B5856D846D984F19
:102320000668BE4270D0964F18370668BE426BD022
:10233000934F30370668BE4266D0914F48370668E3
:10234000BE4261D08E4F60370668BE425CD08C4F73
:1023500078370668BE4257D0894F90370668BE422C
:1023600052D0874FA8370668BE424DD0854F0668C9
:10237000BE4249D0834F18370668BE4244D0814FD1
:1023800030370668BE423FD07E4F48370668BE42AF
:102390003AD07C4F60370668BE4235D0794F7837E7
:1023A0000668BE4230D0774F90370668BE422BD0C9
:1023B000744FA8370668BE4226D0734F0668BE42E7
:1023C00022D0714F14370668BE421DD06E4F283799
:1023D0000668BE4218D06C4F3C370668BE4213D028
:1023E000694F50370668BE420ED0674F64370668A3
:1023F000BE4209D0644F78370668BE4204D0624FAF
:102400008C370668BE4201D1012600E000263EB1AD
:10241000D0E919767E60C66E16B1D0E91C767E6072
:10242000574F0668BE4249D0554F18370668BE421E
:1024300044D0534F30370668BE423FD0504F4837E4
:102440000668BE423AD04E4F60370668BE4235D06D
:102450004B4F78370668BE4230D0494F90370668F8
:10246000BE422BD0464FA8370668BE4226D0454F05
:102470000668BE4222D0434F18370668BE421DD0C0
:10248000404F30370668BE4218D03E4F4837066886
:10249000BE4213D03B4F60370668BE420ED0394F64
:1024A00078370668BE4209D0364F90370668BE427C
:1024B00004D0344FA8370668BE4201D1012600E09F
:1024C0000026DEB190F85C6006F01F073F26BE4094
:1024D000AE600668366826F4802607683E600668A7
:1024E00073608668402E04D10668B2600668F160A9
:1024F00044E00668B1600668F2603FE0224F06687B
:10250000BE4222D0204F14370668BE421DD01E4F57
:1025100028370668BE4218D01B4F3C370668BE42BB
:1025200013D0194F50370668BE420ED0164F64378D
:102530000668BE4209D0144F78370668BE4204D000
:10254000114F8C370668BE4201D1012600E00026FB
:10255000A6B190F85C6006F01F070126BE406660D9
:10256000066873608668402E04D10668B26006680B
:10257000F16003E00668B1600668F260F0BD00003B
:1025800010000240100402400854025810B50446DE
:102590002078242800D010BDE078472808D1207981
:1025A000472805D16079412802D1E01D00F026F9C5
:1025B000E078542808D12079482805D1607953283B
:1025C00002D1E01D00F0F4F9E078482808D1207924
:1025D000502805D16079522802D1E01D00F08AF917
:1025E00000BFD8E77047000010B500210F4806F083
:1025F000F1FD04210D4806F0EDFD00210C4806F028
:10260000E9FD04210A4806F0E5FD0021094806F02D
:10261000E1FD0421074806F0DDFD0021064806F033
:10262000D9FD0421044806F0D5FD10BD080500249D
:1026300054050024A0050024EC050024014651B9EE
:102640001A480068406A02B20020184B1B685862A2
:10265000504200B2704701290AD115480068406A0B
:1026600002B20020124B1B685862504200B2F1E7E0
:1026700002290AD10F480068406A02B200200D4BBF
:102680001B685862504200B2E4E703290AD10A48A5
:102690000068406A02B20020074B1B685862504233
:1026A00000B2D7E700BF0020D4E7000008050024EF
:1026B00054050024A0050024EC05002472B600BFD8
:1026C000FEE702460868B0B9D1E901031843CB68B8
:1026D00018430B6918434B6918438B691843CB693E
:1026E00018430B6A18434B6A184313686FF30E03C1
:1026F0001843106019E0D1E9070318434B6A1843E7
:10270000136823F4F84318431060D1E90103184318
:10271000CB6818430B6918434B6918438B691843FE
:1027200053686FF30E031843506000207047024651
:10273000506943F6FE73984340EA4100506100201F
:10274000704710B50346D1E9000420438C68641E2D
:1027500040EA4410CC6840EA44201C696FF3150439
:1027600020431861002010BD30B50346FAB908684F
:10277000401E4C68641E40EA04148868401E44EA07
:102780000024C868401E44EA0034088A401E44EA17
:102790000044888A401E44EA0054087E401E44EAF1
:1027A00000609C6804F070442043986022E0C86890
:1027B000401E0403888A401E44EA00509C680E4D67
:1027C0002C40204398600868401E4C68641E40EA14
:1027D00004148868401E44EA0024088A401E44EA23
:1027E0000044087E401E44EA0060DC6804F0704447
:1027F0002043D860002030BDFF0F0FFF30B591B0EF
:102800000446002515E001A840F8254004E014F82E
:10281000011B09B911B030BD20780D2D01D12A213D
:1028200000E02C218842F2D1002004F8010B681C42
:10283000C5B20E2DE7DB01A840F8254001980EF047
:10284000FFFE2B4880ED000B02980EF0F9FE2848A1
:1028500080ED020B039800782549087404980EF067
:10286000EFFE234880ED060B05980078204981F89B
:10287000200006980078303881F821000798FDF78D
:1028800080FE1B4981F8220008980EF0D9FEB7EEB1
:10289000C00B174880ED090A09980EF0D1FEB7EE7B
:1028A000C00B134880ED0A0A2C300A99FDF776FE1A
:1028B0000B980EF0C5FEB7EEC00B0D4880ED0D0A6B
:1028C00038300C99FDF76AFE0D980EF0B9FEB7EEA0
:1028D000C00B074880ED100A44300E99FDF75EFEEC
:1028E00003484C300F99FDF759FE00BF92E70000F6
:1028F0000011012430B591B00446002515E001A86F
:1029000040F8254004E014F8011B09B911B030BDAE
:102910002078072D01D12A2100E02C218842F2D114
:10292000002004F8010B681CC5B2082DE7DB01A8E4
:1029300040F8254001980EF083FE1C4880ED000B06
:1029400002980EF07DFEB7EEC00B184880ED020A2B
:1029500003980EF075FEB7EEC00B144880ED030A25
:1029600004980EF06DFEB7EEC00B104880ED040A1F
:102970000598007830380D4908750698FDF701FE76
:102980000A49487507980EF05BFEB7EEC00B074882
:1029900080ED060A1C300899FDF700FE034824303C
:1029A0000999FDF7FBFD00BFB0E7000068120124A4
:1029B00030B589B00446002515E001A840F825404F
:1029C00004E014F8011B09B909B030BD2078012DCD
:1029D00001D12A2100E02C218842F2D1002004F804
:1029E000010B681CC5B2022DE7DB01A840F82540A9
:1029F00001980EF025FEB7EEC00B094880ED000AE5
:102A000002980EF01DFEBCEEC00B10EE100A044939
:102A100008710348401D0399FDF7C0FD00BFD3E7CF
:102A20005811012410B5012438E04FF4FA7038F041
:102A30004DFD2046611CCCB20C282ED2DFE800F000
:102A40002D06070B0F13171B1F23272B25E017A09D
:102A500000F0B4F821E017A000F0B0F81DE01AA0D3
:102A600000F0ACF819E01EA000F0A8F815E01FA0D7
:102A700000F0A4F811E020A000F0A0F80DE021A0E3
:102A800000F09CF809E022A000F098F805E00EA004
:102A900000F094F801E0002400BF00BF002CC4D176
:102AA0004FF4FA7038F012FD10BD0000756E6C6FB7
:102AB000670D0A006D6F646520626173652074693B
:102AC0006D652036300D0A006D6F646520726F767B
:102AD0006572206175746F6D6F746976650D0A009B
:102AE000677067676120310D0A00000067707468C5
:102AF0007320310D0A000000616772696362203142
:102B00000D0A0000677068707220310D0A00000025
:102B100073617665636F6E6669670D0A0000000079
:102B20002DE9F04105460E460EB9BDE8F0810024BE
:102B300000271DE0285DAA2818D1601C285C4428C5
:102B400014D1A01C285CB52810D1301BB0F5007F33
:102B500002DD4FF4007000E0301B024629191648D0
:102B6000FDF75FFD1448FFF7B1F804E0601C84B284
:102B7000B01EA042DEDC00BF002418E0285D24283F
:102B800000D12F19002C10DD601E285C0D280CD1FF
:102B9000285D0A2809D147B10021601E2954002070
:102BA00028553846FFF7F2FC0027601C84B2B44277
:102BB000E4DB00BFB9E700009812012470B50446B9
:102BC0002046FDF70FFD85B2C8232A46214602485C
:102BD00007F02FFC70BD0000180700242DE9F0411C
:102BE00007460D4616464FF001080AF07FFB3846AF
:102BF00000F068F8E0B90AF079FBBB200AF0E8FBC6
:102C0000012815D100240DE0681EA04204D1002047
:102C10000AF03EFB305503E001200AF039FB305545
:102C2000601CC4B2AC42EFDB0AF082FB4FF000083C
:102C30000AF07EFB4046BDE8F081000010B50AF0C6
:102C400011FC00224FF40061114802F09DF80122AE
:102C500091020F4802F098F842F210700AF066FAFA
:102C600000224FF480610A4802F08EF809480AF009
:102C70005DFA01229102064802F086F806480AF041
:102C800055FA0AF0D9FB44F620600AF04FFA10BD5D
:102C900000200258F04902003057050070B5064682
:102CA0000C460AF023FB304600F00CF828B9204609
:102CB0000AF08EFB012800D001250AF039FB00251F
:102CC000284670BD70B504460AF010FBBA200AF021
:102CD0007FFB01280AD120120AF07AFB012805D1D6
:102CE000E0B20AF075FB012800D001250025284636
:102CF00070BD000000487047001101240048704773
:102D00006812012470B50A480468001D0568001D9A
:102D10000668344454B108220649204607F0CDFD28
:102D2000042204491031284607F0C7FD70BD000099
:102D300000E8F11F160400242DE9F041044602F0DA
:102D40002FF8804614B90120BDE8F08194F83500D1
:102D5000022808D08020606500BF002084F834007D
:102D600000BF0120F0E7FE492068884249D0FC49B5
:102D700018312068884244D0F949303120688842AF
:102D80003FD0F7494831206888423AD0F449603151
:102D90002068884235D0F24978312068884230D0A6
:102DA000EF499031206888422BD0ED49A831206846
:102DB000884226D0EB492068884222D0E949183160
:102DC000206888421DD0E74930312068884218D0F9
:102DD000E44948312068884213D0E24960312068D4
:102DE00088420ED0DF4978312068884209D0DD4919
:102DF00090312068884204D0DA49A831206888429E
:102E000001D1012000E0002068B12068006820F0B6
:102E10001E00216808602068406920F08000216859
:102E20004861256806E02068006820F00E002168EF
:102E300008602568CA492068884270D0C84918319E
:102E4000206888426BD0C64930312068884266D0FD
:102E5000C34948312068884261D0C1496031206847
:102E600088425CD0BE4978312068884257D0BC493E
:102E700090312068884252D0B949A83120688842F0
:102E80004DD0B8492068884249D0B64918312068E9
:102E9000884244D0B3493031206888423FD0B1499C
:102EA0004831206888423AD0AE4960312068884273
:102EB00035D0AC4978312068884230D0A94990316A
:102EC000206888422BD0A749A8312068884226D0A4
:102ED000A5492068884222D0A3491431206888423D
:102EE0001DD0A14928312068884218D09E493C3124
:102EF0002068884213D09C495031206888420ED007
:102F0000994964312068884209D09749783120680E
:102F1000884204D094498C312068884201D1012034
:102F200000E0002028B1206E006820F48070216E3F
:102F300008608B492068884249D089491831206847
:102F4000884244D086493031206888423FD0844945
:102F50004831206888423AD08149603120688842EF
:102F600035D07F4978312068884230D07C49903113
:102F7000206888422BD07A49A8312068884226D020
:102F800078492068884222D07649183120688842E2
:102F90001DD0744930312068884218D071494831B9
:102FA0002068884213D06F496031206888420ED073
:102FB0006C4978312068884209D06A49903120688C
:102FC000884204D06749A8312068884206D1206829
:102FD000006820F001002168086005E020680068B2
:102FE00020F001002168086011E001F0D9FEA0EB9B
:102FF000080005280BD920206065032084F83500DF
:1030000000BF002084F8340000BF01209CE628683F
:1030100000F001000028E8D151492068884249D0D9
:103020004F4918312068884244D04D4930312068DA
:1030300088423FD04A494831206888423AD04849BE
:1030400060312068884235D045497831206888420F
:1030500030D043499031206888422BD04049A83174
:103060002068884226D03F492068884222D03D49C6
:103070001831206888421DD03A4930312068884292
:1030800018D0384948312068884213D0354960311A
:10309000206888420ED0334978312068884209D0B0
:1030A000304990312068884204D02E49A8312068E8
:1030B000884201D1012000E0002040B1A66D94F8C3
:1030C0005C0000F01F013F208840B06007E0A76D62
:1030D00094F85C0000F01F010120884078602049CE
:1030E0002068884276D01E4918312068884271D005
:1030F0001B493031206888426CD01949483120681A
:10310000884267D0164960312068884262D01449ED
:103110007831206888425DD011499031206888421A
:1031200058D00F49A8312068884253D00D492068F3
:1031300088424FD00B491831206888424AD009494B
:1031400030312068884245D006494831206888429D
:1031500040D004496031206888423BD0014905E0F5
:1031600010000240100402400854025878312068D0
:1031700088422FD02549206888422BD02349183116
:103180002068884226D022492068884222D02049DF
:103190001431206888421DD01D492831206888429A
:1031A00018D01B493C312068884213D0184950314F
:1031B000206888420ED0164964312068884209D0C0
:1031C000134978312068884204D011498C31206835
:1031D000884201D1012000E0002068B1D4E9191033
:1031E0004860E06E40B1E06E006820F48070E16EEF
:1031F0000860D4E91C104860012084F8350000BF45
:10320000002084F8340000BF00BF9DE5A004024008
:103210000854025870B504460CB9012070BD94F8EA
:103220003500022803D0802060650120F6E7DC49E4
:103230002068884249D0DA4918312068884244D051
:10324000D7493031206888423FD0D549483120687D
:1032500088423AD0D24960312068884235D0D0497E
:1032600078312068884230D0CD499031206888423A
:103270002BD0CB49A8312068884226D0C949206884
:10328000884222D0C7491831206888421DD0C549DC
:1032900030312068884218D0C249483120688842BD
:1032A00013D0C0496031206888420ED0BD497831C2
:1032B0002068884209D0BB4990312068884204D0F8
:1032C000B849A8312068884201D1012000E00020DF
:1032D000F0B3042084F83500B149206888424BD00F
:1032E000AF4918312068884246D0AD493031206856
:1032F000884241D0AA494831206888423CD0A84938
:1033000060312068884237D0A549783120688842EA
:1033100032D0A3499031206888422DD0A049A831ED
:103320002068884228D09F492068884224D09D493F
:103330001831206888421FD09A493031206888426D
:103340001AD0984948312068884215D0954900E044
:1033500020E06031206888420ED0924978312068A0
:10336000884209D08F4990312068884204D08D4925
:10337000A8312068884206D12068006820F001004A
:103380002168086009E12068006820F001002168D8
:10339000086002E12068006820F00E0021680860E3
:1033A0007F492068884249D07D4918312068884289
:1033B00044D07B493031206888423FD07849483139
:1033C000206888423AD0764960312068884235D0FA
:1033D000734978312068884230D071499031206833
:1033E00088422BD06E49A8312068884226D06D498A
:1033F0002068884222D06B491831206888421DD04D
:10340000684930312068884218D0664948312068C0
:10341000884213D063496031206888420ED06149E8
:1034200078312068884209D05E499031206888420E
:1034300004D05C49A8312068884206D12068006821
:1034400020F001002168086005E02068006820F095
:1034500001002168086052492068884270D05049B4
:103460001831206888426BD04D493031206888423D
:1034700066D04B4948312068884261D04849603164
:10348000206888425CD0464978312068884257D00D
:10349000434990312068884252D04149A831206880
:1034A00088424DD03F492068884249D03D49183173
:1034B0002068884244D03B493031206888423FD060
:1034C00038494831206888423AD03649603120680E
:1034D000884235D0334978312068884230D031492C
:1034E0009031206888422BD02E49A831206888422C
:1034F00026D02D492068884222D02B4914312068DB
:1035000088421DD0284928312068884218D0264991
:103510003C312068884213D02349503120688842CA
:103520000ED0214964312068884209D01E49783183
:103530002068884204D01C498C312068884201D11F
:10354000012000E00020D8B1206E006820F48070D7
:10355000216E0860A56D94F85C0000F01F01012049
:1035600088406860D4E919104860E06E40B1E06EB0
:10357000006820F48070E16E0860D4E91C10486097
:10358000012084F8350000BF002084F8340000BF1B
:10359000206D10B12046216D884700203EE60000D6
:1035A0001000024010040240085402582DE9F84F60
:1035B000044600200090FE4800684FF41651B0FB0E
:1035C000F1FAA66DD4F858803768D8F80090F94918
:1035D0002068884249D0F74918312068884244D091
:1035E000F4493031206888423FD0F24948312068A0
:1035F00088423AD0EF4960312068884235D0ED49A1
:1036000078312068884230D0EA4990312068884279
:103610002BD0E849A8312068884226D0E6492068A6
:10362000884222D0E4491831206888421DD0E249FE
:1036300030312068884218D0DF49483120688842FC
:1036400013D0DD496031206888420ED0DA497831E4
:103650002068884209D0D84990312068884204D037
:10366000D549A8312068884201D1012000E000201E
:1036700000287DD094F85C0000F01F0108208840ED
:103680003840002868D0CB492068884249D0C949D1
:1036900018312068884244D0C649303120688842B9
:1036A0003FD0C4494831206888423AD0C14960318E
:1036B0002068884235D0BF4978312068884230D0B0
:1036C000BC499031206888422BD0BA49A831206883
:1036D000884226D0B8492068884222D0B64918319D
:1036E000206888421DD0B44930312068884218D003
:1036F000B14948312068884213D0AF496031206811
:1037000088420ED0AC4978312068884209D0AA4955
:1037100090312068884204D0A749A83120688842A7
:1037200004D12068006800F0040003E0206800680D
:1037300000F0080080B12068006820F004002168D3
:10374000086094F85C0000F01F0108208840B06019
:10375000606D40F00100606594F85C0000F01F01AE
:10376000012088403840E8B392492068884200E050
:10377000B7E24BD08F4918312068884246D08D4936
:1037800030312068884241D08A49483120688842D7
:103790003CD0884960312068884237D085497831EB
:1037A0002068884232D083499031206888422DD0E9
:1037B0008049A8312068884228D07F492068884203
:1037C00024D07D491831206888421FD07A49303191
:1037D000206888421AD0784948312068884215D03C
:1037E000754900E026E06031206888420ED07249B9
:1037F00078312068884209D06F499031206888422A
:1038000004D06D49A8312068884204D120684069FD
:1038100000F0800002E020680068002050B194F8B9
:103820005C0000F01F0101208840B060606D40F036
:103830000200606594F85C0000F01F0104208840DD
:103840003840E8B35B49206888424BD05949183169
:103850002068884246D0574930312068884241D09C
:1038600054494831206888423CD052496031206830
:10387000884237D04F4978312068884232D04D494C
:103880009031206888422DD04A49A831206888426A
:1038900028D049492068884224D0474918312068F7
:1038A00088421FD044493031206888421AD04249AA
:1038B00048312068884215D03F496031206800E0D7
:1038C00024E088420ED03C4978312068884209D0F3
:1038D000394990312068884204D03749A83120689E
:1038E000884204D12068006800F0020002E02068ED
:1038F0000068002050B194F85C0000F01F01042023
:103900008840B060606D40F00400606594F85C0031
:1039100000F01F01102088403840E8B32549206896
:10392000884251D023491831206888424CD021491F
:1039300030312068884247D01E494831206888428B
:1039400042D01C496031206888423DD01949783105
:103950002068884238D0174990312068884233D097
:103960001449A831206888422ED013492068884223
:103970002AD0114918312068884225D00E493031AB
:103980002068884220D00C494831206888421BD0EA
:1039900009496031206800E04DE0884214D00649B2
:1039A0007831206888420FD003499031206805E0C3
:1039B000980000241000024010040240884203D006
:1039C000FE492068884204D12068006800F00800A1
:1039D00003E02068006800F0040060B394F85C0025
:1039E00000F01F0110208840B0602068006800F4DB
:1039F000802080B12068006800F4002028B9206C85
:103A0000C8B12046216C884715E0A06C98B12046CB
:103A1000A16C88470FE02068006800F4807028B926
:103A20002068006820F0080021680860206C10B150
:103A30002046216C884794F85C0000F01F0120208C
:103A40008840384000287DD0DD492068884249D030
:103A5000DB4918312068884244D0D9493031206888
:103A600088423FD0D6494831206888423AD0D4496C
:103A700060312068884235D0D14978312068884249
:103A800030D0CF499031206888422BD0CC49A83122
:103A90002068884226D0C949A8392068884221D0A8
:103AA000C6499039206888421CD0C44978392068BA
:103AB000884217D0C14960392068884212D0BF4976
:103AC0004839206888420DD0BC4930392068884286
:103AD00008D0BA4918392068884203D0B74920680D
:103AE000884204D12068006800F0100003E02068DC
:103AF000006800F0020028B394F85C0000F01F0199
:103B000020208840B06094F8350004282DD120682A
:103B1000006820F01600216808602068406920F0E5
:103B2000800021684861206C08B9A06C28B1206829
:103B3000006820F008002168086094F85C0000F03C
:103B40001F0100E03FE03F208840B060012084F882
:103B5000350000BF002084F8340000BF206D10B194
:103B60002046216D8847BDE8F88F2068006800F482
:103B7000802080B12068006800F4002028B9606CC3
:103B800008B32046616C88471DE0E06BD8B1204641
:103B9000E16B884717E02068006800F4807068B91E
:103BA0002068006820F0100021680860012084F877
:103BB000350000BF002084F8340000BFE06B10B176
:103BC0002046E16B8847606D00287AD0606D00F078
:103BD0000100E8B3042084F8350079492068884260
:103BE0004BD0774918312068884246D0744930312B
:103BF0002068884241D072494831206888423CD0D0
:103C00006F4960312068884237D06D49783120682B
:103C1000884232D06A499031206888422DD0684964
:103C2000A8312068884228D06449A8392068884291
:103C300023D062499039206888421ED05F49783984
:103C40002068884219D05D4960392068884200E0C8
:103C500040E012D059494839206888420DD0574970
:103C600030392068884208D0544918392068884281
:103C700003D052492068884206D12068006820F0AD
:103C800001002168086005E02068006820F001005C
:103C90002168086000BF0098401C0090504500D982
:103CA00005E02068006800F001000028F3D100BFA3
:103CB0002068006800F0010020B1032084F835007E
:103CC00003E00DE0012084F8350000BF002084F8F7
:103CD000340000BFE06C002802D02046E16C884729
:103CE000D9E138492068884222D036491431206809
:103CF00088421DD0334928312068884218D0314984
:103D00003C312068884213D02E49503120688842C7
:103D10000ED02C4964312068884209D02949783175
:103D20002068884204D027498C312068884201D11C
:103D3000012000E000200028D2D02068056894F817
:103D40005C0000F01F010420884000EA0900D8B39D
:103D500005F00400C0B394F85C0000F01F010420DB
:103D60008840C8F8040005F4004080B105F48030B4
:103D700030B9A06C0028B3D02046A16C88478AE1F6
:103D8000206C0028ACD02046216C884783E105F0E8
:103D90002000E8BB0A492068884253D008491831FE
:103DA000206888424ED0064930312068884249D088
:103DB000034948312068884244D006E0B8040240F4
:103DC00010000240085402584FE0B44960312068A6
:103DD000884237D0B14978312068884232D0AF4923
:103DE0009031206888422DD0AC49A83120688842A3
:103DF00028D0AB492068884224D0A94918312068CE
:103E000088421FD0A6493031206888421AD000E08D
:103E100025E0A34948312068884213D0A049603189
:103E2000206888420ED09E4978312068884209D0A7
:103E30009B4990312068884204D09949A831206874
:103E4000884206D12068006820F0080021680860D8
:103E500005E02068006820F0040021680860206CFC
:103E600010B32046216C884715E194F85C0000F0FF
:103E70001F010220884000EA0900E8B305F00200B3
:103E8000D0B394F85C0000F01F0102208840C8F80D
:103E9000040005F4004070B105F4803028B9606C6E
:103EA00010B12046616C8847F5E0E06BF0B3204626
:103EB000E16B8847EFE005F02000C0BB7749206840
:103EC00088424ED0754918312068884249D07349DC
:103ED00030312068884244D0704948312068884297
:103EE0003FD06E496031206888423AD06B497831C2
:103EF0002068884235D000E04EE068499031206863
:103F000088422ED06549A8312068884229D064496A
:103F10002068884225D0624918312068884220D024
:103F20005F493031206888421BD001E06EE02DE00F
:103F30005B4948312068884213D059496031206874
:103F400088420ED0564978312068884209D05449B9
:103F500090312068884204D05149A83120688842B5
:103F600006D12068006820F014002168086005E090
:103F70002068006820F00A0021680860012084F8A9
:103F8000350000BF002084F8340000BFE06BE8B3C8
:103F90002046E16B88477EE094F85C0000F01F014A
:103FA0000820884000EA090080B305F0080068B3E3
:103FB0003A49206888424BD03849183120688842F5
:103FC00046D0364930312068884241D033494831A3
:103FD000206888423CD0314960312068884237D01F
:103FE0002E4978312068884232D02C49903120689F
:103FF00088422DD02949A8312068884228D02849F4
:104000002068884224D02649183100E043E0206827
:1040100088421DD0224930312068884218D020497A
:1040200048312068884213D01D4960312068884299
:104030000ED01B4978312068884209D01849903148
:104040002068884204D01649A8312068884206D1E9
:104050002068006820F01C002168086005E02068E6
:10406000006820F00E002168086094F85C0000F001
:104070001F0101208840C8F804000120606584F811
:10408000350000BF002084F8340000BFE06C10B1A0
:104090002046E16C884700BF65E500001000024043
:1040A000100402402DE9F041044600F079FE8046FC
:1040B00014B90120BDE8F081FE492068884249D04A
:1040C000FC4918312068884244D0FA4930312068D0
:1040D00088423FD0F7494831206888423AD0F549B4
:1040E00060312068884235D0F249783120688842B2
:1040F00030D0F0499031206888422BD0ED49A8316A
:104100002068884226D0EC492068884222D0EA49BB
:104110001831206888421DD0E74930312068884234
:1041200018D0E54948312068884213D0E24960310F
:10413000206888420ED0E04978312068884209D052
:10414000DD4990312068884204D0DB49A8312068DD
:10415000884201D1012000E00020002873D0606A6D
:1041600000B100BF022084F8350000BF002084F8B1
:10417000340000BFCF492068884249D0CD4918316A
:104180002068884244D0CB493031206888423FD0F3
:10419000C8494831206888423AD0C6496031206811
:1041A000884235D0C34978312068884230D0C1492F
:1041B0009031206888422BD0BE49A83120688842BF
:1041C00026D0BD492068884222D0BB4918312068DA
:1041D00088421DD0B84930312068884218D0B6498D
:1041E00048312068884213D0B34960312068884242
:1041F0000ED0B14978312068884209D0AE4990315B
:104200002068884204D0AC49A8312068884206D191
:104210002068006820F001002168086005E020683F
:10422000006820F00100216808600DE000F0B8FD92
:10423000A0EB0800052807D920206065032084F83A
:104240003500012036E76AE02068006800F00100D0
:104250000028EBD12068056898480540D4E90201A0
:1042600008432169084361690843A1690843E1697A
:104270000843216A08430543606A042803D1D4E94E
:104280000B01084305438E4800686FF30F00B0F13F
:10429000005F1DD36068292802D360682E2811D9D9
:1042A00060683F2802D3606842280BD960684728BD
:1042B00002D36068482805D960684F2804D3606835
:1042C000522801D8012000E0002008B145F48015F3
:1042D000206805602068456925F00705606A054388
:1042E000606A04280DD1A06A0543E06A48B12046FF
:1042F000FDF7BAFF28B140206065012084F8350041
:10430000D8E6206845612046FDF78AFE064694F807
:104310005C0000F01F013F208840B0609EE06949CA
:104320002068884222D067491431206888421DD015
:10433000644928312068884218D062493C3120689D
:10434000884213D05F495031206888420ED05D49C1
:1043500064312068884209D05A49783120688842FF
:1043600004D058498C312068884201D1012000E0F6
:104370000020E0B353492068884222D051491431CB
:10438000206888421DD04F4928312068884218D0C3
:104390004C493C312068884213D04A49503120684A
:1043A00088420ED0474964312068884209D0454987
:1043B00078312068884204D042498C312068884294
:1043C00001D1012000E0002000B100BF022084F8EC
:1043D000350000BF002084F8340000BF2068056865
:1043E00039480540A068402802D1102106E02EE09F
:1043F000A068802801D1C10100E00021E06841EA05
:10440000D001206941EAD001606941EAD001A06988
:1044100041EAD001E06941EAD001206A41EA101086
:1044200005432068056027492068401A1421B0FB25
:10443000F1F08000E0652046FDF7F2FD074694F8B4
:104440005C0000F01F0101208840786006E04020F9
:104450006065032084F8350001202BE615492068AB
:1044600088427FD013491831206888427AD0114998
:1044700030312068884275D00E4948312068884222
:1044800070D00C496031206888426BD0094978317E
:104490002068884266D0074990312068884261D000
:1044A0000449A831206888425CD0034920688842CA
:1044B00058D00BE010000240100402403F8010FE74
:1044C0000010005C085402580F00FEFF3B491831F1
:1044D0002068884246D0394930312068884241D02E
:1044E00036494831206888423CD0344960312068E0
:1044F000884237D0314978312068884232D02F49FC
:104500009031206888422DD02C49A83120688842FB
:1045100028D02B492068884224D0294914312068AA
:1045200088421FD026492831206888421AD0244961
:104530003C312068884215D021495031206888429A
:1045400010D01F496431206888420BD01C49783153
:104550002068884206D01A498C312068884200E0E1
:1045600000E001D1012000E0002000B32046FDF76B
:10457000CDFDA068802801D1002060602079216EE7
:104580000860D4E919104860606860B16068082864
:1045900009D82046FDF71CFE0020E16E0860D4E932
:1045A0001C10486003E00020E06620676067002080
:1045B0006065012084F8350000207BE5100402408E
:1045C000085402582DE9F04104460D4616461F4690
:1045D0004FF0000814B90120BDE8F08100BF94F845
:1045E0003400012801D10220F6E7012084F83400CC
:1045F00000BF94F8350001287ED1022084F83500F0
:1046000000206065E4492068884249D0E2491831B9
:104610002068884244D0E0493031206888423FD049
:10462000DD494831206888423AD0DB496031206852
:10463000884235D0D84978312068884230D0D64970
:104640009031206888422BD0D349A8312068884215
:1046500026D0D2492068884222D0D049183120681B
:1046600088421DD0CD4930312068884218D0CB49CE
:1046700048312068884213D0C84960312068884298
:104680000ED0C64978312068884209D0C34990319C
:104690002068884204D0C149A8312068884206D1E8
:1046A0002068006820F001002168086005E02068AB
:1046B000006820F00100216808603B463246294628
:1046C0002046FDF729FEB449206888424BD0B24904
:1046D00018312068884246D0AF493031206888427E
:1046E00041D0AD494831206888423CD0AA49603168
:1046F0002068884237D000E042E1A749783120683D
:10470000884230D0A4499031206888422BD0A249F9
:10471000A8312068884226D0A0492068884222D04B
:104720009E491831206888421DD09C49303120684C
:10473000884218D0994948312068884213D0974957
:104740006031206888420ED09449783120688842D0
:1047500009D0924990312068884204D08F49A8310D
:104760002068884201D1012000E0002080B120684B
:10477000006820F01E0040F0160021680860206CE0
:10478000B0B12068006840F00800216808600FE0C0
:104790002068006820F00E0040F00A0021680860E0
:1047A000206C28B12068006840F00400216808608F
:1047B00079492068884270D077491831206888424A
:1047C0006BD0754930312068884266D072494831D3
:1047D0002068884261D070496031206888425CD08E
:1047E0006D4978312068884257D06B4990312068F4
:1047F000884252D06849A831206888424DD0674924
:104800002068884249D0654918312068884244D0E0
:1048100062493031206888423FD060494831206881
:1048200088423AD05D4960312068884235D05B4982
:1048300078312068884230D05849903120688842C9
:104840002BD05649A8312068884226D05449206888
:10485000884222D052491431206888421DD05049E4
:1048600028312068884218D04D493C312068884260
:1048700013D04B495031206888420ED048496431EA
:104880002068884209D0464978312068884204D09F
:1048900043498C312068884201D1012000E000208A
:1048A00090B1206E006800F4803028B1206E00685E
:1048B00040F48070216E0860E06E28B1E06E006800
:1048C00040F48070E16E086033492068884249D026
:1048D000314918312068884244D02F49303120684E
:1048E00088423FD02C494831206888423AD02A4932
:1048F00060312068884235D0274978312068884265
:1049000030D025499031206888422BD02249A831E7
:104910002068884226D021492068884222D01F4939
:104920001831206888421DD01C49303120688842E7
:1049300018D01A4948312068884213D0174960318D
:10494000206888420ED0154978312068884209D005
:10495000124990312068884204D01049A83120685B
:10496000884206D12068006840F001002168086094
:1049700010E02068006840F001002168086009E04C
:104980004FF40060606500BF002084F8340000BF71
:104990004FF0010840461FE610000240100402409C
:1049A0000854025870B5044600F0FAF90646254648
:1049B000681C10B104480078054400BF00F0F0F90D
:1049C000801BA842FAD370BDA800002400B587B0B0
:1049D000142102A8FBF7C6FE00BF5C48006840F443
:1049E00080505A4908600846006800F480500190E1
:1049F00000BF00BF00BF55480C30006840F0040005
:104A000052490C3108600846006800F0040001902B
:104A100000BF00BF00BF0846006840F00800086003
:104A20000846006800F00800019000BF00BF00BF0A
:104A30000846006840F0100008600846006800F072
:104A40001000019000BF00BF00BF0846006840F0A2
:104A5000200008600846006800F02000019000BFB8
:104A600000BF00BF0846006840F0400008600846EC
:104A7000006800F04000019000BF00BF00BF084682
:104A8000006840F0800008600846006800F0800080
:104A9000019000BF00BF4FF63F000290022003903C
:104AA00000200490032005900C20069002A92848BD
:104AB00000F05AF80C20029002200390002004908D
:104AC000032005900C20069002A9224800F04CF823
:104AD00048F2371002900220039000200490032037
:104AE00005900C20069002A91B4800F03DF84FF6F7
:104AF0008370029002200390002004900320059010
:104B00000C20069002A9154800F02EF84CF2037014
:104B100002900220039000200490032005900C20B6
:104B2000069002A90E4800F01FF801200290022012
:104B3000039000200490032005900C20069002A909
:104B4000084800F011F807B000BD0000D444025836
:104B500000140258001C0258001802580010025895
:104B6000000C025800080258F8B502460B46002116
:104B70006F4DD7E001278F401E6806EA0704002C1E
:104B800072D01E7906F00306012E04D01E7906F0BD
:104B90000306022E13D190684F000326BE40B04397
:104BA0004F00DE68BE4030439060506801268E4062
:104BB000B0431E79C6F300168E40304350601E7914
:104BC00006F00306032E09D0D0684F000326BE402E
:104BD000B0434F009E68BE403043D0601E7906F05F
:104BE0000306022E13D1CF0802F1200656F8270043
:104BF0004E07F70E0F26BE40B0434F07FF0E1E694B
:104C0000BE403043CF0802F1200646F82700106866
:104C10004F000326BE40B0431E7906F003064F0046
:104C2000BE40304310605E6806F44036002E78D0F7
:104C300000BF404E366846F002063E4F3E603E469C
:104C4000366806F00206009600BF00BF3A4E8F0895
:104C500056F827008E07370F0F26BE40B043374E59
:104C6000B24202D100262EE05BE0354EB24201D1C5
:104C7000012628E0334EB24201D1022623E0324E13
:104C8000B24201D103261EE0304EB24201D10426C9
:104C900019E02F4EB24201D1052614E02D4EB2424A
:104CA00001D106260FE02C4EB24201D107260AE0C0
:104CB0002A4EB24201D1082605E0294EB24201D166
:104CC000092600E00A268F073F0FBE4030431A4EE8
:104CD0008F0846F827004FF0B0463068A0435E6862
:104CE00006F4801606B120434FF0B046306070687D
:104CF000A0435E6806F4001606B120434FF0B046AC
:104D000070606868A0435E6806F4003606B1204310
:104D100068602868A0435E6806F4803606B12043C8
:104D20002860491C1E68CE40002E7FF423AFF8BDDA
:104D300080000058F444025808040058000002584B
:104D40000004025800080258000C025800100258D3
:104D50000014025800180258001C02580020025883
:104D600000240258024613690B400BB1012000E0F9
:104D70000020704710B5426921EA020302EA0104EB
:104D800043EA0443836110BD0AB1816101E00B0471
:104D90008361704701480068000C70470010005C98
:104DA0000148006870470000A0000024024692F805
:104DB000410020282DD100BF92F84000012801D1E8
:104DC00002207047012082F8400000BF242082F8B2
:104DD00041001068006820F0010013681860106836
:104DE000006820F480501368186010680068084359
:104DF000136818601068006840F0010013681860BC
:104E0000202082F8410000BF002082F8400000BF4F
:104E1000D7E70220D5E710B502460B4692F84100CD
:104E200020282AD100BF92F84000012801D1022099
:104E300010BD012082F8400000BF242082F841000C
:104E40001068006820F00100146820601068016894
:104E500021F4706141EA0321106801601068006864
:104E600040F0010014682060202082F8410000BF5B
:104E7000002082F8400000BFDAE70220D8E70000F7
:104E800010B504460CB9012010BD94F8410028B9B2
:104E9000002084F84000204600F0F0F9242084F837
:104EA00041002068006820F0010021680860606807
:104EB00020F07060216808612068806820F400405C
:104EC00021688860E068012805D1A06840F40040AE
:104ED0002168886004E0A06840F40440216888608C
:104EE000E068022802D1800221684860206840689A
:104EF00013490843216848602068C06820F40040D6
:104F00002168C860D4E904010843A16940EA01208E
:104F10002168C860D4E90701084321680860206857
:104F2000006840F0010021680860002060642020D3
:104F300084F841000020206384F8420000BFA3E70A
:104F4000008000022DE9FC5F0446894692469B469C
:104F5000DDE90C780E9E94F8410020287ED117B12F
:104F6000B8F1000F05D14FF4007060640120BDE876
:104F7000FC9F00BF94F84000012801D10220F6E711
:104F8000012084F8400000BFFFF70AFF05461923FF
:104F90000122D1032046009505F0F4FB08B1012061
:104FA000E5E7222084F84100402084F842000020F8
:104FB00060646762A4F82A8060635B465246494693
:104FC0002046CDE9006505F045FB30B100BF00206B
:104FD00084F8400000BF0120C9E7608DFF280CD98C
:104FE000FF2020853D48009094F828204FF08073E2
:104FF0004946204605F0AAFB0BE0608D2085374826
:10500000009094F828204FF000734946204605F0A0
:105010009DFB00BF3346002204212046009505F089
:10502000B1FB08B10120A2E72068406A616A0870FC
:10503000606A401C6062208D401E2085608D401E8D
:105040006085608D48B3208D38BB334600228021B7
:105050002046009505F096FB18B100E03CE00120E9
:1050600085E7608DFF280CD9FF2020850020009067
:1050700094F828204FF080734946204605F066FBDF
:105080000BE0608D20850020009094F828204FF0E0
:1050900000734946204605F059FB608D0028B9D1C0
:1050A0002A463146204605F0A6FB08B101205EE7FE
:1050B00020202168C86120684068094908402168AB
:1050C0004860202084F84100002084F8420000BF9E
:1050D00084F8400000BF4AE7022048E7002400802F
:1050E00000E800FE2DE9FC5F0446894692469B4697
:1050F000DDE90C780E9E94F8410020287DD117B18F
:10510000B8F1000F05D14FF4007060640120BDE8D4
:10511000FC9F00BF94F84000012801D10220F6E76F
:10512000012084F8400000BFFFF73AFE054619232E
:105130000122D1032046009505F024FB08B101208F
:10514000E5E7212084F84100402084F84200002057
:1051500060646762A4F82A8060635B4652464946F1
:105160002046CDE9006505F0B3FA30B100BF00205C
:1051700084F8400000BF0120C9E7608DFF280CD9EA
:10518000FF2020850020009094F828204FF08073A5
:105190004946204605F0DAFA0BE0608D20850020B4
:1051A000009094F828204FF000734946204605F0FF
:1051B000CDFA00BF2A463146204605F04CFB08B127
:1051C0000120A4E7606A007821688862606A401C58
:1051D0006062608D401E6085208D401E2085608D40
:1051E00040B3208D30BB33460022802120460095FD
:1051F00005F0C8FA10B1012089E73AE0608DFF2878
:105200000CD9FF2020850020009094F828204FF032
:1052100080734946204605F099FA0BE0608D2085A1
:105220000020009094F828204FF000734946204653
:1052300005F08CFA608D0028BCD12A463146204604
:1052400005F0D9FA08B1012061E720202168C86182
:10525000206840680849084021684860202084F898
:105260004100002084F8420000BF84F8400000BFE5
:105270004DE702204BE7000000E800FE10B5B8B093
:105280000446142132A8FBF76DFAC02102A8FBF7EF
:1052900069FA1E492068884236D108210020CDE9EC
:1052A0000210239002A801F0C1FD08B1FDF706FA33
:1052B00000BF1748006840F0020015490860084622
:1052C000006800F00200019000BF00BF4FF4407082
:1052D0003290122033900020349035900420369084
:1052E00032A90C48FFF740FC00BF094808300068AD
:1052F00040F400100649083108600846006800F4D0
:105300000010019000BF00BF38B010BD0054004035
:10531000E044025800040258034800680349097831
:105320000844014908607047A0000024A800002438
:1053300010B5032000F0C4FB02F03CFE10490968E0
:10534000C1F303210F4A515C01F01F0120FA01F45F
:105350000B48006800F00F001146085C00F01F00C9
:1053600024FA00F008490860084804600F2000F0A3
:105370000FF808B1012010BD00F038FB0020FAE75B
:1053800018440258B8E104089C0000249800002446
:1053900070B58AB00446102C0AD20022214676202D
:1053A00000F050FB762000F039FB1948046002E061
:1053B00001200AB070BD00BF1648006840F480208C
:1053C000144908600846006800F48020009000BF7F
:1053D00000BF01A902A802F06DFD02F0D9FD450051
:1053E0000D48B5FBF0F0461E0C480D49086040F230
:1053F000E7310B48C160466000210161816003F024
:105400004DFC18B9064803F099FCD2E70120D0E71B
:10541000A4000024F044025840420F00004801401C
:10542000BC04002470B504460E46154600BF94F82F
:10543000A000012801D1022070BD012084F8A00045
:1054400000BF022084F8A10005EB850101EBC50235
:1054500004F1380101EB820034223146FBF726F9D2
:105460002A463146204605F099FB01202168486212
:1054700084F8A10000BF002084F8A00000BF00BF96
:10548000DAE7704770B504462068856B2068466B84
:1054900005F00400E0B106F00400C8B12068406BDC
:1054A00020F004002168486304202168C863D4F810
:1054B000A40040F00100C4F8A400042084F8A10076
:1054C00000BF002084F8A00000BF2046FFF7D9FFEE
:1054D00005F00200E0B106F00200C8B12068406BA0
:1054E00020F002002168486302202168C863D4F8D4
:1054F000A40040F00200C4F8A400042084F8A10035
:1055000000BF002084F8A00000BF2046FFF7B9FFCD
:1055100005F00100A8B106F0010090B12068406BD1
:1055200020F001002168486301202168C86384F8E5
:10553000A10000BF002084F8A00000BF204600F0BA
:10554000A7F805F00800B0B106F0080098B120688F
:10555000406B20F008002168486308202168C86378
:10556000012084F8A10000BF002084F8A00000BF43
:10557000204600F0D5F970BD70B504460CB9012085
:1055800070BD94F8A10028B9002084F8A00020463E
:1055900000F08CF8022084F8A1002068806920F0D7
:1055A000704021688861D4E901010843E16808433B
:1055B0002169084321688969084321688861206856
:1055C00080683249084021688860A08A0504206804
:1055D0008068A16929430843216888602068C06801
:1055E0002A4908402168C860A08B05042068C0686B
:1055F000216A294308432168C8602068006923495B
:10560000084021680861A08C050420680069A16A2F
:105610002943084321680861206840691B49084004
:1056200021684861A08D050420684069216B2943E9
:1056300008432168486194F83500050294F8360063
:1056400006042068C06A00F07F402168C86246EA0C
:10565000050094F8341008432168C96A084321689A
:10566000C8622068406B40F00600216848632068EB
:10567000806940F00100216888610020C4F8A4001E
:10568000012084F8A10000207AE7000000F800F073
:1056900010B504462068406A40F001002168486265
:1056A0000021204600F012F910BD000030B587B08F
:1056B00004460025142102A8FBF754F87C49206811
:1056C00088427CD100BF7B48006840F008007949DF
:1056D00008600846006800F00800019000BF00BFA5
:1056E00000BF081F006840F48060091F086008467A
:1056F000006800F48060019000BF00BF00BF084652
:10570000006840F0400008600846006800F0400073
:10571000019000BF00BF00BF0846006840F4007061
:1057200008600846006800F40070019000BF00BFE8
:1057300000BF0846006840F0800008600846006826
:1057400000F08000019000BF00BF00BF0846006865
:1057500040F4807008600846006800F48070019092
:1057600000BF00BF00BF0846006840F0800008602E
:105770000846006800F08000019000BF00BF0020D4
:10578000039004904FF40040029002A94A48FFF7AA
:10579000EBF98020029002A94848FFF7E5F94FF4A1
:1057A0008050029002A94548FFF7DEF94FF400410E
:1057B0004148FFF7D7FA68B98021404800E075E01A
:1057C000FFF7D0FA30B94FF480513C48FFF7CAFADE
:1057D00000B90125FE2002900220039000200490D1
:1057E000032005900E20069002A93548FFF7BCF96A
:1057F0004FF4806002900220039000200490032068
:1058000005900920069002A92E48FFF7ADF94FF246
:10581000FF300290022003900020049003200590A6
:105820000E20069002A92548FFF79EF94FF400408C
:1058300002900220039000200490032005900E2087
:10584000069002A92048FFF78FF94FF470400290AC
:105850000220039000200490032005900E20069063
:1058600002A91548FFF780F910200290022003904A
:1058700000200490032005900920069002A91248F8
:10588000FFF772F94020029001200390002004905D
:10589000059002A90C48FFF767F9002240210A4849
:1058A000FFF772FA012D01D105F05EF807B030BDA7
:1058B00000100050E444025800200258002402580E
:1058C0000028025800180258001C0258024600BF67
:1058D00092F8A000012801D102207047012082F82F
:1058E000A00000BF022082F8A1001068406B20F0E9
:1058F000010013685863094801641068406B40F068
:10590000010013685863012082F8A10000BF002045
:1059100082F8A00000BF00BFDFE7000000100050C9
:10592000704700004178154A11600178F9B1121DE5
:1059300041681160017B0907C27A41EA0261827AFB
:1059400041EAC241427B41EA8241827B41EA4241D3
:10595000C27B41EA0241427A41EA0221027A41EAEB
:10596000420102781143054A0832116005E0002126
:10597000024A121D1160121D1160704798ED00E07F
:1059800000BF00BF00BFBFF35F8F00BF00BF00BFFD
:105990000548006820F4803003490860002002496F
:1059A000703108607047000024ED00E040F0010114
:1059B0000D4A11600C497039096841F480310A4A76
:1059C000703A116000BF00BF00BFBFF34F8F00BF30
:1059D00000BF00BF00BF00BF00BFBFF36F8F00BF9D
:1059E00000BF00BF7047000094ED00E008B500BFA5
:1059F0000948006840F0020007490860084600684E
:105A000000F00200009000BF00BF00220F21901E96
:105A100000F018F808BD0000F4440258014608469A
:105A200000280DDB00BF00BF00F01F0301229A40D9
:105A300043099B0003F1E023C3F8002100BF00BF2E
:105A400000BF70472DE9F05F80460D4616460BF00B
:105A500081FB074639462A46334601F00700C0F16C
:105A6000070ABAF1040F02D94FF0040A01E0C0F1AD
:105A7000070AD14600F1040ABAF1070F02D24FF02B
:105A8000000A01E0A0F1030AD4464FF0010A0AFA25
:105A900009FAAAF1010A0AEA020A0AFA0CFA4FF014
:105AA000010B0BFA0CFBABF1010B0BEA030B4AEAFF
:105AB0000B04214640460BF055FBBDE8F09F00006B
:105AC00000BF00F00702064B19684FF6FF031940AC
:105AD000044B0B4343EA0221014B196000BF70479E
