:020000040800F2
:100000008858012471030008D1E9000833D20008A0
:10001000FDE70008A1280008ED5B010800000000D2
:10002000000000000000000000000000B102000815
:1000300081320008000000000D030008A71201082B
:100040008B0300088B0300088B0300088B03000858
:100050008B0300088B0300088B0300088B03000848
:100060008B0300088B0300088B0300086D2C00082D
:100070007D2C00088D2C00089D2C0008AD2C00085C
:100080008B0300088B0300088B0300088B03000818
:100090008B0300088B0300088B0300088B03000808
:1000A0008B0300088B0300088B0300088B030008F8
:1000B0008B0300088B0300088B0300088B030008E8
:1000C0008B0300088B0300088B0300088B030008D8
:1000D0008B030008A1310108B13101088B0300082E
:1000E0008B0300088B030008000000008B0300084E
:1000F0008B0300088B0300088B0300088B030008A8
:100100008B030008110101088B0300088B03000812
:10011000ED1E01088B0300088B0300088B03000809
:100120008B0300088B0300088B0300088B03000877
:100130008B0300088B0300088B0300088B03000867
:1001400000000000000000000000000000000000AF
:100150008B0300088B0300088B030008C1310108E2
:100160008B0300088B0300088B0300088B03000837
:100170008B0300088B0300088B03000800000000BD
:100180008B0300088B0300088B0300088B03000817
:100190008B0300088B0300088B0300088B03000807
:1001A00061DB00088B0300088B0300088B03000849
:1001B0008B0300088B0300088B0300088B030008E7
:1001C0008B0300088B0300088B0300088B030008D7
:1001D0008B03000839F000088B0300088B0300082C
:1001E0008B0300088B0300088B0300088B030008B7
:1001F0008B0300088B0300088B0300088B030008A7
:100200008B0300088B0300088B0300088B03000896
:100210008B0300088B030008491501088B030008B5
:100220008B0300088B0300088B030008000000000C
:100230008B0300088B030008000000008B030008FC
:100240008B0300088B0300088B0300088B03000856
:100250008B0300088B0300088B0300088B03000846
:100260008B0300088B0300088B0300088B03000836
:100270008B0300088B0300088B03000800000000BC
:100280008B0300088B0300088B03000800000000AC
:10029000000000008B030008DFF810D000F0A2FB84
:1002A000004800470D500408AFF30080885801242F
:1002B0002C4B19680868B0E8F04F80F30988BFF349
:1002C0006F8F4FF0000080F311887047000000002E
:1002D00008480068006880F308884FF0000080F349
:1002E000148862B661B6BFF34F8FBFF36F8F00DF24
:1002F00000BF00BF08ED00E0DFF80C00016841F42A
:1003000070010160704700BF88ED00E0EFF30980E5
:10031000BFF36F8F134B1A681EF0100F08BF20ED4C
:10032000108A20E9F04F106009B44FF0500080F3BC
:100330001188BFF34F8FBFF36F8F4EF017FF4FF051
:10034000000080F3118809BC19680868B0E8F04F14
:100350001EF0100F08BFB0EC108A80F30988BFF3BD
:100360006F8F704748030024EFF30580704700004B
:100370000648804706480047FEE7FEE7FEE7FEE73F
:10038000FEE7FEE7FEE7FEE7FEE7FEE74D140108A5
:10039000990200082DE9F05F0546002092469B4631
:1003A00088460646814640241BE02846414647468B
:1003B000224600F0C8F853465A46C01A914110D35D
:1003C00011461846224600F0AFF82D1A67EB0108D7
:1003D0004F4622460120002100F0A6F817EB000945
:1003E0004E41201EA4F10104DFDC484631462A4676
:1003F0004346BDE8F09F10B5431A934209D28318D3
:10040000881803E010F8011D03F8011D521EF9D2EF
:1004100010BD40EA01039B0703D009E008C9121F81
:1004200008C0042AFAD203E011F8013B00F8013BAE
:10043000521EF9D210BDD2B201E000F8012B491EC4
:10044000FBD270470022F6E710B513460A46044671
:100450001946FFF7F0FF204610BD421E12F8013F7B
:10046000002BFBD111F8013B02F8013B002BF9D125
:100470007047421C10F8011B0029FBD1801A7047FD
:1004800010B5002200E0521C835C8C5CA34201D1B9
:10049000002BF8D1D8B2E1B2401A10BD034611F8D2
:1004A000012B00F8012B002AF9D11846704730B50E
:1004B00005460020034600E05B1C934205D2EC5C3D
:1004C000C85C201A01D1002CF6D130BD0022CBB27D
:1004D0000178994200D10246401C0029F8D110460B
:1004E000704770B5064615F04FFF046805460A22AE
:1004F0000021304600F086F82C6070BD30B50B4608
:10050000014600202022012409E021FA02F59D4243
:1005100005D303FA02F5491B04FA02F52844151E17
:10052000A2F10102F1DC30BD202A04DB203A00FAFE
:1005300002F1002070479140C2F1200320FA03F33A
:10054000194390407047202A04DB203A21FA02F038
:100550000021704721FA02F3D040C2F120029140FD
:1005600008431946704700000FB4002300B589B056
:100570000CA900910B996FF00042CB601E4B0693C3
:100580001E4B07930423CDE901321D4A089202460F
:100590006B46002000F0ECFA09B05DF814FB70B572
:1005A00086B006464FF0FF300091CDE901010020F2
:1005B00015460C4604903246694604A8FFF7D4FF5E
:1005C00002460498211825B108B1084600E02046EB
:1005D0002860049800280DD0002A02DD0098884287
:1005E00008D0081B0094CDE901043246694604A8EE
:1005F000FFF7BAFF06B070BDA90D0008C70D0008CF
:10060000350A00082DE9F04791460F46804604461A
:10061000002614F8015B2DB100F008FA0068405D77
:10062000C007F6D12B2D02D02D2D18D0641E4A46BE
:100630003946204600F0D8FB27B13968A14201D1E4
:10064000C7F8008071054FF002040BD54042002826
:1006500003DD15F099FE0460A007BDE8F08746F4BD
:100660008066E4E70028F8DA15F08EFE04606FF08B
:100670000040F2E72DE9FE4F804681EA0300C00FFB
:100680000C46009021F0004123F00045B8EB020039
:10069000A94105D24046214690461C460B460246DB
:1006A00023F00040104347D0270DC7F30A00C3F3DF
:1006B0000A510290401A019040286BDAC3F31300EC
:1006C00040F4801B0098924620B10023D2EB030A2D
:1006D00063EB0B0B01985946C0F140025046FFF7FF
:1006E00023FF06460D4650465946019A00F08CF904
:1006F00010EB08006141002487EA115284EAE77395
:100700001A4340D0009A62B3019A012A4FEA075275
:1007100015DC001B61EB02014FF0004202EA0752B8
:10072000CDE90042001C41F5801132462B4600F015
:10073000B9FB03B0BDE8F08F40462146F9E7001B46
:1007400061EB0201001C41F5801300185B41201889
:10075000A2F5001747EB030140EAD570B6196D41C9
:1007600011E06D084FEA360645EAC0754FEA0752B8
:10077000001B61EB0201001C41F5801149084FEAA2
:1007800030000019514132462B4603B0BDE8F04F0E
:1007900000F079BB0098012240000023D0EB020258
:1007A00063EBE073009821464FEAE074B8EB000079
:1007B00061EB0401E9E783F000435BE781F000416E
:1007C00058E72DE9FE4F81EA030404F0004421F0CC
:1007D000004100944FF0000B23F0004350EA010465
:1007E0005ED052EA03045BD0C3F30A54C1F30A5546
:1007F0002C44A4F2F3340194A0FB0254C1F313017E
:1008000041F48011C3F3130343F4801301FB02444A
:1008100000FB034E840A970A44EA815447EA83574F
:10082000A4FB076802958D0A05FB07854FEA932C08
:1008300004FB0C542705029D4FEA065847EA163779
:10084000B5EB08056EEB070C870E920E47EA811791
:1008500042EA8312A7FB0201B6EB0B0164EB000432
:100860002B0D43EA0C335E1844EB1C50DA4651461C
:10087000E7FB0201C5F313044FEA0B3343EA1453B9
:100880004FEA0432019C43EA0603A4F10C040294EB
:10089000009CCDE900B400F005FB03B0BDE8F08F8B
:1008A00000200146F9E72DE9F04D81EA030404F048
:1008B000004B21F0004514464FF0000A23F00041A0
:1008C00050EA050220D054EA01021DD0C5F30A57B0
:1008D0000246C5F31303C1F31300C1F30A5640F4F3
:1008E000801543F48013A7EB0608101BD64608F2C8
:1008F000FD3873EB050002D308F1010801E09218FE
:100900005B41B8F1000F03DA00200146BDE8F08D2D
:1009100000204FF48011064684460EE0171B73EB4F
:10092000050705D3121B63EB050306434CEA010CD4
:1009300049084FEA300092185B4150EA0107EDD1B7
:1009400052EA030012D082EA040083EA0501084358
:1009500005D0101BAB4106D20122002306E0002285
:100960004FF0004302E06FF0010253101AEB060053
:100970004CEB085110EB0A0041EB0B01BDE8F04DC8
:1009800000F081BAC1F30A52C1F3130140F2FF3300
:1009900041F480119A4202DA00200146704740F289
:1009A00033439A42A2F2334202DC5242FFF7CBBDFC
:1009B000FFF7BABD30B5041E71F1000404DB4FF03F
:1009C0000044404264EB0101141E73F1000405DB96
:1009D0001C464FF00043524263EB0403994208BFA8
:1009E000904230BD064C074D06E0E06840F0010340
:1009F00094E8070098471034AC42F6D3FFF750FC58
:100A00000026070820260708202A06DBCB17203AF5
:100A100041FA02F043EAE07306E041FA02F3D04003
:100A2000C2F12002914008431946704700487047C0
:100A300074B1060810B50446FFF7F8FF0068005DC2
:100A400000F0010010BD00002DE9FF4F087883B0D1
:100A50009946FF2805D0491C2D2804D000240020E9
:100A600008E000200BE00124F9E700EB800003EB35
:100A70004000491C0B78FF2BF7D104B14042002302
:100A80000293147819461D462D2C01D02B2C04D12D
:100A9000521C2D2C13D000240294AA461478FF2C4B
:100AA0000FD00A25A3FB057801FB05814FF0000C50
:100AB00003FB0C11521CE3194AEB0101EEE7012480
:100AC000EAE7814453EA010002D019F5C87F06DA4B
:100AD00003980021C0E9001107B0BDE8F08F0025A0
:100AE000AE4E2F46DFF8B882184600F037FACDE94F
:100AF0000001B9F1000002DAC9F1000400E0044687
:100B00000023A74A1AEB030B42EB045A12E0E0075A
:100B100007D02A46334638464146FFF752FE07467D
:100B200088462A46334610461946FFF74AFE0546D0
:100B30000E466410002CEAD1DDE90001B9F1000F86
:100B40005A46534606DAFFF7AEFE3A464346FFF7EB
:100B5000AAFE05E0FFF735FE3A464346FFF731FEB1
:100B6000029A0AB181F00041039AC2E90001B3E799
:100B70002DE9FF4F1F468DB0D7E901464FF0FF38F2
:100B80002E2045464FF000090B90B9696D1C0E9858
:100B90008847396A824688470028F6D1BAF1FF3F74
:100BA0000AD024F4D064002E11DDBAF12B0F08D046
:100BB000BAF12D0F0BD102E0404611B08DE744F49D
:100BC0008064B9696D1C0E9888478246761E694616
:100BD000600501D52D2000E02B208DF8000001F1EB
:100BE000010B0DF1200809E0B9696D1C0E988847CA
:100BF00082460F9844F40074761E0560002E02DDD4
:100C0000BAF1300FF0D00B998A453ED144F0800400
:100C100006E00F99681CA9F1010944F4007408600A
:100C2000B9696D1C761E0E98884782463028F0D030
:100C30002BE00B998A4505D1200603D444F08004AB
:100C4000761E18E0504616F0DAFD08B30DF11301D8
:100C5000761E44F400748B4508D2AAF130000BF8DC
:100C6000010B200607D5A9F1010003E0200602D4FC
:100C700009F101008146A00502D50F99681C0860A2
:100C8000B9696D1C0E9888478246002ED1DC53E06E
:100C9000002E51DDBAF1650F02D0BAF1450F4BD1EC
:100CA000A00549D5B9696D1C24F44074761E0E98D0
:100CB00088478246002E0CDD2B2804D0BAF12D0F78
:100CC00007D144F48074B9696D1C0E988847824638
:100CD000761EE00501D52D2100E02B2108F8011B2F
:100CE000CDF82C8021E00DF12901761E44F400742A
:100CF00088450CD2AAF1300010F0FF0088F80000FF
:100D000002D10B99884509D908F1010806E0E005F0
:100D100001D5244801E042F20F708146B9696D1C8B
:100D20000E98884782460F980560002E04DD5046D5
:100D300016F065FD0028D6D1F9690E988847FF2086
:100D40008BF8000088F800000020069007904B46C2
:100D50006A4608A906A8FFF777FEA00502D46FF03F
:100D600001002AE714F0240F0AD0E00714D1DDE9CE
:100D700006123868031D3B600068C0E900120BE0F2
:100D8000DDE9060100F0F6F80146E00704D1386815
:100D9000021D3A600068016028460EE7000014401A
:100DA0000000F03FF1D8FFFF426842B1016811F83E
:100DB000013B23B1521EC0E90012184670470121C1
:100DC000C160881E704742685AB1C368016843B960
:100DD00083688B4205D0491E521CC0E900120020D6
:100DE00070474FF0FF3070472DE9F05F8246007882
:100DF000002715468B460AF10104B946302801D078
:100E00009DB113E014F8010B0127782803D058286E
:100E100001D045B10AE00DB1102D07D100271025F2
:100E200014F8010B02E0082500E00A250026B04670
:100E30000EE005FB080005FB06F1012701EB10465B
:100E40001FFA80F8B6F5803F00D3B94614F8010BBD
:100E5000294600F075F80028EBDABBF1000F05D049
:100E60000FB1641E00E05446CBF80040B9F1000F0A
:100E700006D015F089FA02210160C81EBDE8F09F76
:100E800048EA0640FAE710B5141E73F1000408DAC8
:100E9000401C41F1000192185B411A4301D120F03E
:100EA000010010BD2DE9F04D92469B4611B1B1FAFB
:100EB00081F202E0B0FA80F220329046FFF734FB74
:100EC00004460F4640EA0A0041EA0B0153465A46DF
:100ED000084313D0114653EA010019D0C8F140026B
:100EE0005046FFF730FB05460E46504659464246EF
:100EF000FFF71AFB084305D0012004E020463946DD
:100F0000BDE8F08D0020054346EAE0762C433743E8
:100F10000A986305E40AA0EB08000022FD0A44EAEF
:100F200047540A3002D500200146E9E701051019AF
:100F30006941DDE9084500196941BDE8F04DA2E7C6
:100F40003A2800D2303820F02002412A01D3A2F101
:100F50003700884201D34FF0FF3070470EB540F2A2
:100F6000334202920022CDE900221346FFF79AFF96
:100F700003B000BD01F0004330B421F0004150EA5D
:100F8000010206D00A0DA2F56072C1F31301002A16
:100F900002DC30BC00207047440F44EAC104C100A9
:100FA000E01830BC00EBC250AFF300800029A8BFAE
:100FB0007047401C490008BF20F00100704710B482
:100FC000B0FA80FC00FA0CF050EA010404BF10BC37
:100FD000704749B1CCF1200421FA04F411FA0CF164
:100FE00018BF012121430843A3EB0C01CB1D4FEA9D
:100FF00000614FEA102042BF002010BC704700EB98
:10100000C35010440029A4BF10BC7047401C4900C5
:1010100008BF20F0010010BC704770B58C1810F8A4
:10102000015B15F0070301D110F8013B2A1106D12D
:1010300010F8012B03E010F8016B01F8016B5B1E47
:10104000F9D12B0705D40023521E0DD401F8013B22
:10105000FAE710F8013BCB1A921C03E013F8015B8E
:1010600001F8015B521EF9D5A142D8D3002070BD12
:101070009342D8BF70472DE9F04F81B09C189A4633
:101080004FEA540990464B468B460546FFF7F0FF62
:101090000120594600EB5404284622465346FFF7E8
:1010A000E7FF05EB890005EB840190ED000A91ED67
:1010B000001AB4EE410AF1EE10FA40F3BA800021B2
:1010C000C845D8BFD14501DB40461FE0ABF1040263
:1010D000404600BF05EB8003013105EB840793ED2B
:1010E000000A002397ED001AB4EE410AF1EE10FA5F
:1010F000ACBF0123013080FE410A1C44484582ED0B
:10110000010A03DC544502F10402E3DDA24542DB9F
:10111000AAEB0407A6467A1C12F0030302EB010CAB
:101120000A461CD004F1010E012B01F1010255F811
:1011300024604BF8216012D0A61C022B01F102039F
:1011400055F82EE04BF822E002D11A46B64606E0EA
:1011500004F1030ECA1C55F826604BF82360032FD8
:1011600018D301EB0A030BEB82079A1A05EB8E03E7
:10117000141BA7F11001A3F11002631C52F8107F99
:1011800041F8107F57684F6097688F60043BD768BD
:10119000CF60F3D16146814540DBA9EB00020C46EC
:1011A000531C844613F003031DD000F1010C012BE6
:1011B00001F1010455F820704BF8217013D000F1B3
:1011C000020E022B01F1020355F82C704BF824702B
:1011D00002D11C46F44606E000F1030CCC1C55F885
:1011E0002E704BF82370032A18D30BEB840201EB0B
:1011F0000903A2F110011A1B05EB8C03121AA3F1CB
:101200001000013250F8103F41F8103F43684B6026
:1012100083688B60043AC368CB60F3D1AAEB080003
:10122000411C032801F0030C08D20022BCF1000F7E
:1012300023D101B0BDE8F04F704700BF21F003019A
:1012400005EB88034A420021002700BF0BEB07048F
:10125000D8195BF80760DE51666846600439A668F5
:1012600086608A4207F11007E668C660EED14A42FE
:10127000A8EB0108BCF1000FDBD0BCF1010F5BF85B
:10128000220045F82800D4D00BEB8201BCF1020FFC
:1012900005EB880248685060CBD08868906001B048
:1012A000BDE8F04F704700002DE9F04F89B0129C67
:1012B0000291012CC0F27E809446002B064600F578
:1012C000AA7106916ADD4FF6FC7104EB4400C7F683
:1012D000FF7103F0030E850003EA01084FEA0419C9
:1012E000029A4FEAC40A06F5B0704FEA840B0190E7
:1012F000002008900593CDE903CE12E0089FC7EBCC
:10130000C700C0000CEB0002304600F039F901378D
:10131000079ADDE903CEA74202F10402059B089774
:1013200048D0042B4FF00000079201D2069913E039
:10133000019F0699136847F80C3C52F80B3047F8A8
:10134000083C52F80A3047F8043C043053598045B1
:101350004A4447F8103BEDD1BEF1000FCED000FB60
:1013600004F2029B089FBEF1010F03EB870757F8B9
:10137000222041F82020C1D0421CBEF1020F02FB06
:1013800004F357F8233041F82230B7D0023000FB85
:1013900004F257F8222041F82020AFE73546069E98
:1013A000284631466246674600F0EAF8013C07F1FC
:1013B000380CF5D109B0BDE8F08F00000000000046
:1013C00070B54C1E90ED000A10D08E1E04F0030E76
:1013D000032E13D24FF0000CB0EE401ABEF1000FF6
:1013E00047D182ED000AC3F800C070BD4FF0000C79
:1013F00082ED000AC3F800C070BD00BF24F00305F1
:101400004FF0000C002600BF90ED011A90ED023A5B
:1014100080FE012AB4EE410A90ED030AF1EE10FAC3
:1014200082FE031AB4EE432AB8BF06F1010C81FE16
:10143000003A90ED042AF1EE10FAB8BF06F1020C62
:10144000B4EE401A103083FE020AF1EE10FAB8BF73
:1014500006F1030C0436B4EE423AF1EE10FAB8BFCE
:10146000B446B542D0D1A41BB0EE401ABEF1000F75
:10147000B7D090ED012A091B81FE020AB4EE421A90
:10148000F1EE10FAB8BF8C46BEF1010FA9D090ED75
:10149000022A80FE021AB4EE420AF1EE10FAB8BF38
:1014A00001F1010CBEF1020F06D1B0EE410A82ED4E
:1014B000000AC3F800C070BD90ED032A81FE020A45
:1014C000B4EE421AF1EE10FAB8BF01F1020C82ED4F
:1014D000000AC3F800C070BD002A4ED012F003030A
:1014E0000CD090ED001A012B20EE011A81ED001AAC
:1014F00006D104300431531E19E000BF134616E034
:1015000090ED011A022B20EE011A81ED011A03D190
:1015100008300831931E0AE090ED021A01F10C0C1C
:1015200020EE011A0C3081ED021AD31E6146042A06
:1015300038BF7047A0F11002A1F1100092ED041A1B
:1015400000F1100120EE011A043B80ED041A92ED27
:10155000051A20EE011A80ED051A92ED061A20EE0A
:10156000011A80ED061A92ED071A02F1100220EE20
:10157000011A80ED071A0846E0D17047000000000C
:10158000F0B581B00D460646382110461446FEF7E8
:1015900059FF06F5EA77802238462946FEF72BFFE9
:1015A00006F515712022384600F0CAFA96ED7C0A3D
:1015B00096ED7D1A31EE401AB6EE082A9FED566A76
:1015C000B7EE004AB0EE467A002001EE020AB5EE10
:1015D000002A84ED070A96ED8C0A96ED8D1A31EEFD
:1015E000401A01EE020A9FED4D2A84ED030A96EDA2
:1015F000920A96ED931A31EE401A01EE020AB6EE07
:10160000002A84ED080A96ED840A96ED851A31EEDB
:10161000401A01EE020A84ED0C0A95ED005A96ED8F
:10162000751AB0EEC50A96ED942AB1EEC03A25EED1
:10163000050A00BF2918D1ED010AD1ED001AF0EE1C
:10164000E02A10EE902A70EEE13A11EE903A35EE73
:10165000205AF1EEE21AF0EEE32A534077EE043A14
:10166000002B33EE213AD1ED021A76EE222A11EE4A
:10167000903AB0EEE16A00EEA00A27FE237A5A40C3
:1016800071EEE00A002AB1EEC66A77EE043AF0EE97
:10169000E00A33EE063A91ED036A35EE215A16EE72
:1016A000102A01EEA10A72EEA00A27FE237A534007
:1016B000F0EEC62A002B76EE611A06EE060AF1EE6F
:1016C000E22AF0EEE11A77EE043A35EE065A33EEEE
:1016D000223A70EEA10A27FE237A702822D0D1ED9B
:1016E000041A1030F0EEE12A11EE901A31EEC66ABB
:1016F00035EE215A01EEA10A5140F1EEE21A00291D
:10170000B0EEC66A77EE042A33EE213A30EE866AEE
:1017100027FE227A8EE700BF000000004066E63E0A
:101720000000003D1FED024AC4ED010A20EE040A4C
:1017300084ED067A84ED0B1A23EE043A84ED0D2A2B
:10174000B1EEC00A84ED040A25EE040A32EE415AD5
:1017500084ED095AB0EEC11A95ED015A95ED006A73
:1017600035EE405A95ED027A36EE406AB0EEC22A66
:1017700025EE055A23EE033A82FE012A06EE065AAA
:1017800037EE406A95ED037A82EE032A06EE065A9A
:1017900037EE406A95ED047A06EE065A37EE406A57
:1017A00095ED057A06EE065A37EE406A95ED067A13
:1017B00006EE065A37EE406A95ED077A06EE065AAF
:1017C00037EE406A06EE065A95ED086A36EE406A34
:1017D00006EE065A95ED096A36EE406A06EE065A9E
:1017E00095ED0A6A36EE406A06EE065A95ED0B6AEA
:1017F00036EE406A06EE065A95ED0C6A36EE406A01
:1018000006EE065A95ED0D6A36EE406A06EE065A69
:1018100095ED0E6A36EE406A06EE065A95ED0F6AB1
:1018200036EE406A06EE065A95ED106A36EE406ACC
:1018300006EE065A95ED116A36EE406A06EE065A35
:1018400095ED126A36EE406A06EE065A95ED136A79
:1018500036EE406A06EE065A95ED146A36EE406A98
:1018600006EE065A95ED156A36EE406A06EE065A01
:1018700095ED166A36EE406A06EE065A95ED176A41
:1018800036EE406A06EE065A95ED186A36EE406A64
:1018900006EE065A95ED196A36EE406A06EE065ACD
:1018A00095ED1A6A36EE406A06EE065A95ED1B6A09
:1018B00036EE406A06EE065A95ED1C6A36EE406A30
:1018C00006EE065A95ED1D6A36EE406A06EE065A99
:1018D00095ED1E6A36EE406A06EE065A95ED1F6AD1
:1018E00036EE406A84ED002A06EE065A25EE041A0A
:1018F00084ED051AB1EEC11A84ED0A1A95ED012A9C
:1019000095ED003A32EE402A95ED024A33EE403A28
:1019100034EE404A22EE022A23EE033A24EE044A31
:1019200022EE022A21EE011A03EE032A95ED033A74
:1019300033EE403A04EE042A95ED044A23EE033ACE
:1019400034EE404A03EE032A24EE043A95ED054AAC
:1019500034EE404A03EE032A24EE043A95ED064A9B
:1019600034EE404A03EE032A24EE043A95ED074A8A
:1019700034EE404A03EE032A24EE043A95ED084A79
:1019800034EE404A03EE032A24EE043A95ED094A68
:1019900034EE404A03EE032A24EE043A95ED0A4A57
:1019A00034EE404A03EE032A24EE043A95ED0B4A46
:1019B00034EE404A03EE032A24EE043A95ED0C4A35
:1019C00034EE404A03EE032A24EE043A95ED0D4A24
:1019D00034EE404A03EE032A24EE043A95ED0E4A13
:1019E00034EE404A03EE032A24EE043A95ED0F4A02
:1019F00034EE404A03EE032A24EE043A95ED104AF1
:101A000034EE404A03EE032A24EE043A95ED114ADF
:101A100034EE404A03EE032A24EE043A95ED124ACE
:101A200034EE404A03EE032A24EE043A95ED134ABD
:101A300034EE404A03EE032A24EE043A95ED144AAC
:101A400034EE404A03EE032A24EE043A95ED154A9B
:101A500034EE404A03EE032A24EE043A95ED164A8A
:101A600034EE404A03EE032A24EE043A95ED174A79
:101A700034EE404A03EE032A24EE043A95ED184A68
:101A800034EE404A03EE032A24EE043A95ED194A57
:101A900034EE404A03EE032A24EE043A95ED1A4A46
:101AA00034EE404A03EE032A24EE043A95ED1B4A35
:101AB00034EE404A03EE032A24EE043A95ED1C4A24
:101AC00034EE404A03EE032A24EE043A95ED1D4A13
:101AD00034EE404A03EE032A24EE043A95ED1E4A02
:101AE00034EE404A03EE032A24EE043A95ED1F4AF1
:101AF00034EE400A03EE032A20EE000A00EE002A2C
:101B000021EE010A9FED0C1A20EE010A82EE001A66
:101B1000B8EE082AB5EE400AF1EE10FA31EE021ADC
:101B20009FED042A18BFB0EE412A84ED022A01B0CD
:101B3000F0BD00BF000000000000004200000000F7
:101B4000531E0022FFF794BA70B544F69855C2F2BE
:101B500001452B78012B09D1034600284FF00300E3
:101B600003D0002918BF002A02D170BD022070BD29
:101B700044F6B0500C46C2F201401946164600F039
:101B800033F80146281D224600F07AF83060002024
:101B900070BD00000000000010B544F6B0504BF6D8
:101BA000E801C2F20140C0F6060100F029F844F64F
:101BB00098544BF6E801C2F20144C0F60601201D1C
:101BC00000F0B2F800200121217010BD00000000DB
:101BD0000620704700000000202070470000000031
:101BE000042070470000000010B582B0041D2023BF
:101BF000062200922246FFF757FB204602B010BD96
:101C000001607047000000002DE9F0412DED068BCA
:101C100082B06A4601ABB0EE408A88460546FFF7BF
:101C2000CFFBB8F1000F17D09DED00AA2E1F9FED3E
:101C3000139A474696ED010A341D30EE4A0A28EE03
:101C4000000A14F0A9FE39EE009A013F86ED010A60
:101C50002646EFD102E000BF9FED089AB7EE000ADA
:101C600028462946424680EE090AFFF735FC0198CE
:101C700002B0BDEC068BBDE8F08100BF00000000A3
:101C8000F0B584464FF07C53C0E900331046DCF8D1
:101C9000102046F21837CCF80830CCF80C3002EBA4
:101CA000070E02F1080300220DE000BF0CEB8404D4
:101CB00096ED040A94ED001A30EE010A84ED000A54
:101CC0000132A02A22D00EEB0215EC682D6805EB3C
:101CD000850503EB8506354655F8087F013704BFB7
:101CE000F76817F10107E1D03768002FE8D401EB5E
:101CF000870796ED011A97ED000AB4EE410AF1EE5E
:101D000010FAA8BF06F10C05E0E700BF9CE88E00C2
:101D10000160B1EE040AC0E901230421C760BDE8F7
:101D2000F040FFF771BF000000220161C0E900220E
:101D3000C0E902227047000010B504464FF48472D7
:101D400021460448FEF757FB03F07EFE0149C1F827
:101D5000000110BD6821012400B97047084991EDC8
:101D6000000A80ED800A074991ED000A80ED810AA2
:101D7000054991ED000A80ED820A00BFEDE7000001
:101D80003C030024400300244403002400200949AC
:101D900008709FED090A094880ED000A9FED060AC8
:101DA000074880ED000A9FED040A064880ED000A0E
:101DB0007047000039030024000000003C030024A9
:101DC00040030024440300240148007870470000C9
:101DD0003903002401461548007808B900207047EF
:101DE000134890ED000AB5EEC00AF1EE10FA07D1E3
:101DF000104890ED000AB5EEC00AF1EE10FA01D0DD
:101E00000020ECE70C4890ED000AB5EEC00AF1EEB8
:101E100010FA06DC90ED000AB5EEC00AF1EE10FAF9
:101E200001D20120DBE70020D9E7000039030024BC
:101E300040030024440300243C0300240E4890ED9A
:101E4000000ADFED0E0AB4EEE00AF1EE10FA04DD4E
:101E50009FED0A0A80ED000A0DE0074890ED000AA8
:101E6000F2EE040AB4EEE00AF1EE10FA03D2B2EE9A
:101E7000040A80ED000A7047340300240000484241
:101E80002DE9F0410546002600270DB9BDE8F08197
:101E90007F480068401C7E49086003F0D5FD7C49FE
:101EA000486113F0D5FF04463CB979488068401C6E
:101EB00077498860002000F035F9042C57D006DC03
:101EC000012C0BD0022C21D0032C7DD138E0092C21
:101ED00064D00D2C7CD00E2CF7D1A1E001206D49EF
:101EE00008706D4890ED000A6C4880ED000A9FED87
:101EF0006C0A6C4880ED000A9FED690A6A4880ED23
:101F0000000A204600F00EF90127B8E001206149DF
:101F10000870614890ED000AB1EE400A5F4880ED1C
:101F2000000A9FED5F0A5F4880ED000A9FED5C0AA2
:101F30005D4880ED000A204600F0F4F801279EE09D
:101F40000120544908709FED560A544880ED000A5C
:101F50009FED530A534880ED000ABBEE040A524835
:101F600080ED000A204600F0DDF8012787E001201F
:101F7000484908709FED4A0A484880ED000A9FEDE5
:101F8000480A484880ED000AB3EE040A464880ED4E
:101F9000000A204600F0C6F8012770E001203D4904
:101FA00008709FED3F0A3D4880ED000A9FED3C0A16
:101FB0003C4880ED000A9FED3A0A3B4880ED000A5C
:101FC000204600F0AFF801E052E001E0012756E0C2
:101FD0002846FFF7FFFE06462F4890ED000AF2EE76
:101FE000040A30EE200A80ED000AFFF727FF96B1C1
:101FF0002A4890ED000AB5EEC00AF1EE10FA264824
:1020000090ED000AD0ED000AF1EE600A30FE200AE1
:10201000224880ED000A204600F084F801272EE0D7
:102020002846FFF7D7FE06461B4890ED000AF2EE61
:10203000040A30EE600A80ED000AFFF7FFFE96B159
:10204000164890ED000AB5EEC00AF1EE10FA1248FB
:1020500090ED000AD0ED000AF1EE600A30FE200A91
:102060000E4880ED000A204600F05CF8012706E0EB
:1020700024B10748C068401C0549C86000BF00BFC4
:102080003A462146284600F011F800BFFEE600005F
:10209000C018002439030024340300243C03002426
:1020A00000000000400300244403002470B50446EF
:1020B0000D46164616480577164890ED000A144856
:1020C00080ED080AC677B4B194F86001104981F830
:1020D0003000114890ED000A084680ED090A0F48CB
:1020E00090ED000A084680ED0A0A0D4890ED000ABE
:1020F000084680ED0B0A56B105484068401C04496B
:1021000048600846457703F09FFC0149886170BD2F
:10211000C0180024340300243C030024400300249E
:102120004403002410B504462CB900200B49087064
:102130000B49887710BD0948007884420BD02146AE
:10214000002014F047F805480470054884770069BA
:10215000401C0349086100BFECE70000380300247D
:10216000C0180024EFF3108072B67047002800D129
:1021700062B67047002807D0012807D0022807D090
:10218000032807D004A0704705A0704708A0704737
:102190000BA070470CA07047756E6B6E6F776E006A
:1021A0006F7574646F6F725F6D6172626C65000051
:1021B0006F7574646F6F725F63656D656E74000038
:1021C000696E646F6F72000061737068616C740097
:1021D00010B51C484FF44071FEF734F91A48242119
:1021E000FEF730F9184818212430FEF72BF916496C
:1021F00000200870FF224A7002220A62134C6060BD
:102200002070607000F04EF9FFF7C6FC18B100F0C6
:10221000C5F8002010BDFFF7DFFC202807D1FFF72D
:10222000D7FC062803D1FFF7DBFC042804D00320E9
:1022300000F0B4F8002010BD0120607000F002F939
:10224000012010BDB0270124B02A01240804002475
:102250002DE9F04186B004464FF0FF3001904C4E1E
:102260007078002814D0002C12D003F0EDFB054646
:1022700094F83800474F20B1606B10B1291AFA2941
:1022800009D9307810B93878022801D100F002F964
:1022900006B0BDE8F08171688842F9D021B1401ADA
:1022A000FA2801D900F0F6F8606B7060317801EB24
:1022B00041004000384B94ED000A03EB800282EDB0
:1022C000000A421C94ED010A03EB820282ED000A2F
:1022D000821C94ED020A03EB820282ED000AC21C0A
:1022E00094ED030A03EB820282ED000A021D94EDD5
:1022F000040A03EB820282ED000A401D94ED050AF8
:1023000003EB800080ED000A94ED000A03F54970AC
:1023100080ED000A94ED010A80ED010A94ED020AB5
:1023200080ED020A94ED030A80ED030A94ED040A9D
:1023300080ED040A94ED050A80ED050A491C317010
:10234000FFF710FF8046606BB8613078387700F097
:10235000A9F84046FFF70AFF3078202898D30E48A6
:1023600001AA02A9FFF7F0FB0021317050B9019BCF
:10237000002B07DB042B05DA02A92A46184600F0D9
:1023800035F885E700B9032000F008F880E7000081
:1023900008040024B02A0124B027012470B50446A3
:1023A000FFF7E0FE05460E4803210170FF21417052
:1023B0009FED0C0A80ED010A80ED020A80ED030A10
:1023C00080ED040A04620849097801770021417709
:1023D00000F068F82846BDE87040FFF7C7BE00006F
:1023E000B02A012400000000080400242DE9F04177
:1023F00005460C461746FFF7B5FE0646104B022071
:1024000018705D7094ED000A83ED010A94ED010AE5
:1024100083ED020A94ED020A83ED030A94ED030AA8
:1024200083ED040A5F610020186218770120587755
:1024300000F038F83046BDE8F041FFF797BE0000E5
:10244000B02A012410B5FFF78DFE04460E480F494F
:1024500042780AB101220A70FF224A709FED0C0AED
:1024600081ED010A81ED020A81ED030A81ED040A82
:10247000007808770020487700F014F82046BDE87F
:102480001040FFF773BE000008040024B02A0124A6
:1024900000000000024900200870FFF7D3BF0000D1
:1024A0000804002430B5254A1068401C10602448F8
:1024B00040781071A2F13C031878507193F9010033
:1024C0009071197FD171597F1172196AD160996920
:1024D0001161596951610021A2F1180404EB8105D1
:1024E00095ED000A02EB810585ED060A491C0629D7
:1024F000F4D3002103EB810494ED010A02EB810483
:1025000084ED0C0A491C0429F4D3FFF733FE0021A3
:102510005418435C84F84030435C13B1491C1429BF
:10252000F6D3002003E0531883F84000491C142917
:10253000F9D31068401C106030BD0000EC2A012463
:102540000804002470B504460D4600260CB1B61EE2
:102550000AE0C4EB4411054A02EB8100294608F069
:10256000C9FA08B16FF00306304670BD440E00246E
:1025700070B5044600250CB1AD1E2FE0204600F0DA
:1025800031F8012802D06FF0060527E0C4EB4411B2
:10259000134A02EB81000EF0B1FBFDB9C4EB44110C
:1025A0000F4A02EB81000BF0B9FE10B16FF003058A
:1025B00014E0C4EB44110A4A02EB81004FF480415D
:1025C00008F0F2F810B16FF0030507E0C4EB441116
:1025D000034A02EB8100022108F05AF8284670BD38
:1025E000440E002401466FF0050209B190107047B7
:1025F00001221046FBE700002DE9F84304460E4691
:1026000017461D464FF00008642005FB00F914B181
:102610006FF001080EE0C4EB4411084A02EB8100A0
:102620002B463A463146CDF8009008F0FBFC08B145
:102630006FF003084046BDE8F8830000440E002414
:10264000704700002DE9F84304460E4617461D4624
:102650004FF00008642005FB00F914B16FF0010889
:102660000EE0C4EB4411084A02EB81002B463A46C7
:102670003146CDF8009008F00DFE08B16FF0030868
:102680004046BDE8F8830000440E0024704710B5B2
:102690000020FFF76DFF04460CB9002010BD4FF07D
:1026A000FF30FBE710B572B60648047800200549F4
:1026B000087062B6044880F8794219F0BFFA2046E3
:1026C00010BD0000F7030024A024012410B5064823
:1026D000047800200449087014B1044880F8774257
:1026E00019F0ACFA204610BDF6030024A024012402
:1026F00003480078034981F8720201480078704766
:10270000F5030024A024012410B5532008490870C3
:1027100000200849087008490870084908700849ED
:10272000086019F0EFFA19F043FA19F087FA10BDB2
:10273000F4030024F5030024F6030024F703002427
:10274000F80300240549097809B1012100E00021BE
:102750000846034981F8730270470000F50300241E
:10276000A024012470B50C480568FFF7EBFF08B101
:1027700001240BE045B103F067F9401B40F6B83186
:10278000884201D8012000E000200446034880F878
:102790007442204670BD0000F8030024A0240124E8
:1027A0002DE9F04105460E4605B10EB9BDE8F081B0
:1027B0003146284619F08CF900275FE0EC5D32487D
:1027C000007850B9402C07D101202F490870002013
:1027D0002E4908702E4908704EE0402C08D1012087
:1027E000294908700020294908702949087043E0E8
:1027F0002748007828B30A2C10D100202549234A05
:102800001278885403F020F92349086019F02EF952
:10281000204819F005FB19F075FA11E0402C08D199
:1028200001201949087000201849087018490870DB
:1028300006E01A48C069401C1849C86119F062FADC
:102840001AE00D2C03D101201149087014E00F4843
:1028500000783F2808D20D4801780078401C0B4AC8
:1028600010700C48445406E00C488069401C0B4929
:10287000886119F047FA00BF781C87B2B7429DDB28
:1028800019F0DCF900BF91E7FD030024FC030024EC
:10289000FE0300241C270124F8030024A0240124A3
:1028A00000BFFEE70346042B15D007DC7BB1012BEC
:1028B0000ED0022B0DD0032B12D10BE0202B0BD00E
:1028C000212B0AD0222B09D0232B09D107E008E0C5
:1028D00007E006E005E004E003E002E001E000E0DC
:1028E00000BF00BF002070470020704710B50022D5
:1028F0000449054810F005FF0449034810F0F2FEB2
:10290000002010BDD03A0124F42F0124D03201243C
:1029100070B504460D46074928680860012006493D
:1029200008702146054810F0DDFE044810F0A6FEB0
:10293000002070BD6C04002468040024F42F0124DE
:1029400010B503460C460021084610BD2DE9F041A4
:1029500004460D4600260A48D0F8BC72D7F8140287
:1029600010B10120BDE8F0812A462146044810F04C
:10297000C8FE034810F078FF06463046F2E7000034
:10298000F42F012400B52DED108B89B0B0EE409BE3
:10299000B0EE41ABB0EE42BBB0EE43CB3CEE4A0BE7
:1029A0009FED361B20EE010B9FED361B80EE012BB9
:1029B000B0EE42DB9FED310B29EE000B9FED311B9A
:1029C00080EE012B8DED062B9FED2C0B2BEE000BDB
:1029D0009FED2C1B80EE012B8DED042BB0EE4D0BEB
:1029E00014F04EF9B0EE40EB9DED040B13F0D4FE65
:1029F0002EEE000B8DED020B9DED060B13F0CCFEC1
:102A0000B0EE40EB9DED040B14F03AF92EEE00EB26
:102A10009DED060B14F034F9B0EE40FB9DED040B78
:102A200013F0BAFE2FEE00FBB0EE4D0B13F0B4FE28
:102A30000FEE40EB8DED00EB9DED001B9DED020BCD
:102A400013F0AAFD9FED0F1B20EE010B9FED0B1B5A
:102A500080EE012BB0EE428BB5EEC08BF1EE10FA9A
:102A600005D29FED0A0B38EE000BB0EE408BB7EEAF
:102A7000C80B09B0BDEC108B00BD00000000006069
:102A8000FB210940000000000080664000000000BB
:102A90000080764010B52DED0E8BB0EE408BB0EE81
:102AA000419BB0EE42ABB0EE43BB3AEE480B9FED1C
:102AB000151B20EE010BB0EE40DB9FED140B28EE52
:102AC000000B9FED141B80EE012BB0EE42EBB0EE3D
:102AD0004E0B13F061FE3BEE491B9FED0A2B21EEDE
:102AE000021B20EE010BB0EE40CB2DEE0D1B0CEEC9
:102AF0000C1BB0EE410B14F0E5F9B7EEC00BBDECCA
:102B00000E8B10BD00000000802DFB400000006017
:102B1000FB21094000000000008066402DE9F041E3
:102B200004460D460CB9BDE8F08194F86001012817
:102B300003D094F86001022801D1012000E00020B8
:102B40000646012D01D0022D01D1012000E0002018
:102B5000074606B117B920460BF076FF20461AF05B
:102B6000D9FF84F86051062D01D0FFF70FF91EB987
:102B700017B120461AF0C2FF00BFD4E72DE9F84F85
:102B800007460C4690464FF00009CA46002500262D
:102B9000A346A01D00900425A7F1500010283AD2AA
:102BA000DFE800F01608190F1E2326292C2F3239D2
:102BB000393939354FF0340903254FF0400A0126E1
:102BC0002BE04FF03D0903254FF02E0A012624E0AB
:102BD0004FF0300921E04FF037094FF003081CE0B7
:102BE0004FF03A094FF0030817E04FF0410914E0A5
:102BF0004FF0450911E04FF049090EE04FF04D0943
:102C00000BE04FF0510908E04FF0550905E014487A
:102C1000D0F8009001E0BDE8F88F00BFB8F1030FD5
:102C200001D1032500265DB16A000E4901EB490080
:102C30005946FDF7E0FB294648460B4A1268904783
:102C40005EB17200074901EB4A000099FDF7D3FB22
:102C500031465046044A1268904700BFDBE7000047
:102C600034040024402C01242004002410B5024820
:102C700001F0FAFA10BD0000880C002410B50248DB
:102C800001F0F2FA10BD0000780D002410B50248E2
:102C900001F0EAFA10BD0000980B002410B50248BC
:102CA00001F0E2FA10BD0000100C002410B502483B
:102CB00001F0DAFA10BD0000000D00240146374A89
:102CC0000868904249D0354A18320868904244D08A
:102CD000324A3032086890423FD0304A4832086861
:102CE00090423AD02D4A60320868904235D02B4A43
:102CF00078320868904230D0284A90320868904272
:102D00002BD0264AA8320868904226D0244A086868
:102D1000904222D0224A1832086890421DD0204AA0
:102D200030320868904218D01D4A483208689042F4
:102D300013D01B4A6032086890420ED0184A78328D
:102D40000868904209D0164A90320868904204D030
:102D5000134AA8320868904201D1012000E0002007
:102D6000B0B10A78103A1823B2FBF3F000F0070272
:102D70000C4B9A5CCA65032805D90A686FF30902EF
:102D8000121D8A6503E00A686FF309028A6503E091
:102D9000086820F0FF008865886D704710000240C9
:102DA000100402406CBE050810B502682B4C036885
:102DB000A34222D0294C14340368A3421DD0274CCF
:102DC00028340368A34218D0244C3C340368A3423F
:102DD00013D0224C50340368A3420ED01F4C6434ED
:102DE0000368A34209D01D4C78340368A34204D081
:102DF0001A4C8C340368A34201D1012300E0002364
:102E00008BB10378083B1424B3FBF4F1144B03EBB0
:102E100081030366124B8033436601F01F040123D4
:102E2000A340836618E00378103B1824B3FBF4F149
:102E30000C4B9A4204D80B4BA83B9A4200D3083162
:102E4000094B03EB81030366074B8033436601F0B4
:102E50001F040123A340836610BD000008540258DC
:102E600000580258B8040240000802400179A9B392
:102E7000082940D8204B02689A4222D01E4B1433B6
:102E800002689A421DD01C4B283302689A4218D01F
:102E9000194B3C3302689A4213D0174B50330268E7
:102EA0009A420ED0144B643302689A4209D0124BF6
:102EB000783302689A4204D00F4B8C3302689A42EE
:102EC00001D1012200E000224AB14A1E0B4B03EB64
:102ED0008202C266094A4032026708E00BE04A1EDD
:102EE000074B03EB8202C266054A403202674A1E64
:102EF0000123934043677047085402580059025811
:102F000000090240014600208A69D2B98A6A32B1BA
:102F1000012A0DD0022A03D0032A10D10EE000BFEF
:102F2000CA6A02F08072B2F1807F00D1012007E00E
:102F3000CA6AB2F1C07F00D1012001E000E000BF09
:102F400036E08A69B2F5005F1BD18A6A32B1012A84
:102F500007D0022A03D0032A11D10AE000BF0120C2
:102F60000EE0CA6A02F08072B2F1807F00D10120C7
:102F700006E0CA6AB2F1C07F00D1012000E000BFC4
:102F800016E08A6A32B1012A05D0022A04D0032A47
:102F90000CD103E000BF00BF012008E0CA6A02F0C4
:102FA0008072B2F1807F00D1012000E000BF00BF3D
:102FB00070470000F0B5856D846D984F0668BE427D
:102FC00070D0964F18370668BE426BD0934F30379B
:102FD0000668BE4266D0914F48370668BE4261D04F
:102FE0008E4F60370668BE425CD08C4F78370668DB
:102FF000BE4257D0894F90370668BE4252D0874FA5
:10300000A8370668BE424DD0854F0668BE4249D0FB
:10301000834F18370668BE4244D0814F3037066868
:10302000BE423FD07E4F48370668BE423AD07C4F02
:1030300060370668BE4235D0794F78370668BE42A1
:1030400030D0774F90370668BE422BD0744FA837E8
:103050000668BE4226D0734F0668BE4222D0714F2A
:1030600014370668BE421DD06E4F28370668BE4230
:1030700018D06C4F3C370668BE4213D0694F5037AA
:103080000668BE420ED0674F64370668BE4209D05C
:10309000644F78370668BE4204D0624F8C370668AA
:1030A000BE4201D1012600E000263EB1D0E91976EA
:1030B0007E60C66E16B1D0E91C767E60574F0668FA
:1030C000BE4249D0554F18370668BE4244D0534FD0
:1030D00030370668BE423FD0504F48370668BE4280
:1030E0003AD04E4F60370668BE4235D04B4F7837E6
:1030F0000668BE4230D0494F90370668BE422BD09A
:10310000464FA8370668BE4226D0454F0668BE42E5
:1031100022D0434F18370668BE421DD0404F30378B
:103120000668BE4218D03E4F48370668BE4213D0EC
:103130003B4F60370668BE420ED0394F783706687D
:10314000BE4209D0364F90370668BE4204D0344F95
:10315000A8370668BE4201D1012600E00026DEB194
:1031600090F85C6006F01F073F26BE40AE60066820
:10317000366826F4802607683E60066873608668B5
:10318000402E04D10668B2600668F16044E006682B
:10319000B1600668F2603FE0224F0668BE4222D06E
:1031A000204F14370668BE421DD01E4F28370668D0
:1031B000BE4218D01B4F3C370668BE4213D0194F91
:1031C00050370668BE420ED0164F64370668BE42BE
:1031D00009D0144F78370668BE4204D0114F8C379F
:1031E0000668BE4201D1012600E00026A6B190F893
:1031F0005C6006F01F070126BE40666006687360CB
:103200008668402E04D10668B2600668F16003E06B
:103210000668B1600668F260F0BD00001000024070
:10322000100402400854025810B50446207824289F
:1032300000D010BDE078472808D12079472805D173
:103240006079412802D1E01D00F026F9E078542889
:1032500008D12079482805D16079532802D1E01D92
:1032600000F0FCF9E078482808D12079502805D1F1
:103270006079522802D1E01D00F08EF900BFD8E736
:103280007047000010B500210F4808F085FC0421AC
:103290000D4808F081FC00210C4808F07DFC042159
:1032A0000A4808F079FC0021094808F075FC04215F
:1032B000074808F071FC0021064808F06DFC042165
:1032C000044808F069FC10BDCC070024180800244D
:1032D00064080024B0080024014651B91A48006867
:1032E000406A02B20020184B1B685862504200B27C
:1032F000704701290AD115480068406A02B20020CF
:10330000124B1B685862504200B2F1E702290AD101
:103310000F480068406A02B200200D4B1B685862DB
:10332000504200B2E4E703290AD10A480068406A23
:1033300002B20020074B1B685862504200B2D7E728
:1033400000BF0020D4E70000CC07002418080024A8
:1033500064080024B008002472B600BFFEE70246ED
:103360000868B0B9D1E901031843CB6818430B6969
:1033700018434B6918438B691843CB6918430B6A90
:1033800018434B6A184313686FF30E031843106019
:1033900019E0D1E9070318434B6A1843136823F473
:1033A000F84318431060D1E901031843CB68184370
:1033B0000B6918434B6918438B69184353686FF3C3
:1033C0000E0318435060002070470246506943F6D0
:1033D000FE73984340EA410050610020704710B5E9
:1033E0000346D1E9000420438C68641E40EA44107F
:1033F000CC6840EA44201C696FF31504204318612F
:10340000002010BD30B50346FAB90868401E4C686C
:10341000641E40EA04148868401E44EA0024C86818
:10342000401E44EA0034088A401E44EA0044888A68
:10343000401E44EA0054087E401E44EA00609C6836
:1034400004F070442043986022E0C868401E0403E2
:10345000888A401E44EA00509C680E4D2C40204350
:1034600098600868401E4C68641E40EA041488682E
:10347000401E44EA0024088A401E44EA0044087EB4
:10348000401E44EA0060DC6804F070442043D860C9
:10349000002030BDFF0F0FFF30B591B0044600256E
:1034A00015E001A840F8254004E014F8011B09B913
:1034B00011B030BD20780D2D01D12A2100E02C2142
:1034C0008842F2D1002004F8010B681CC5B20E2D11
:1034D000E7DB01A840F82540019813F041F92D4899
:1034E00080ED000B029813F03BF92A4880ED020BA7
:1034F0000398007827490874049813F031F9254897
:1035000080ED060B05980078224981F82000069886
:103510000078303881F821000798FCF7E2FF1D4958
:1035200081F82200089813F01BF9B7EEC00B194878
:1035300080ED090A099813F013F9B7EEC00B15488E
:1035400080ED0A0A2C300A99FCF7A8FF0B9813F0BB
:1035500007F9B7EEC00B0F4880ED0D0A38300C9913
:10356000FCF79CFF0D9813F0FBF8B7EEC00B094871
:1035700080ED100A44300E99FCF790FF05484C305E
:103580000F99FCF78BFF02F05FFA0249486500BF14
:103590008EE70000F820012430B591B004460025E4
:1035A00015E001A840F8254004E014F8011B09B912
:1035B00011B030BD2078072D01D12A2100E02C2147
:1035C0008842F2D1002004F8010B681CC5B2082D16
:1035D000E7DB01A840F82540019813F0C1F81E4828
:1035E00080ED000B029813F0BBF8B7EEC00B1A4841
:1035F00080ED020A039813F0B3F8B7EEC00B16483B
:1036000080ED030A049813F0ABF8B7EEC00B124834
:1036100080ED040A0598007830380F49087506983F
:10362000FCF75FFF0C494875079813F099F8B7EE5F
:10363000C00B094880ED060A1C300899FCF72EFFE4
:10364000054824300999FCF729FF02F0FDF90249E9
:10365000C86200BFACE700007022012430B589B019
:103660000446002515E001A840F8254004E014F8C0
:10367000011B09B909B030BD2078012D01D12A21E3
:1036800000E02C218842F2D1002004F8010B681CD4
:10369000C5B2022DE7DB01A840F82540019813F0E0
:1036A0005FF8B7EEC00B0B4880ED000A029813F0EC
:1036B00057F8BCEEC00B10EE100A06490871054819
:1036C000401D0399FCF7EAFE02F0BEF901490861CA
:1036D00000BFCFE75021012410B5012438E04FF49A
:1036E000FA7042F0E3FD2046611CCCB20C282ED2C9
:1036F000DFE800F02D06070B0F13171B1F23272BE6
:1037000025E017A000F0B4F821E017A000F0B0F811
:103710001DE01AA000F0ACF819E01EA000F0A8F817
:1037200015E01FA000F0A4F811E020A000F0A0F820
:103730000DE021A000F09CF809E022A000F098F82C
:1037400005E00EA000F094F801E0002400BF00BFE7
:10375000002CC4D14FF4FA7042F0A8FD10BD000057
:10376000756E6C6F670D0A006D6F64652062617322
:10377000652074696D652036300D0A006D6F6465D3
:1037800020726F766572206175746F6D6F746976E3
:10379000650D0A00677067676120310D0A0000003F
:1037A000677074687320310D0A00000061677269E8
:1037B000636220310D0A0000677068707220310D5D
:1037C0000A00000073617665636F6E6669670D0AB3
:1037D000000000002DE9F04105460E460EB9BDE897
:1037E000F081002400271DE0285DAA2818D1601C64
:1037F000285C442814D1A01C285CB52810D1301BAB
:10380000B0F5007F02DD4FF4007000E0301B02468F
:1038100029191648FCF7EFFD1448FEF78DFA04E06D
:10382000601C84B2B01EA042DEDC00BF002418E0A1
:10383000285D242800D12F19002C10DD601E285C83
:103840000D280CD1285D0A2809D147B10021601E3E
:103850002954002028553846FFF7E6FC0027601C55
:1038600084B2B442E4DB00BFB9E70000A022012427
:1038700070B504462046FCF7FCFD85B2C8232A46F5
:103880002146024809F073FC70BD0000700A002454
:103890002DE9F04107460D4616464FF001080EF09F
:1038A000CFF9384600F068F8E0B90EF0C9F9BB204E
:1038B0000EF038FA012815D100240DE0681EA04250
:1038C00004D100200EF08EF9305503E001200EF0F7
:1038D00089F93055601CC4B2AC42EFDB0EF0D2F96E
:1038E0004FF000080EF0CEF94046BDE8F081000030
:1038F00010B50EF061FA00224FF40061114802F099
:1039000097F8012291020F4802F092F842F21070EB
:103910000EF0B6F800224FF480610A4802F088F8F1
:1039200009480EF0ADF801229102064802F080F835
:1039300006480EF0A5F80EF029FA44F620600EF0C5
:103940009FF810BD00200258F049020030570500D2
:1039500070B506460C460EF073F9304600F00CF8D0
:1039600028B920460EF0DEF9012800D001250EF01E
:1039700089F90025284670BD70B504460EF060F93F
:10398000BA200EF0CFF901280AD120120EF0CAF9A0
:10399000012805D1E0B20EF0C5F9012800D00125BB
:1039A0000025284670BD00000048704768210124AA
:1039B00000487047F8200124004870477022012415
:1039C00070B50A480468001D0568001D0668344487
:1039D00054B108220649204609F0CFFD04220449CB
:1039E0001031284609F0C9FD70BD000000E8F11F44
:1039F000CA0400242DE9F041044602F025F880466F
:103A000014B90120BDE8F08194F83500022808D0EF
:103A10008020606500BF002084F8340000BF0120D2
:103A2000F0E7FE492068884249D0FC4918312068F7
:103A3000884244D0F9493031206888423FD0F74964
:103A40004831206888423AD0F44960312068884281
:103A500035D0F24978312068884230D0EF49903132
:103A6000206888422BD0ED49A8312068884226D0B2
:103A7000EB492068884222D0E94918312068884201
:103A80001DD0E74930312068884218D0E4494831D8
:103A90002068884213D0E2496031206888420ED005
:103AA000DF4978312068884209D0DD4990312068AB
:103AB000884204D0DA49A8312068884201D1012027
:103AC00000E0002068B12068006820F01E00216836
:103AD00008602068406920F08000216848612568FE
:103AE00006E02068006820F00E0021680860256864
:103AF000CA492068884270D0C84918312068884275
:103B00006BD0C64930312068884266D0C3494831FD
:103B10002068884261D0C1496031206888425CD009
:103B2000BE4978312068884257D0BC49903120681E
:103B3000884252D0B949A831206888424DD0B8494E
:103B40002068884249D0B64918312068884244D05C
:103B5000B3493031206888423FD0B14948312068AC
:103B600088423AD0AE4960312068884235D0AC49AD
:103B700078312068884230D0A94990312068884245
:103B80002BD0A749A8312068884226D0A5492068B3
:103B9000884222D0A3491431206888421DD0A1490F
:103BA00028312068884218D09E493C3120688842DC
:103BB00013D09C495031206888420ED09949643115
:103BC0002068884209D0974978312068884204D01B
:103BD00094498C312068884201D1012000E0002006
:103BE00028B1206E006820F48070216E08608B4937
:103BF0002068884249D0894918312068884244D0D9
:103C000086493031206888423FD084494831206855
:103C100088423AD0814960312068884235D07F4956
:103C200078312068884230D07C49903120688842C1
:103C30002BD07A49A8312068884226D0784920685C
:103C4000884222D076491831206888421DD07449B4
:103C500030312068884218D0714948312068884244
:103C600013D06F496031206888420ED06C4978319A
:103C70002068884209D06A4990312068884204D07F
:103C80006749A8312068884206D12068006820F082
:103C900001002168086005E02068006820F001004C
:103CA0002168086011E001F0CFFEA0EB08000528B4
:103CB0000BD920206065032084F8350000BF002068
:103CC00084F8340000BF01209CE6286800F0010061
:103CD0000028E8D151492068884249D04F4918311D
:103CE0002068884244D04D493031206888423FD016
:103CF0004A494831206888423AD0484960312068B2
:103D0000884235D0454978312068884230D04349CF
:103D10009031206888422BD04049A83120688842E1
:103D200026D03F492068884222D03D49183120687A
:103D300088421DD03A4930312068884218D038492D
:103D400048312068884213D0354960312068884264
:103D50000ED0334978312068884209D030499031FB
:103D60002068884204D02E49A8312068884201D1B9
:103D7000012000E0002040B1A66D94F85C0000F046
:103D80001F013F208840B06007E0A76D94F85C00F9
:103D900000F01F0101208840786020492068884297
:103DA00076D01E4918312068884271D01B493031C5
:103DB000206888426CD0194948312068884267D011
:103DC000164960312068884262D0144978312068F1
:103DD00088425DD0114990312068884258D00F49FF
:103DE000A8312068884253D00D49206888424FD0BE
:103DF0000B491831206888424AD00949303120687F
:103E0000884245D0064948312068884240D004495C
:103E10006031206888423BD0014905E01000024033
:103E200010040240085402587831206888422FD08C
:103E30002549206888422BD02349183120688842C0
:103E400026D022492068884222D020491431206897
:103E500088421DD01D4928312068884218D01B494E
:103E60003C312068884213D018495031206888427C
:103E70000ED0164964312068884209D01349783140
:103E80002068884204D011498C312068884201D1D1
:103E9000012000E0002068B1D4E919104860E06E0C
:103EA00040B1E06E006820F48070E16E0860D4E9F3
:103EB0001C104860012084F8350000BF002084F801
:103EC000340000BF00BF9DE5A00402400854025822
:103ED00070B504460CB9012070BD94F83500022875
:103EE00003D0802060650120F6E7DC492068884225
:103EF00049D0DA4918312068884244D0D749303156
:103F0000206888423FD0D5494831206888423AD05D
:103F1000D24960312068884235D0D0497831206854
:103F2000884230D0CD499031206888422BD0CB498F
:103F3000A8312068884226D0C9492068884222D00A
:103F4000C7491831206888421DD0C54930312068E2
:103F5000884218D0C24948312068884213D0C049ED
:103F60006031206888420ED0BD497831206888428F
:103F700009D0BB4990312068884204D0B849A831A3
:103F80002068884201D1012000E00020F0B3042025
:103F900084F83500B149206888424BD0AF491831C8
:103FA0002068884246D0AD4930312068884241D0EF
:103FB000AA494831206888423CD0A849603120682D
:103FC000884237D0A54978312068884232D0A34949
:103FD0009031206888422DD0A049A83120688842BD
:103FE00028D09F492068884224D09D4918312068F4
:103FF00088421FD09A493031206888421AD09849A7
:1040000048312068884215D0954900E020E06031B1
:10401000206888420ED0924978312068884209D0C1
:104020008F4990312068884204D08D49A83120689A
:10403000884206D12068006820F0010021680860ED
:1040400009E12068006820F001002168086002E1B1
:104050002068006820F00E00216808607F49206811
:10406000884249D07D4918312068884244D07B4934
:104070003031206888423FD07849483120688842F2
:104080003AD0764960312068884235D0734978311A
:104090002068884230D071499031206888422BD006
:1040A0006E49A8312068884226D06D492068884230
:1040B00022D06B491831206888421DD068493031C0
:1040C0002068884218D0664948312068884213D059
:1040D00063496031206888420ED061497831206898
:1040E000884209D05E4990312068884204D05C49FA
:1040F000A8312068884206D12068006820F00100BD
:104100002168086005E02068006820F0010021684F
:10411000086052492068884270D0504918312068A0
:1041200088426BD04D4930312068884266D04B4977
:1041300048312068884261D048496031206888420F
:104140005CD0464978312068884257D04349903145
:104150002068884252D04149A831206888424DD019
:104160003F492068884249D03D491831206888423B
:1041700044D03B493031206888423FD038494831EB
:10418000206888423AD0364960312068884235D06C
:10419000334978312068884230D0314990312068E5
:1041A00088422BD02E49A8312068884226D02D493C
:1041B0002068884222D02B491431206888421DD0C3
:1041C000284928312068884218D026493C31206887
:1041D000884213D023495031206888420ED02149AB
:1041E00064312068884209D01E49783120688842AD
:1041F00004D01C498C312068884201D1012000E0A4
:104200000020D8B1206E006820F48070216E086014
:10421000A56D94F85C0000F01F01012088406860E3
:10422000D4E919104860E06E40B1E06E006820F4F7
:104230008070E16E0860D4E91C104860012084F8A9
:10424000350000BF002084F8340000BF206D10B19D
:104250002046216D884700203EE600001000024005
:1042600010040240085402582DE9F84F044600207B
:104270000090FE4800684FF41651B0FBF1FAA66DAD
:10428000D4F858803768D8F80090F94920688842F7
:1042900049D0F74918312068884244D0F449303178
:1042A000206888423FD0F2494831206888423AD09D
:1042B000EF4960312068884235D0ED497831206877
:1042C000884230D0EA499031206888422BD0E849B2
:1042D000A8312068884226D0E6492068884222D04A
:1042E000E4491831206888421DD0E2493031206805
:1042F000884218D0DF4948312068884213D0DD4910
:104300006031206888420ED0DA49783120688842CE
:1043100009D0D84990312068884204D0D549A831C5
:104320002068884201D1012000E0002000287DD0D3
:1043300094F85C0000F01F010820884038400028F5
:1043400068D0CB492068884249D0C94918312068D3
:10435000884244D0C6493031206888423FD0C449A1
:104360004831206888423AD0C1496031206888428B
:1043700035D0BF4978312068884230D0BC4990316F
:10438000206888422BD0BA49A8312068884226D0BC
:10439000B8492068884222D0B6491831206888423E
:1043A0001DD0B44930312068884218D0B149483115
:1043B0002068884213D0AF496031206888420ED00F
:1043C000AC4978312068884209D0AA4990312068E8
:1043D000884204D0A749A8312068884204D12068C7
:1043E000006800F0040003E02068006800F00800A6
:1043F00080B12068006820F004002168086094F80B
:104400005C0000F01F0108208840B060606D40F043
:104410000100606594F85C0000F01F0101208840F5
:104420003840E8B392492068884200E0B7E24BD0B8
:104430008F4918312068884246D08D493031206834
:10444000884241D08A494831206888423CD0884916
:1044500060312068884237D08549783120688842A9
:1044600032D083499031206888422DD08049A831CC
:104470002068884228D07F492068884224D07D491E
:104480001831206888421FD07A493031206888422C
:104490001AD0784948312068884215D0754900E023
:1044A00026E06031206888420ED072497831206859
:1044B000884209D06F4990312068884204D06D4904
:1044C000A8312068884204D12068406900F080004B
:1044D00002E020680068002050B194F85C0000F011
:1044E0001F0101208840B060606D40F002006065EF
:1044F00094F85C0000F01F01042088403840E8B3C5
:104500005B49206888424BD059491831206888425D
:1045100046D0574930312068884241D0544948310B
:10452000206888423CD0524960312068884237D0A8
:104530004F4978312068884232D04D499031206807
:1045400088422DD04A49A8312068884228D049495C
:104550002068884224D047491831206888421FD0FB
:1045600044493031206888421AD042494831206895
:10457000884215D03F496031206800E024E088423D
:104580000ED03C4978312068884209D039499031B1
:104590002068884204D03749A8312068884204D175
:1045A0002068006800F0020002E020680068002037
:1045B00050B194F85C0000F01F0104208840B06006
:1045C000606D40F00400606594F85C0000F01F012D
:1045D000102088403840E8B325492068884251D0EF
:1045E00023491831206888424CD021493031206855
:1045F000884247D01E4948312068884242D01C4931
:104600006031206888423DD019497831206888425D
:1046100038D0174990312068884233D01449A831E6
:10462000206888422ED01349206888422AD0114938
:1046300018312068884225D00E49303120688842E0
:1046400020D00C494831206888421BD0094960318C
:10465000206800E04DE0884214D006497831206897
:1046600088420FD003499031206805E0980000246B
:104670001000024010040240884203D0FE49206826
:10468000884204D12068006800F0080003E0206838
:10469000006800F0040060B394F85C0000F01F01B3
:1046A00010208840B0602068006800F4802080B14D
:1046B0002068006800F4002028B9206CC8B12046AA
:1046C000216C884715E0A06C98B12046A16C884702
:1046D0000FE02068006800F4807028B92068006846
:1046E00020F0080021680860206C10B12046216C81
:1046F000884794F85C0000F01F0120208840384073
:1047000000287DD0DD492068884249D0DB49183136
:104710002068884244D0D9493031206888423FD04F
:10472000D6494831206888423AD0D449603120685F
:10473000884235D0D14978312068884230D0CF497D
:104740009031206888422BD0CC49A831206888421B
:1047500026D0C949A8392068884221D0C649903955
:10476000206888421CD0C44978392068884217D014
:10477000C14960392068884212D0BF494839206851
:1047800088420DD0BC4930392068884208D0BA49E7
:1047900018392068884203D0B7492068884204D17C
:1047A0002068006800F0100003E02068006800F056
:1047B000020028B394F85C0000F01F01202088401C
:1047C000B06094F8350004282DD12068006820F0EE
:1047D0001600216808602068406920F08000216888
:1047E0004861206C08B9A06C28B12068006820F0EE
:1047F00008002168086094F85C0000F01F0100E0E8
:104800003FE03F208840B060012084F8350000BFC1
:10481000002084F8340000BF206D10B12046216DC7
:104820008847BDE8F88F2068006800F4802080B1D8
:104830002068006800F4002028B9606C08B32046A6
:10484000616C88471DE0E06BD8B12046E16B88477A
:1048500017E02068006800F4807068B9206800687C
:1048600020F0100021680860012084F8350000BFA6
:10487000002084F8340000BFE06B10B12046E16BEB
:104880008847606D00287AD0606D00F00100E8B3C1
:10489000042084F835007949206888424BD0774954
:1048A00018312068884246D07449303120688842E7
:1048B00041D072494831206888423CD06F4960310C
:1048C0002068884237D06D4978312068884232D0DC
:1048D0006A499031206888422DD06849A831206803
:1048E000884228D06449A8392068884223D0624988
:1048F0009039206888421ED05F4978392068884204
:1049000019D05D4960392068884200E040E012D04B
:1049100059494839206888420DD0574930392068B4
:10492000884208D0544918392068884203D0524937
:104930002068884206D12068006820F001002168C4
:10494000086005E02068006820F001002168086028
:1049500000BF0098401C0090504500D905E0206839
:10496000006800F001000028F3D100BF2068006853
:1049700000F0010020B1032084F8350003E00DE0D1
:10498000012084F8350000BF002084F8340000BF07
:10499000E06C002802D02046E16C8847D9E1384914
:1049A0002068884222D036491431206888421DD0C0
:1049B000334928312068884218D031493C31206879
:1049C000884213D02E495031206888420ED02C499D
:1049D00064312068884209D02949783120688842AA
:1049E00004D027498C312068884201D1012000E0A1
:1049F00000200028D2D02068056894F85C0000F000
:104A00001F010420884000EA0900D8B305F0040023
:104A1000C0B394F85C0000F01F0104208840C8F87F
:104A2000040005F4004080B105F4803030B9A06C7A
:104A30000028B3D02046A16C88478AE1206C00286A
:104A4000ACD02046216C884783E105F02000E8BB0C
:104A50000A492068884253D00849183120688842A2
:104A60004ED0064930312068884249D00349483148
:104A70002068884244D006E0B8040240100002409A
:104A8000085402584FE0B44960312068884237D05A
:104A9000B14978312068884232D0AF4990312068DE
:104AA00088422DD0AC49A8312068884228D0AB4933
:104AB0002068884224D0A9491831206888421FD034
:104AC000A6493031206888421AD000E025E0A34989
:104AD00048312068884213D0A0496031206888425C
:104AE0000ED09E4978312068884209D09B49903188
:104AF0002068884204D09949A8312068884206D1AC
:104B00002068006820F008002168086005E020683F
:104B1000006820F0040021680860206C10B3204673
:104B2000216C884715E194F85C0000F01F01022019
:104B3000884000EA0900E8B305F00200D0B394F819
:104B40005C0000F01F0102208840C8F8040005F452
:104B5000004070B105F4803028B9606C10B1204677
:104B6000616C8847F5E0E06BF0B32046E16B884765
:104B7000EFE005F02000C0BB7749206888424ED0A6
:104B8000754918312068884249D07349303120680E
:104B9000884244D070494831206888423FD06E49ED
:104BA0006031206888423AD06B4978312068884269
:104BB00035D000E04EE068499031206888422ED020
:104BC0006549A8312068884229D064492068884214
:104BD00025D0624918312068884220D05F493031A1
:104BE000206888421BD001E06EE02DE05B4948312F
:104BF0002068884213D059496031206888420ED01D
:104C0000564978312068884209D05449903120684B
:104C1000884204D05149A8312068884206D12068D2
:104C2000006820F014002168086005E02068006832
:104C300020F00A0021680860012084F8350000BFD8
:104C4000002084F8340000BFE06BE8B32046E16B3D
:104C500088477EE094F85C0000F01F01082088403F
:104C600000EA090080B305F0080068B33A492068FB
:104C700088424BD0384918312068884246D036499E
:104C800030312068884241D0334948312068884219
:104C90003CD0314960312068884237D02E49783184
:104CA0002068884232D02C499031206888422DD02B
:104CB0002949A8312068884228D02849206888429C
:104CC00024D02649183100E043E0206888421DD0F6
:104CD000224930312068884218D020494831206864
:104CE000884213D01D496031206888420ED01B498C
:104CF00078312068884209D018499031206888426C
:104D000004D01649A8312068884206D1206800687E
:104D100020F01C002168086005E02068006820F091
:104D20000E002168086094F85C0000F01F0101206B
:104D30008840C8F804000120606584F8350000BF91
:104D4000002084F8340000BFE06C10B12046E16C14
:104D5000884700BF65E500001000024010040240D3
:104D60002DE9F041044600F06FFE804614B90120A1
:104D7000BDE8F081FE492068884249D0FC491831DD
:104D80002068884244D0FA493031206888423FD0B8
:104D9000F7494831206888423AD0F54960312068A7
:104DA000884235D0F24978312068884230D0F049C5
:104DB0009031206888422BD0ED49A8312068884284
:104DC00026D0EC492068884222D0EA491831206870
:104DD00088421DD0E74930312068884218D0E54923
:104DE00048312068884213D0E24960312068884207
:104DF0000ED0E04978312068884209D0DD499031F1
:104E00002068884204D0DB49A8312068884201D15B
:104E1000012000E00020002873D0606A00B100BFCC
:104E2000022084F8350000BF002084F8340000BF61
:104E3000CF492068884249D0CD491831206888423E
:104E400044D0CB493031206888423FD0C8494831EE
:104E5000206888423AD0C64960312068884235D0FF
:104E6000C34978312068884230D0C14990312068E8
:104E700088422BD0BE49A8312068884226D0BD493F
:104E80002068884222D0BB491831206888421DD052
:104E9000B84930312068884218D0B6494831206876
:104EA000884213D0B3496031206888420ED0B1499E
:104EB00078312068884209D0AE4990312068884214
:104EC00004D0AC49A8312068884206D12068006827
:104ED00020F001002168086005E02068006820F0EB
:104EE0000100216808600DE000F0AEFDA0EB0800B5
:104EF000052807D920206065032084F835000120AB
:104F000036E76AE02068006800F001000028EBD175
:104F10002068056898480540D4E9020108432169E2
:104F2000084361690843A1690843E1690843216AAC
:104F300008430543606A042803D1D4E90B01084300
:104F400005438E4800686FF30F00B0F1005F1DD37A
:104F50006068292802D360682E2811D960683F282C
:104F600002D3606842280BD96068472802D3606882
:104F7000482805D960684F2804D36068522801D8B2
:104F8000012000E0002008B145F48015206805608C
:104F90002068456925F00705606A0543606A0428B2
:104FA0000DD1A06A0543E06A48B12046FDF7AAFF8B
:104FB00028B140206065012084F83500D8E62068DB
:104FC00045612046FDF77AFE064694F85C0000F045
:104FD0001F013F208840B0609EE0694920688842F8
:104FE00022D067491431206888421DD06449283195
:104FF0002068884218D062493C312068884213D02A
:105000005F495031206888420ED05D496431206884
:10501000884209D05A4978312068884204D05849DA
:105020008C312068884201D1012000E00020E0B3EB
:1050300053492068884222D051491431206888425F
:105040001DD04F4928312068884218D04C493C3146
:105050002068884213D04A495031206888420ED0D7
:10506000474964312068884209D045497831206831
:10507000884204D042498C312068884201D1012005
:1050800000E0002000B100BF022084F8350000BF1E
:10509000002084F8340000BF2068056839480540C6
:1050A000A068402802D1102106E02EE0A0688028E8
:1050B00001D1C10100E00021E06841EAD00120698E
:1050C00041EAD001606941EAD001A06941EAD0011A
:1050D000E06941EAD001206A41EA101005432068E6
:1050E000056027492068401A1421B0FBF1F08000C8
:1050F000E0652046FDF7E2FD074694F85C0000F00D
:105100001F0101208840786006E040206065032090
:1051100084F8350001202BE61549206888427FD0AD
:1051200013491831206888427AD0114930312068FB
:10513000884275D00E4948312068884270D00C49A9
:105140006031206888426BD00949783120688842F4
:1051500066D0074990312068884261D00449A8315F
:10516000206888425CD003492068884258D00BE010
:1051700010000240100402403F8010FE0010005C4E
:10518000085402580F00FEFF3B491831206888423E
:1051900046D0394930312068884241D036494831BB
:1051A000206888423CD0344960312068884237D03A
:1051B000314978312068884232D02F4990312068B7
:1051C00088422DD02C49A8312068884228D02B490C
:1051D0002068884224D029491431206888421FD091
:1051E00026492831206888421AD024493C31206859
:1051F000884215D0214950312068884210D01F497B
:105200006431206888420BD01C497831206888427C
:1052100006D01A498C312068884200E000E001D1B4
:10522000012000E0002000B32046FDF7BDFDA0688E
:10523000802801D1002060602079216E0860D4E9C7
:1052400019104860606860B16068082809D8204675
:10525000FDF70CFE0020E16E0860D4E91C104860E8
:1052600003E00020E06620676067002060650120A1
:1052700084F8350000207BE51004024008540258F1
:105280002DE9F04104460D4616461F464FF0000832
:1052900014B90120BDE8F08100BF94F83400012862
:1052A00001D10220F6E7012084F8340000BF94F811
:1052B000350001287ED1022084F835000020606589
:1052C000E4492068884249D0E24918312068884280
:1052D00044D0E0493031206888423FD0DD49483130
:1052E000206888423AD0DB4960312068884235D056
:1052F000D84978312068884230D0D649903120682A
:1053000088422BD0D349A8312068884226D0D24980
:105310002068884222D0D0491831206888421DD0A8
:10532000CD4930312068884218D0CB4948312068B7
:10533000884213D0C8496031206888420ED0C649DF
:1053400078312068884209D0C3499031206888426A
:1053500004D0C149A8312068884206D1206800687D
:1053600020F001002168086005E02068006820F056
:105370000100216808603B46324629462046FDF779
:1053800019FEB449206888424BD0B24918312068D0
:10539000884246D0AF4930312068884241D0AD497B
:1053A0004831206888423CD0AA4960312068884250
:1053B00037D000E042E1A74978312068884230D0F8
:1053C000A4499031206888422BD0A249A831206896
:1053D000884226D0A0492068884222D09E491831B0
:1053E000206888421DD09C4930312068884218D0FE
:1053F000994948312068884213D097496031206824
:1054000088420ED0944978312068884209D0924968
:1054100090312068884204D08F49A83120688842A2
:1054200001D1012000E0002080B12068006820F058
:105430001E0040F0160021680860206CB0B12068A2
:10544000006840F00800216808600FE020680068EC
:1054500020F00E0040F00A0021680860206C28B19E
:105460002068006840F004002168086079492068DD
:10547000884270D077491831206888426BD07549CE
:1054800030312068884266D07249483120688842AD
:1054900061D070496031206888425CD06D497831B4
:1054A0002068884257D06B4990312068884252D09A
:1054B0006849A831206888424DD0674920688842F1
:1054C00049D0654918312068884244D0624930315A
:1054D000206888423FD060494831206888423AD0ED
:1054E0005D4960312068884235D05B497831206859
:1054F000884230D058499031206888422BD0564994
:10550000A8312068884226D054492068884222D099
:1055100052491431206888421DD0504928312068F2
:10552000884218D04D493C312068884213D04B49FD
:105530005031206888420ED0484964312068884242
:1055400009D0464978312068884204D043498C31DB
:105550002068884201D1012000E0002090B1206E37
:10556000006800F4803028B1206E006840F480703C
:10557000216E0860E06E28B1E06E006840F4807033
:10558000E16E086033492068884249D031491831BA
:105590002068884244D02F493031206888423FD06B
:1055A0002C494831206888423AD02A496031206825
:1055B000884235D0274978312068884230D0254943
:1055C0009031206888422BD02249A8312068884237
:1055D00026D021492068884222D01F4918312068EE
:1055E00088421DD01C4930312068884218D01A49A1
:1055F00048312068884213D01749603120688842BA
:105600000ED0154978312068884209D0124990316E
:105610002068884204D01049A8312068884206D109
:105620002068006840F001002168086010E02068F0
:10563000006840F001002168086009E04FF4006054
:10564000606500BF002084F8340000BF4FF00108FF
:1056500040461FE610000240100402400854025861
:1056600070B5044600F0F0F906462546681C10B1F6
:1056700004480078054400BF00F0E6F9801BA8420A
:10568000FAD370BDA800002400B587B0142102A889
:10569000FAF7D8FE00BF5C48006840F480505A49D1
:1056A00008600846006800F48050019000BF00BF09
:1056B00000BF55480C30006840F0040052490C31DE
:1056C00008600846006800F00400019000BF00BFB9
:1056D00000BF0846006840F00800086008460068FF
:1056E00000F00800019000BF00BF00BF084600683E
:1056F00040F0100008600846006800F010000190BB
:1057000000BF00BF00BF0846006840F020000860EE
:105710000846006800F02000019000BF00BF00BFF5
:105720000846006840F0400008600846006800F045
:105730004000019000BF00BF00BF0846006840F075
:10574000800008600846006800F08000019000BFFB
:1057500000BF4FF63F00029002200390002004900B
:10576000032005900C20069002A9284800F05AF862
:105770000C2002900220039000200490032005904A
:105780000C20069002A9224800F04CF848F237108D
:1057900002900220039000200490032005900C202A
:1057A000069002A91B4800F03DF84FF68370029066
:1057B0000220039000200490032005900C20069006
:1057C00002A9154800F02EF84CF203700290022056
:1057D000039000200490032005900C20069002A95D
:1057E0000E4800F01FF801200290022003900020D4
:1057F0000490032005900C20069002A9084800F0B0
:1058000011F807B000BD0000D4440258001402583B
:10581000001C02580018025800100258000C0258D0
:1058200000080258F8B502460B4600216F4DD7E03C
:1058300001278F401E6806EA0704002C72D01E79EB
:1058400006F00306012E04D01E7906F00306022E90
:1058500013D190684F000326BE40B0434F00DE686E
:10586000BE4030439060506801268E40B0431E79A0
:10587000C6F300168E40304350601E7906F00306D2
:10588000032E09D0D0684F000326BE40B0434F001E
:105890009E68BE403043D0601E7906F00306022E9B
:1058A00013D1CF0802F1200656F827004E07F70E55
:1058B0000F26BE40B0434F07FF0E1E69BE40304367
:1058C000CF0802F1200646F8270010684F00032693
:1058D000BE40B0431E7906F003064F00BE40304381
:1058E00010605E6806F44036002E78D000BF404E4F
:1058F000366846F002063E4F3E603E46366806F089
:105900000206009600BF00BF3A4E8F0856F82700E7
:105910008E07370F0F26BE40B043374EB24202D13A
:1059200000262EE05BE0354EB24201D1012628E090
:10593000334EB24201D1022623E0324EB24201D1AF
:1059400003261EE0304EB24201D1042619E02F4E4C
:10595000B24201D1052614E02D4EB24201D10626F5
:105960000FE02C4EB24201D107260AE02A4EB24285
:1059700001D1082605E0294EB24201D1092600E0F6
:105980000A268F073F0FBE4030431A4E8F0846F855
:1059900027004FF0B0463068A0435E6806F48016DA
:1059A00006B120434FF0B04630607068A0435E6897
:1059B00006F4001606B120434FF0B04670606868E8
:1059C000A0435E6806F4003606B12043686028688C
:1059D000A0435E6806F4803606B120432860491C67
:1059E0001E68CE40002E7FF423AFF8BD8000005823
:1059F000F4440258080400580000025800040258F9
:105A000000080258000C02580010025800140258F6
:105A100000180258001C02580020025800240258A6
:105A2000024613690B400BB1012000E000207047D3
:105A30000AB1816101E00B0483617047014800688D
:105A4000000C70470010005C0148006870470000BF
:105A5000A0000024024692F8410020282DD100BF6A
:105A600092F84000012801D102207047012082F8FD
:105A7000400000BF242082F841001068006820F038
:105A80000100136818601068006820F480501368E3
:105A90001860106800680843136818601068006890
:105AA00040F0010013681860202082F8410000BF18
:105AB000002082F8400000BFD7E70220D5E710B5EC
:105AC00002460B4692F8410020282AD100BF92F8E6
:105AD0004000012801D1022010BD012082F84000C1
