:020000040800F2
:10000000204C0124710300081DDE000845C40008CF
:1000100079DC00089D160008FD5201080000000070
:10002000000000000000000000000000B102000815
:1000300045200008000000000D0300089707010894
:100040008B0300088B0300088B0300088B03000858
:100050008B0300088B0300088B0300088B03000848
:100060008B0300088B0300088B030008311A00087B
:10007000411A0008511A0008611A0008711A000894
:100080008B0300088B0300088B0300088B03000818
:100090008B0300088B0300088B0300088B03000808
:1000A0008B0300088B0300088B0300088B030008F8
:1000B0008B0300088B0300088B0300088B030008E8
:1000C0008B0300088B0300088B0300088B030008D8
:1000D0008B030008B1280108C12801088B03000820
:1000E0008B0300088B030008000000008B0300084E
:1000F0008B0300088B0300088B0300088B030008A8
:100100008B03000801F600088B0300088B0300082E
:10011000DD1301088B0300088B0300088B03000824
:100120008B0300088B0300088B0300088B03000877
:100130008B0300088B0300088B0300088B03000867
:1001400000000000000000000000000000000000AF
:100150008B0300088B0300088B030008D1280108DB
:100160008B0300088B0300088B0300088B03000837
:100170008B0300088B0300088B03000800000000BD
:100180008B0300088B0300088B0300088B03000817
:100190008B0300088B0300088B0300088B03000807
:1001A000EDCD00088B0300088B0300088B030008CB
:1001B0008B0300088B0300088B0300088B030008E7
:1001C0008B0300088B0300088B0300088B030008D7
:1001D0008B03000885E400088B0300088B030008EC
:1001E0008B0300088B0300088B0300088B030008B7
:1001F0008B0300088B0300088B0300088B030008A7
:100200008B0300088B0300088B0300088B03000896
:100210008B0300088B030008390A01088B030008D0
:100220008B0300088B0300088B030008000000000C
:100230008B0300088B030008000000008B030008FC
:100240008B0300088B0300088B0300088B03000856
:100250008B0300088B0300088B0300088B03000846
:100260008B0300088B0300088B0300088B03000836
:100270008B0300088B0300088B03000800000000BC
:100280008B0300088B0300088B03000800000000AC
:10029000000000008B030008DFF810D000F0AEFB78
:1002A00000480047C9260408AFF30080204C012411
:1002B0002C4B19680868B0E8F04F80F30988BFF349
:1002C0006F8F4FF0000080F311887047000000002E
:1002D00008480068006880F308884FF0000080F349
:1002E000148862B661B6BFF34F8FBFF36F8F00DF24
:1002F00000BF00BF08ED00E0DFF80C00016841F42A
:1003000070010160704700BF88ED00E0EFF30980E5
:10031000BFF36F8F134B1A681EF0100F08BF20ED4C
:10032000108A20E9F04F106009B44FF0500080F3BC
:100330001188BFF34F8FBFF36F8F4AF0D1FE4FF09C
:10034000000080F3118809BC19680868B0E8F04F14
:100350001EF0100F08BFB0EC108A80F30988BFF3BD
:100360006F8F704700030024EFF305807047000093
:100370000648804706480047FEE7FEE7FEE7FEE73F
:10038000FEE7FEE7FEE7FEE7FEE7FEE73D090108C0
:10039000990200082DE9F05F0546002092469B4631
:1003A00088460646814640241BE02846414647468B
:1003B000224600F0D4F853465A46C01A914110D351
:1003C00011461846224600F0BBF82D1A67EB0108CB
:1003D0004F4622460120002100F0B2F817EB000939
:1003E0004E41201EA4F10104DFDC484631462A4676
:1003F0004346BDE8F09F10B5431A934209D28318D3
:10040000881803E010F8011D03F8011D521EF9D2EF
:1004100010BD40EA01039B0703D009E008C9121F81
:1004200008C0042AFAD203E011F8013B00F8013BAE
:10043000521EF9D210BDD2B201E000F8012B491EC4
:10044000FBD270470022F6E710B513460A46044671
:100450001946FFF7F0FF204610BD421E12F8013F7B
:10046000002BFBD111F8013B02F8013B002BF9D125
:10047000704710B5044604E00B7800F8013B03B167
:10048000491C521EF8D2204610BD421C10F8011B18
:100490000029FBD1801A704710B5002200E0521CE1
:1004A000835C8C5CA34201D1002BF8D1D8B2E1B2BD
:1004B000401A10BD034611F8012B00F8012B002A49
:1004C000F9D11846704730B505460020034600E0D4
:1004D0005B1C934205D2EC5CC85C201A01D1002C55
:1004E000F6D130BD0022CBB20178994200D102464C
:1004F000401C0029F8D11046704770B5064615F02B
:10050000E5FA046805460A220021304600F086F824
:100510002C6070BD30B50B4601460020202201241E
:1005200009E021FA02F59D4205D303FA02F5491BC1
:1005300004FA02F52844151EA2F10102F1DC30BDD7
:10054000202A04DB203A00FA02F100207047914093
:10055000C2F1200320FA03F3194390407047202A88
:1005600004DB203A21FA02F00021704721FA02F35D
:10057000D040C2F120029140084319467047000064
:100580000FB4002300B589B00CA900910B996FF04E
:100590000042CB601E4B06931E4B07930423CDE90C
:1005A00001321D4A089202466B46002000F0ECFA28
:1005B00009B05DF814FB70B586B006464FF0FF3009
:1005C0000091CDE90101002015460C460490324609
:1005D000694604A8FFF7D4FF02460498211825B104
:1005E00008B1084600E020462860049800280DD095
:1005F000002A02DD0098884208D0081B0094CDE94B
:1006000001043246694604A8FFF7BAFF06B070BD80
:10061000C10D0008DF0D00084D0A00082DE9F04764
:1006200091460F4680460446002614F8015B2DB122
:1006300000F008FA0068405DC007F6D12B2D02D00B
:100640002D2D18D0641E4A463946204600F0D8FBAE
:1006500027B13968A14201D1C7F8008071054FF078
:1006600002040BD54042002803DD15F02FFA046088
:10067000A007BDE8F08746F48066E4E70028F8DAD2
:1006800015F024FA04606FF00040F2E72DE9FE4F08
:10069000804681EA0300C00F0C46009021F0004123
:1006A00023F00045B8EB0200A94105D2404621469F
:1006B00090461C460B46024623F00040104347D0AC
:1006C000270DC7F30A00C3F30A510290401A0190A4
:1006D00040286BDAC3F3130040F4801B0098924665
:1006E00020B10023D2EB030A63EB0B0B01985946B0
:1006F000C0F140025046FFF723FF06460D46504624
:100700005946019A00F08CF910EB08006141002471
:1007100087EA115284EAE7731A4340D0009A62B321
:10072000019A012A4FEA075215DC001B61EB020116
:100730004FF0004202EA0752CDE90042001C41F5A9
:10074000801132462B4600F0B9FB03B0BDE8F08FB4
:1007500040462146F9E7001B61EB0201001C41F510
:10076000801300185B412018A2F5001747EB030126
:1007700040EAD570B6196D4111E06D084FEA3606B2
:1007800045EAC0754FEA0752001B61EB0201001CED
:1007900041F5801149084FEA3000001951413246B5
:1007A0002B4603B0BDE8F04F00F079BB0098012262
:1007B00040000023D0EB020263EBE0730098214677
:1007C0004FEAE074B8EB000061EB0401E9E783F065
:1007D00000435BE781F0004158E72DE9FE4F81EAD5
:1007E000030404F0004421F0004100944FF0000B9A
:1007F00023F0004350EA01045ED052EA03045BD0C8
:10080000C3F30A54C1F30A552C44A4F2F3340194FF
:10081000A0FB0254C1F3130141F48011C3F313038D
:1008200043F4801301FB024400FB034E840A970A41
:1008300044EA815447EA8357A4FB076802958D0A6E
:1008400005FB07854FEA932C04FB0C542705029DFA
:100850004FEA065847EA1637B5EB08056EEB070C6A
:10086000870E920E47EA811742EA8312A7FB020124
:10087000B6EB0B0164EB00042B0D43EA0C335E185E
:1008800044EB1C50DA465146E7FB0201C5F3130462
:100890004FEA0B3343EA14534FEA0432019C43EA14
:1008A0000603A4F10C040294009CCDE900B400F00E
:1008B00005FB03B0BDE8F08F00200146F9E72DE904
:1008C000F04D81EA030404F0004B21F0004514468A
:1008D0004FF0000A23F0004150EA050220D054EA0C
:1008E00001021DD0C5F30A570246C5F31303C1F335
:1008F0001300C1F30A5640F4801543F48013A7EBAC
:100900000608101BD64608F2FD3873EB050002D32B
:1009100008F1010801E092185B41B8F1000F03DA19
:1009200000200146BDE8F08D00204FF480110646FE
:1009300084460EE0171B73EB050705D3121B63EB10
:10094000050306434CEA010C49084FEA30009218AF
:100950005B4150EA0107EDD152EA030012D082EA6E
:10096000040083EA0501084305D0101BAB4106D201
:100970000122002306E000224FF0004302E06FF066
:10098000010253101AEB06004CEB085110EB0A0061
:1009900041EB0B01BDE8F04D00F081BAC1F30A5202
:1009A000C1F3130140F2FF3341F480119A4202DA9D
:1009B00000200146704740F233439A42A2F233428C
:1009C00002DC5242FFF7CBBDFFF7BABD30B5041EC3
:1009D00071F1000404DB4FF00044404264EB01017C
:1009E000141E73F1000405DB1C464FF00043524215
:1009F00063EB0403994208BF904230BD064C074D9B
:100A000006E0E06840F0010394E8070098471034DE
:100A1000AC42F6D3FFF744FC607306088073060807
:100A2000202A06DBCB17203A41FA02F043EAE073B2
:100A300006E041FA02F3D040C2F12002914008439F
:100A40001946704700487047F46D060810B5044613
:100A5000FFF7F8FF0068005D00F0010010BD000026
:100A60002DE9FF4F087883B09946FF2805D0491C2F
:100A70002D2804D00024002008E000200BE00124F1
:100A8000F9E700EB800003EB4000491C0B78FF2BDB
:100A9000F7D104B1404200230293147819461D4651
:100AA0002D2C01D02B2C04D1521C2D2C13D0002422
:100AB0000294AA461478FF2C0FD00A25A3FB0578D0
:100AC00001FB05814FF0000C03FB0C11521CE319D4
:100AD0004AEB0101EEE70124EAE7814453EA010011
:100AE00002D019F5C87F06DA03980021C0E9001189
:100AF00007B0BDE8F08F0025AE4E2F46DFF8B88274
:100B0000184600F037FACDE90001B9F1000002DA29
:100B1000C9F1000400E004460023A74A1AEB030BC6
:100B200042EB045A12E0E00707D02A463346384623
:100B30004146FFF752FE074688462A46334610468E
:100B40001946FFF74AFE05460E466410002CEAD10E
:100B5000DDE90001B9F1000F5A46534606DAFFF706
:100B6000AEFE3A464346FFF7AAFE05E0FFF735FE24
:100B70003A464346FFF731FE029A0AB181F000413E
:100B8000039AC2E90001B3E72DE9FF4F1F468DB07C
:100B9000D7E901464FF0FF382E2045464FF00009B7
:100BA0000B90B9696D1C0E988847396A8246884750
:100BB0000028F6D1BAF1FF3F0AD024F4D064002E09
:100BC00011DDBAF12B0F08D0BAF12D0F0BD102E0D5
:100BD000404611B08DE744F48064B9696D1C0E98ED
:100BE00088478246761E6946600501D52D2000E0C3
:100BF0002B208DF8000001F1010B0DF1200809E018
:100C0000B9696D1C0E98884782460F9844F40074A9
:100C1000761E0560002E02DDBAF1300FF0D00B9980
:100C20008A453ED144F0800406E00F99681CA9F182
:100C3000010944F400740860B9696D1C761E0E98B1
:100C4000884782463028F0D02BE00B998A4505D1A1
:100C5000200603D444F08004761E18E0504616F0B7
:100C60006EF808B30DF11301761E44F400748B4541
:100C700008D2AAF130000BF8010B200607D5A9F124
:100C8000010003E0200602D409F101008146A0051D
:100C900002D50F99681C0860B9696D1C0E988847C9
:100CA0008246002ED1DC53E0002E51DDBAF1650FF3
:100CB00002D0BAF1450F4BD1A00549D5B9696D1CD9
:100CC00024F44074761E0E9888478246002E0CDD70
:100CD0002B2804D0BAF12D0F07D144F48074B969E0
:100CE0006D1C0E9888478246761EE00501D52D21A1
:100CF00000E02B2108F8011BCDF82C8021E00DF13C
:100D00002901761E44F4007488450CD2AAF1300003
:100D100010F0FF0088F8000002D10B99884509D92E
:100D200008F1010806E0E00501D5244801E042F29F
:100D30000F708146B9696D1C0E98884782460F98DE
:100D40000560002E04DD504615F0F9FF0028D6D1CD
:100D5000F9690E988847FF208BF8000088F800009A
:100D60000020069007904B466A4608A906A8FFF7A0
:100D700077FEA00502D46FF001002AE714F0240FDB
:100D80000AD0E00714D1DDE906123868031D3B6084
:100D90000068C0E900120BE0DDE9060100F0F6F89A
:100DA0000146E00704D13868021D3A60006801601E
:100DB00028460EE7000014400000F03FF1D8FFFF86
:100DC000426842B1016811F8013B23B1521EC0E9EB
:100DD0000012184670470121C160881E70474268A2
:100DE0005AB1C368016843B983688B4205D0491E74
:100DF000521CC0E90012002070474FF0FF307047CE
:100E00002DE9F05F82460078002715468B460AF1EF
:100E10000104B946302801D09DB113E014F8010B4C
:100E20000127782803D0582801D045B10AE00DB138
:100E3000102D07D10027102514F8010B02E008251A
:100E400000E00A250026B0460EE005FB080005FB81
:100E500006F1012701EB10461FFA80F8B6F5803F36
:100E600000D3B94614F8010B294600F075F80028A4
:100E7000EBDABBF1000F05D00FB1641E00E0544661
:100E8000CBF80040B9F1000F06D014F01FFE02218C
:100E90000160C81EBDE8F09F48EA0640FAE710B5B9
:100EA000141E73F1000408DA401C41F1000192188D
:100EB0005B411A4301D120F0010010BD2DE9F04D36
:100EC00092469B4611B1B1FA81F202E0B0FA80F28B
:100ED00020329046FFF734FB04460F4640EA0A00F2
:100EE00041EA0B0153465A46084313D0114653EAD0
:100EF000010019D0C8F140025046FFF730FB05460B
:100F00000E46504659464246FFF71AFB084305D0A5
:100F1000012004E020463946BDE8F08D002005435D
:100F200046EAE0762C4337430A986305E40AA0EBCF
:100F300008000022FD0A44EA47540A3002D5002086
:100F40000146E9E7010510196941DDE90845001985
:100F50006941BDE8F04DA2E73A2800D2303820F0D0
:100F60002002412A01D3A2F13700884201D34FF079
:100F7000FF3070470EB540F2334202920022CDE9B5
:100F800000221346FFF79AFF03B000BD01F00043B3
:100F900030B421F0004150EA010206D00A0DA2F55A
:100FA0006072C1F31301002A02DC30BC00207047DC
:100FB000440F44EAC104C100E01830BC00EBC25049
:100FC000AFF300800029A8BF7047401C490008BF4C
:100FD00020F00100704710B4B0FA80FC00FA0CF069
:100FE00050EA010404BF10BC704749B1CCF12004A1
:100FF00021FA04F411FA0CF118BF0121214308432E
:10100000A3EB0C01CB1D4FEA00614FEA102042BF59
:10101000002010BC704700EBC35010440029A4BF4F
:1010200010BC7047401C490008BF20F0010010BCF4
:10103000704770B58C1810F8015B15F0070301D1EB
:1010400010F8013B2A1106D110F8012B03E010F82B
:10105000016B01F8016B5B1EF9D12B0705D400234E
:10106000521E0DD401F8013BFAE710F8013BCB1AF0
:10107000921C03E013F8015B01F8015B521EF9D5E5
:10108000A142D8D3002070BD10B504464FF4807241
:1010900021460248FFF7AFF910BD0000E01F012410
:1010A000014691F85801042801D00020704791EDC5
:1010B0005F0AB5EEC00AF1EE10FA06D191ED600AB2
:1010C000B5EEC00AF1EE10FA01D00020EEE791ED86
:1010D0005E0AB5EEC00AF1EE10FA06DC91ED5E0A8A
:1010E000B5EEC00AF1EE10FA01D20120DEE70020D1
:1010F000DCE700000E4890ED000ADFED0E0AB4EECA
:10110000E00AF1EE10FA04DD9FED0A0A80ED000A14
:101110000DE0074890ED000AF2EE040AB4EEE00A92
:10112000F1EE10FA03D2B2EE040A80ED000A704725
:10113000F8020024000048422DE9F0410446002650
:1011400000270CB9BDE8F08175480068401C74495F
:10115000086003F055FB7249486114F001FA054636
:101160003DB96F488068401C6D498860002000F0E0
:101170000FF9042D4ED006DC012D0BD0022D1ED010
:10118000032D6FD132E0092D58D00D2D6CD00E2DCE
:10119000F7D18FE0042084F85801624890ED000AEE
:1011A00084ED5E0A9FED600A84ED5F0A9FED5E0AA2
:1011B00084ED600A284600F0EBF80127A7E0042040
:1011C00084F85801574890ED000AB1EE400A84EDCA
:1011D0005E0A9FED550A84ED5F0A9FED530A84ED88
:1011E000600A284600F0D4F8012790E0042084F833
:1011F00058019FED4D0A84ED5E0A9FED4B0A84ED88
:101200005F0ABBEE040A84ED600A284600F0C0F8CD
:1012100001277CE0042084F858019FED430A84ED07
:101220005E0A9FED410A84ED5F0AB3EE040A84ED85
:10123000600A284600F0ACF8012768E0042084F832
:1012400058019FED390A84ED5E0A9FED370A84ED5F
:101250005F0A9FED350A84ED600A284600F098F891
:10126000012754E04CE0FFE72046FFF719FF064650
:101270002C4890ED000AF2EE040A30EE200A80EDD0
:10128000000AFFF737FF86B194ED5E0AB5EEC00A9B
:10129000F1EE10FA234890ED000AD0ED000AF1EECD
:1012A000600A30FE200A84ED5E0A284600F070F8DD
:1012B00001272CE02046FFF7F3FE0646194890ED83
:1012C000000AF2EE040A30EE600A80ED000AFFF731
:1012D00011FF86B194ED5E0AB5EEC00AF1EE10FA88
:1012E000104890ED000AD0ED000AF1EE600A30FEE1
:1012F000200A84ED5E0A284600F04AF8012706E03D
:1013000025B10748C068401C0549C86000BF00BF40
:101310003A462946204600F009F800BF12E70000CF
:1013200058170024F80200240000000070B504469D
:101330000D46164614480577144890ED000A1248E9
:1013400080ED080AC6778CB194F858010E4981F8EF
:10135000300094ED5E0A084680ED090A94ED5F0ABC
:1013600080ED0A0A94ED600A80ED0B0A56B106483A
:101370004068401C044948600846457703F040FA3D
:101380000149886170BD000058170024F80200244C
:1013900010B504462CB900200B4908700B4988771A
:1013A00010BD0948007884420BD02146002014F07B
:1013B00099FA05480470054884770069401C034980
:1013C000086100BFECE70000FC020024581700246D
:1013D00070B504460D4600260CB1B61E0AE0C4EBFB
:1013E0004411054A02EB8100294608F02BFB08B1A5
:1013F0006FF00306304670BDC40D002470B504467E
:1014000000250CB1AD1E2FE0204600F031F8012878
:1014100002D06FF0060527E0C4EB4411134A02EB3B
:1014200081000EF0E3FEFDB9C4EB44110F4A02EB5C
:1014300081000CF0B9F810B16FF0030514E0C4EBB3
:1014400044110A4A02EB81004FF4804108F054F93C
:1014500010B16FF0030507E0C4EB4411034A02EB3F
:101460008100022108F0BCF8284670BDC40D00249C
:1014700001466FF0050209B1901070470122104635
:10148000FBE700002DE9F84304460E4617461D46CB
:101490004FF00008642005FB00F914B16FF001085B
:1014A0000EE0C4EB4411084A02EB81002B463A4699
:1014B0003146CDF8009008F05DFD08B16FF00308EB
:1014C0004046BDE8F8830000C40D002470470000CA
:1014D0002DE9F84304460E4617461D464FF0000816
:1014E000642005FB00F914B16FF001080EE0C4EBB5
:1014F0004411084A02EB81002B463A463146CDF8AA
:10150000009008F06FFE08B16FF003084046BDE898
:10151000F8830000C40D0024704710B50020FFF7C9
:101520006DFF04460CB9002010BD4FF0FF30FBE703
:10153000024908780021014A11707047AC03002469
:1015400010B51348047800F035F800B95324622C24
:1015500014D008DC422C10D0462C0BD04C2C0FD0D1
:10156000522C13D10FE0662C05D06C2C09D0722CB4
:101570000CD109E000BF012010BD00BF0220FBE735
:1015800000BF0320F8E700BF0420F5E70020F3E7E1
:10159000A403002453200449087000200349086074
:1015A0000349087070470000A4030024A803002426
:1015B000AC03002410B50848006808B9002010BD2D
:1015C00003F01EF904490968401AB0F5967F01D26C
:1015D0000120F4E70020F2E7A803002470B50446D8
:1015E0000E4604B106B970BD00254CE0605D62286E
:1015F00034D010DC492822D006DC42282DD04628E1
:1016000029D047283BD115E04C2828D0522828D093
:10161000532834D127E06C2822D006DC66281BD062
:10162000672808D069282AD10AE072281AD07328BE
:1016300025D119E000BF01201549087020E000BF46
:1016400002201349087053201249087003F0D8F89B
:101650001149086014E000BF00BF00BF00BF00BF19
:1016600000BF00BF00BF00BF605D0A49087003F003
:10167000C7F80949086002200549087000E000BF6A
:1016800000BF681C85B2B542B0DB00BFABE700000D
:10169000AC030024A4030024A803002400BFFEE739
:1016A0000346042B15D007DC7BB1012B0ED0022B97
:1016B0000DD0032B12D10BE0202B0BD0212B0AD005
:1016C000222B09D0232B09D107E008E007E006E030
:1016D00005E004E003E002E001E000E000BF00BF3D
:1016E000002070470020704710B5002204490548CB
:1016F00011F08FFB0449034811F07CFB002010BD62
:10170000F432012418280124F42A012470B5044677
:101710000D460749286808600120064908702146DF
:10172000054811F067FB044811F030FB002070BD44
:1017300014040024100400241828012410B50346C2
:101740000C460021084610BD2DE9F04104460D4627
:1017500000260A48D0F8BC72D7F8140210B1012054
:10176000BDE8F0812A462146044811F052FB0348A7
:1017700011F002FC06463046F2E70000182801246A
:1017800000B52DED108B89B0B0EE409BB0EE41ABB3
:10179000B0EE42BBB0EE43CB3CEE4A0B9FED361BA6
:1017A00020EE010B9FED361B80EE012BB0EE42DBED
:1017B0009FED310B29EE000B9FED311B80EE012BCD
:1017C0008DED062B9FED2C0B2BEE000B9FED2C1BB4
:1017D00080EE012B8DED042BB0EE4D0B14F0F8FCD8
:1017E000B0EE40EB9DED040B14F07AFB2EEE000BF7
:1017F0008DED020B9DED060B14F072FBB0EE40EB8D
:101800009DED040B14F0E4FC2EEE00EB9DED060BB9
:1018100014F0DEFCB0EE40FB9DED040B14F060FB19
:101820002FEE00FBB0EE4D0B14F05AFB0FEE40EB29
:101830008DED00EB9DED001B9DED020B14F050FAB9
:101840009FED0F1B20EE010B9FED0B1B80EE012B7C
:10185000B0EE428BB5EEC08BF1EE10FA05D29FEDE3
:101860000A0B38EE000BB0EE408BB7EEC80B09B098
:10187000BDEC108B00BD000000000060FB210940A2
:1018800000000000008066400000000000807640FC
:1018900010B52DED0E8BB0EE408BB0EE419BB0EE4F
:1018A00042ABB0EE43BB3AEE480B9FED151B20EE6A
:1018B000010BB0EE40DB9FED140B28EE000B9FED0B
:1018C000141B80EE012BB0EE42EBB0EE4E0B14F089
:1018D00007FB3BEE491B9FED0A2B21EE021B20EE7E
:1018E000010BB0EE40CB2DEE0D1B0CEE0C1BB0EE41
:1018F000410B14F08FFDB7EEC00BBDEC0E8B10BD8D
:1019000000000000802DFB4000000060FB2109402A
:10191000000000000080664070B504460D4604B922
:1019200070BD20460CF0B6FA20461AF08FF984F804
:10193000585115B920461AF07DF900BFF0E70000B4
:101940002DE9F84F07460C4690464FF00009CA466D
:1019500000250026A346A01D00900425A7F15000F5
:1019600010283AD2DFE800F01608190F1E232629A6
:101970002C2F3239393939354FF0340903254FF0DE
:10198000400A01262BE04FF03D0903254FF02E0AB7
:10199000012624E04FF0300921E04FF037094FF0E5
:1019A00003081CE04FF03A094FF0030817E04FF02E
:1019B000410914E04FF0450911E04FF049090EE0EC
:1019C0004FF04D090BE04FF0510908E04FF0550979
:1019D00005E01448D0F8009001E0BDE8F88F00BFA2
:1019E000B8F1030F01D1032500265DB16A000E494D
:1019F00001EB49005946FEF7FEFC294648460B4AD2
:101A0000126890475EB17200074901EB4A000099E5
:101A1000FEF7F1FC31465046044A1268904700BF79
:101A2000DBE70000DC03002464240124C803002455
:101A300010B5024801F0EAFA10BD0000080C0024BD
:101A400010B5024801F0E2FA10BD0000F80C0024C5
:101A500010B5024801F0DAFA10BD0000180B00249E
:101A600010B5024801F0D2FA10BD0000900B00241E
:101A700010B5024801F0CAFA10BD0000800C002425
:101A80000146374A0868904249D0354A18320868FA
:101A9000904244D0324A3032086890423FD0304AB7
:101AA0004832086890423AD02D4A60320868904225
:101AB00035D02B4A78320868904230D0284A90328C
:101AC000086890422BD0264AA8320868904226D057
:101AD000244A0868904222D0224A1832086890426C
:101AE0001DD0204A30320868904218D01D4A483232
:101AF0000868904213D01B4A6032086890420ED0AA
:101B0000184A78320868904209D0164A903208681C
:101B1000904204D0134AA8320868904201D10120B3
:101B200000E00020B0B10A78103A1823B2FBF3F0BD
:101B300000F007020C4B9A5CCA65032805D90A68B5
:101B40006FF30902121D8A6503E00A686FF3090248
:101B50008A6503E0086820F0FF008865886D70479B
:101B60001000024010040240607B050810B50268B6
:101B70002B4C0368A34222D0294C14340368A3429F
:101B80001DD0274C28340368A34218D0244C3C3481
:101B90000368A34213D0224C50340368A3420ED0F2
:101BA0001F4C64340368A34209D01D4C7834036889
:101BB000A34204D01A4C8C340368A34201D1012300
:101BC00000E000238BB10378083B1424B3FBF4F14D
:101BD000144B03EB81030366124B8033436601F021
:101BE0001F040123A340836618E00378103B1824E8
:101BF000B3FBF4F10C4B9A4204D80B4BA83B9A422E
:101C000000D30831094B03EB81030366074B803394
:101C1000436601F01F040123A340836610BD00004A
:101C20000854025800580258B80402400008024004
:101C30000179A9B3082940D8204B02689A4222D0E2
:101C40001E4B143302689A421DD01C4B2833026885
:101C50009A4218D0194B3C3302689A4213D0174B62
:101C6000503302689A420ED0144B643302689A4291
:101C700009D0124B783302689A4204D00F4B8C3350
:101C800002689A4201D1012200E000224AB14A1EB4
:101C90000B4B03EB8202C266094A4032026708E03E
:101CA0000BE04A1E074B03EB8202C266054A403234
:101CB00002674A1E01239340436770470854025845
:101CC0000059025800090240014600208A69D2B931
:101CD0008A6A32B1012A0DD0022A03D0032A10D118
:101CE0000EE000BFCA6A02F08072B2F1807F00D1BC
:101CF000012007E0CA6AB2F1C07F00D1012001E0F3
:101D000000E000BF36E08A69B2F5005F1BD18A6A45
:101D100032B1012A07D0022A03D0032A11D10AE0E6
:101D200000BF01200EE0CA6A02F08072B2F1807F2B
:101D300000D1012006E0CA6AB2F1C07F00D10120C3
:101D400000E000BF16E08A6A32B1012A05D0022AFB
:101D500004D0032A0CD103E000BF00BF012008E03B
:101D6000CA6A02F08072B2F1807F00D1012000E0E7
:101D700000BF00BF70470000F0B5856D846D984FBF
:101D80000668BE4270D0964F18370668BE426BD0C8
:101D9000934F30370668BE4266D0914F4837066889
:101DA000BE4261D08E4F60370668BE425CD08C4F19
:101DB00078370668BE4257D0894F90370668BE42D2
:101DC00052D0874FA8370668BE424DD0854F06686F
:101DD000BE4249D0834F18370668BE4244D0814F77
:101DE00030370668BE423FD07E4F48370668BE4255
:101DF0003AD07C4F60370668BE4235D0794F78378D
:101E00000668BE4230D0774F90370668BE422BD06E
:101E1000744FA8370668BE4226D0734F0668BE428C
:101E200022D0714F14370668BE421DD06E4F28373E
:101E30000668BE4218D06C4F3C370668BE4213D0CD
:101E4000694F50370668BE420ED0674F6437066848
:101E5000BE4209D0644F78370668BE4204D0624F54
:101E60008C370668BE4201D1012600E000263EB153
:101E7000D0E919767E60C66E16B1D0E91C767E6018
:101E8000574F0668BE4249D0554F18370668BE42C4
:101E900044D0534F30370668BE423FD0504F48378A
:101EA0000668BE423AD04E4F60370668BE4235D013
:101EB0004B4F78370668BE4230D0494F903706689E
:101EC000BE422BD0464FA8370668BE4226D0454FAB
:101ED0000668BE4222D0434F18370668BE421DD066
:101EE000404F30370668BE4218D03E4F483706682C
:101EF000BE4213D03B4F60370668BE420ED0394F0A
:101F000078370668BE4209D0364F90370668BE4221
:101F100004D0344FA8370668BE4201D1012600E044
:101F20000026DEB190F85C6006F01F073F26BE4039
:101F3000AE600668366826F4802607683E6006684C
:101F400073608668402E04D10668B2600668F1604E
:101F500044E00668B1600668F2603FE0224F066820
:101F6000BE4222D0204F14370668BE421DD01E4FFD
:101F700028370668BE4218D01B4F3C370668BE4261
:101F800013D0194F50370668BE420ED0164F643733
:101F90000668BE4209D0144F78370668BE4204D0A6
:101FA000114F8C370668BE4201D1012600E00026A1
:101FB000A6B190F85C6006F01F070126BE4066607F
:101FC000066873608668402E04D10668B2600668B1
:101FD000F16003E00668B1600668F260F0BD0000E1
:101FE00010000240100402400854025810B5044684
:101FF0002078242800D010BDE078472808D1207927
:10200000472805D16079412802D1E01D00F026F96A
:10201000E078542808D12079482805D160795328E0
:1020200002D1E01D00F0F4F9E078482808D12079C9
:10203000502805D16079522802D1E01D00F08AF9BC
:1020400000BFD8E77047000010B500210F4808F026
:102050004BFD04210D4808F047FD00210C4808F015
:1020600043FD04210A4808F03FFD0021094808F01B
:102070003BFD0421074808F037FD0021064808F021
:1020800033FD0421044808F02FFD10BD4C07002447
:1020900098070024E407002430080024014651B9C1
:1020A0001A480068406A02B20020184B1B68586248
:1020B000504200B2704701290AD115480068406AB1
:1020C00002B20020124B1B685862504200B2F1E786
:1020D00002290AD10F480068406A02B200200D4B65
:1020E0001B685862504200B2E4E703290AD10A484B
:1020F0000068406A02B20020074B1B6858625042D9
:1021000000B2D7E700BF0020D4E700004C0700244E
:1021100098070024E40700243008002472B600BFAA
:10212000FEE702460868B0B9D1E901031843CB685D
:1021300018430B6918434B6918438B691843CB69E3
:1021400018430B6A18434B6A184313686FF30E0366
:102150001843106019E0D1E9070318434B6A18438C
:10216000136823F4F84318431060D1E901031843BE
:10217000CB6818430B6918434B6918438B691843A4
:1021800053686FF30E0318435060002070470246F7
:10219000506943F6FE73984340EA410050610020C5
:1021A000704710B50346D1E9000420438C68641ED3
:1021B00040EA4410CC6840EA44201C696FF31504DF
:1021C00020431861002010BD30B50346FAB90868F5
:1021D000401E4C68641E40EA04148868401E44EAAD
:1021E0000024C868401E44EA0034088A401E44EABD
:1021F0000044888A401E44EA0054087E401E44EA97
:1022000000609C6804F070442043986022E0C86835
:10221000401E0403888A401E44EA00509C680E4D0C
:102220002C40204398600868401E4C68641E40EAB9
:1022300004148868401E44EA0024088A401E44EAC8
:102240000044087E401E44EA0060DC6804F07044EC
:102250002043D860002030BDFF0F0FFF30B591B094
:102260000446002515E001A840F8254004E014F8D4
:10227000011B09B911B030BD20780D2D01D12A21E3
:1022800000E02C218842F2D1002004F8010B681CE8
:10229000C5B20E2DE7DB01A840F82540019813F0E8
:1022A00003FE2B4880ED000B029813F0FDFD28483B
:1022B00080ED020B0398007825490874049813F008
:1022C000F3FD234880ED060B05980078204981F83E
:1022D000200006980078303881F821000798FEF732
:1022E0000CF91B4981F82200089813F0DDFDB7EEC8
:1022F000C00B174880ED090A099813F0D5FDB7EE19
:10230000C00B134880ED0A0A2C300A99FEF7D2F868
:102310000B9813F0C9FDB7EEC00B0D4880ED0D0A08
:1023200038300C99FEF7C6F80D9813F0BDFDB7EEE6
:10233000C00B074880ED100A44300E99FEF7BAF83A
:1023400003484C300F99FEF7B5F800BF92E7000044
:10235000781F012430B591B00446002515E001A88E
:1023600040F8254004E014F8011B09B911B030BD54
:102370002078072D01D12A2100E02C218842F2D1BA
:10238000002004F8010B681CC5B2082DE7DB01A88A
:1023900040F82540019813F087FD1C4880ED000BA4
:1023A000029813F081FDB7EEC00B184880ED020AC9
:1023B000039813F079FDB7EEC00B144880ED030AC3
:1023C000049813F071FDB7EEC00B104880ED040ABD
:1023D0000598007830380D4908750698FEF78DF895
:1023E0000A494875079813F05FFDB7EEC00B074820
:1023F00080ED060A1C300899FEF75CF8034824308B
:102400000999FEF757F800BFB0E70000E02001246B
:1024100030B589B00446002515E001A840F82540F4
:1024200004E014F8011B09B909B030BD2078012D72
:1024300001D12A2100E02C218842F2D1002004F8A9
:10244000010B681CC5B2022DE7DB01A840F825404E
:10245000019813F029FDB7EEC00B094880ED000A82
:10246000029813F021FDBCEEC00B10EE100A0449D7
:1024700008710348401D0399FEF71CF800BFD3E71D
:10248000D01F012410B5012438E04FF4FA7041F058
:102490004BF82046611CCCB20C282ED2DFE800F0AD
:1024A0002D06070B0F13171B1F23272B25E017A043
:1024B00000F0B4F821E017A000F0B0F81DE01AA079
:1024C00000F0ACF819E01EA000F0A8F815E01FA07D
:1024D00000F0A4F811E020A000F0A0F80DE021A089
:1024E00000F09CF809E022A000F098F805E00EA0AA
:1024F00000F094F801E0002400BF00BF002CC4D11C
:102500004FF4FA7041F010F810BD0000756E6C6F5A
:10251000670D0A006D6F64652062617365207469E0
:102520006D652036300D0A006D6F646520726F7620
:102530006572206175746F6D6F746976650D0A0040
:10254000677067676120310D0A000000677074686A
:102550007320310D0A0000006167726963622031E7
:102560000D0A0000677068707220310D0A000000CB
:1025700073617665636F6E6669670D0A000000001F
:102580002DE9F04105460E460EB9BDE8F081002464
:1025900000271DE0285DAA2818D1601C285C44286B
:1025A00014D1A01C285CB52810D1301BB0F5007FD9
:1025B00002DD4FF4007000E0301B02462919164876
:1025C000FDF719FF1448FEF75FFD04E0601C84B2BC
:1025D000B01EA042DEDC00BF002418E0285D2428E5
:1025E00000D12F19002C10DD601E285C0D280CD1A5
:1025F000285D0A2809D147B10021601E2954002016
:1026000028553846FFF7F2FC0027601C84B2B4421C
:10261000E4DB00BFB9E700001021012470B50446D7
:102620002046FDF732FF85B2C8232A4621460248DC
:1026300009F0FFFD70BD0000F00900242DE9F04114
:1026400007460D4616464FF001080EF071FD38465C
:1026500000F068F8E0B90EF06BFDBB200EF0DAFD7B
:10266000012815D100240DE0681EA04204D10020ED
:102670000EF030FD305503E001200EF02BFD3055FB
:10268000601CC4B2AC42EFDB0EF074FD4FF00008EA
:102690000EF070FD4046BDE8F081000010B50EF070
:1026A00003FE00224FF40061114802F09DF8012260
:1026B00091020F4802F098F842F210700EF058FCA8
:1026C00000224FF480610A4802F08EF809480EF0AB
:1026D0004FFC01229102064802F086F806480EF0EF
:1026E00047FC0EF0CBFD44F620600EF041FC10BD1F
:1026F00000200258F04902003057050070B5064628
:102700000C460EF015FD304600F00CF828B92046B6
:102710000EF080FD012800D001250EF02BFD0025D4
:10272000284670BD70B504460EF002FDBA200EF0CA
:1027300071FD01280AD120120EF06CFD012805D18F
:10274000E0B20EF067FD012800D0012500252846E3
:1027500070BD000000487047781F01240048704792
:10276000E020012470B50A480468001D0568001DBA
:102770000668344454B10822064920460AF043F85A
:1027800004220449103128460AF03DF870BD0000CB
:1027900000E8F11F720400242DE9F041044602F024
:1027A0002FF8804614B90120BDE8F08194F8350077
:1027B000022808D08020606500BF002084F8340023
:1027C00000BF0120F0E7FE492068884249D0FC495B
:1027D00018312068884244D0F94930312068884255
:1027E0003FD0F7494831206888423AD0F4496031F7
:1027F0002068884235D0F24978312068884230D04C
:10280000EF499031206888422BD0ED49A8312068EB
:10281000884226D0EB492068884222D0E949183105
:10282000206888421DD0E74930312068884218D09E
:10283000E44948312068884213D0E2496031206879
:1028400088420ED0DF4978312068884209D0DD49BE
:1028500090312068884204D0DA49A8312068884243
:1028600001D1012000E0002068B12068006820F05C
:102870001E00216808602068406920F080002168FF
:102880004861256806E02068006820F00E00216895
:1028900008602568CA492068884270D0C849183144
:1028A000206888426BD0C64930312068884266D0A3
:1028B000C34948312068884261D0C14960312068ED
:1028C00088425CD0BE4978312068884257D0BC49E4
:1028D00090312068884252D0B949A8312068884296
:1028E0004DD0B8492068884249D0B649183120688F
:1028F000884244D0B3493031206888423FD0B14942
:102900004831206888423AD0AE4960312068884218
:1029100035D0AC4978312068884230D0A94990310F
:10292000206888422BD0A749A8312068884226D049
:10293000A5492068884222D0A349143120688842E2
:102940001DD0A14928312068884218D09E493C31C9
:102950002068884213D09C495031206888420ED0AC
:10296000994964312068884209D0974978312068B4
:10297000884204D094498C312068884201D10120DA
:1029800000E0002028B1206E006820F48070216EE5
:1029900008608B492068884249D0894918312068ED
:1029A000884244D086493031206888423FD08449EB
:1029B0004831206888423AD0814960312068884295
:1029C00035D07F4978312068884230D07C499031B9
:1029D000206888422BD07A49A8312068884226D0C6
:1029E00078492068884222D0764918312068884288
:1029F0001DD0744930312068884218D0714948315F
:102A00002068884213D06F496031206888420ED018
:102A10006C4978312068884209D06A499031206831
:102A2000884204D06749A8312068884206D12068CE
:102A3000006820F001002168086005E02068006857
:102A400020F001002168086011E001F0D9FEA0EB40
:102A5000080005280BD920206065032084F8350084
:102A600000BF002084F8340000BF01209CE62868E5
:102A700000F001000028E8D151492068884249D07F
:102A80004F4918312068884244D04D493031206880
:102A900088423FD04A494831206888423AD0484964
:102AA00060312068884235D04549783120688842B5
:102AB00030D043499031206888422BD04049A8311A
:102AC0002068884226D03F492068884222D03D496C
:102AD0001831206888421DD03A4930312068884238
:102AE00018D0384948312068884213D035496031C0
:102AF000206888420ED0334978312068884209D056
:102B0000304990312068884204D02E49A83120688D
:102B1000884201D1012000E0002040B1A66D94F868
:102B20005C0000F01F013F208840B06007E0A76D07
:102B300094F85C0000F01F01012088407860204973
:102B40002068884276D01E4918312068884271D0AA
:102B50001B493031206888426CD0194948312068BF
:102B6000884267D0164960312068884262D0144993
:102B70007831206888425DD01149903120688842C0
:102B800058D00F49A8312068884253D00D49206899
:102B900088424FD00B491831206888424AD00949F1
:102BA00030312068884245D0064948312068884243
:102BB00040D004496031206888423BD0014905E09B
:102BC0001000024010040240085402587831206876
:102BD00088422FD02549206888422BD023491831BC
:102BE0002068884226D022492068884222D0204985
:102BF0001431206888421DD01D4928312068884240
:102C000018D01B493C312068884213D018495031F4
:102C1000206888420ED0164964312068884209D065
:102C2000134978312068884204D011498C312068DA
:102C3000884201D1012000E0002068B1D4E91910D8
:102C40004860E06E40B1E06E006820F48070E16E94
:102C50000860D4E91C104860012084F8350000BFEA
:102C6000002084F8340000BF00BF9DE5A0040240AE
:102C70000854025870B504460CB9012070BD94F890
:102C80003500022803D0802060650120F6E7DC498A
:102C90002068884249D0DA4918312068884244D0F7
:102CA000D7493031206888423FD0D5494831206823
:102CB00088423AD0D24960312068884235D0D04924
:102CC00078312068884230D0CD49903120688842E0
:102CD0002BD0CB49A8312068884226D0C94920682A
:102CE000884222D0C7491831206888421DD0C54982
:102CF00030312068884218D0C24948312068884263
:102D000013D0C0496031206888420ED0BD49783167
:102D10002068884209D0BB4990312068884204D09D
:102D2000B849A8312068884201D1012000E0002084
:102D3000F0B3042084F83500B149206888424BD0B4
:102D4000AF4918312068884246D0AD4930312068FB
:102D5000884241D0AA494831206888423CD0A849DD
:102D600060312068884237D0A54978312068884290
:102D700032D0A3499031206888422DD0A049A83193
:102D80002068884228D09F492068884224D09D49E5
:102D90001831206888421FD09A4930312068884213
:102DA0001AD0984948312068884215D0954900E0EA
:102DB00020E06031206888420ED092497831206846
:102DC000884209D08F4990312068884204D08D49CB
:102DD000A8312068884206D12068006820F00100F0
:102DE0002168086009E12068006820F0010021687E
:102DF000086002E12068006820F00E002168086089
:102E00007F492068884249D07D491831206888422E
:102E100044D07B493031206888423FD078494831DE
:102E2000206888423AD0764960312068884235D09F
:102E3000734978312068884230D0714990312068D8
:102E400088422BD06E49A8312068884226D06D492F
:102E50002068884222D06B491831206888421DD0F2
:102E6000684930312068884218D066494831206866
:102E7000884213D063496031206888420ED061498E
:102E800078312068884209D05E49903120688842B4
:102E900004D05C49A8312068884206D120680068C7
:102EA00020F001002168086005E02068006820F03B
:102EB00001002168086052492068884270D050495A
:102EC0001831206888426BD04D49303120688842E3
:102ED00066D04B4948312068884261D0484960310A
:102EE000206888425CD0464978312068884257D0B3
:102EF000434990312068884252D04149A831206826
:102F000088424DD03F492068884249D03D49183118
:102F10002068884244D03B493031206888423FD005
:102F200038494831206888423AD0364960312068B3
:102F3000884235D0334978312068884230D03149D1
:102F40009031206888422BD02E49A83120688842D1
:102F500026D02D492068884222D02B491431206880
:102F600088421DD0284928312068884218D0264937
:102F70003C312068884213D0234950312068884270
:102F80000ED0214964312068884209D01E49783129
:102F90002068884204D01C498C312068884201D1C5
:102FA000012000E00020D8B1206E006820F480707D
:102FB000216E0860A56D94F85C0000F01F010120EF
:102FC00088406860D4E919104860E06E40B1E06E56
:102FD000006820F48070E16E0860D4E91C1048603D
:102FE000012084F8350000BF002084F8340000BFC1
:102FF000206D10B12046216D884700203EE600007C
:103000001000024010040240085402582DE9F84F05
:10301000044600200090FE4800684FF41651B0FBB3
:10302000F1FAA66DD4F858803768D8F80090F949BD
:103030002068884249D0F74918312068884244D036
:10304000F4493031206888423FD0F2494831206845
:1030500088423AD0EF4960312068884235D0ED4946
:1030600078312068884230D0EA499031206888421F
:103070002BD0E849A8312068884226D0E64920684C
:10308000884222D0E4491831206888421DD0E249A4
:1030900030312068884218D0DF49483120688842A2
:1030A00013D0DD496031206888420ED0DA4978318A
:1030B0002068884209D0D84990312068884204D0DD
:1030C000D549A8312068884201D1012000E00020C4
:1030D00000287DD094F85C0000F01F010820884093
:1030E0003840002868D0CB492068884249D0C94977
:1030F00018312068884244D0C6493031206888425F
:103100003FD0C4494831206888423AD0C149603133
:103110002068884235D0BF4978312068884230D055
:10312000BC499031206888422BD0BA49A831206828
:10313000884226D0B8492068884222D0B649183142
:10314000206888421DD0B44930312068884218D0A8
:10315000B14948312068884213D0AF4960312068B6
:1031600088420ED0AC4978312068884209D0AA49FB
:1031700090312068884204D0A749A831206888424D
:1031800004D12068006800F0040003E020680068B3
:1031900000F0080080B12068006820F00400216879
:1031A000086094F85C0000F01F0108208840B060BF
:1031B000606D40F00100606594F85C0000F01F0154
:1031C000012088403840E8B392492068884200E0F6
:1031D000B7E24BD08F4918312068884246D08D49DC
:1031E00030312068884241D08A494831206888427D
:1031F0003CD0884960312068884237D08549783191
:103200002068884232D083499031206888422DD08E
:103210008049A8312068884228D07F4920688842A8
:1032200024D07D491831206888421FD07A49303136
:10323000206888421AD0784948312068884215D0E1
:10324000754900E026E06031206888420ED072495E
:1032500078312068884209D06F49903120688842CF
:1032600004D06D49A8312068884204D120684069A3
:1032700000F0800002E020680068002050B194F85F
:103280005C0000F01F0101208840B060606D40F0DC
:103290000200606594F85C0000F01F010420884083
:1032A0003840E8B35B49206888424BD0594918310F
:1032B0002068884246D0574930312068884241D042
:1032C00054494831206888423CD0524960312068D6
:1032D000884237D04F4978312068884232D04D49F2
:1032E0009031206888422DD04A49A8312068884210
:1032F00028D049492068884224D04749183120689D
:1033000088421FD044493031206888421AD042494F
:1033100048312068884215D03F496031206800E07C
:1033200024E088420ED03C4978312068884209D098
:10333000394990312068884204D03749A831206843
:10334000884204D12068006800F0020002E0206892
:103350000068002050B194F85C0000F01F010420C8
:103360008840B060606D40F00400606594F85C00D7
:1033700000F01F01102088403840E8B3254920683C
:10338000884251D023491831206888424CD02149C5
:1033900030312068884247D01E4948312068884231
:1033A00042D01C496031206888423DD019497831AB
:1033B0002068884238D0174990312068884233D03D
:1033C0001449A831206888422ED0134920688842C9
:1033D0002AD0114918312068884225D00E49303151
:1033E0002068884220D00C494831206888421BD090
:1033F00009496031206800E04DE0884214D0064958
:103400007831206888420FD003499031206805E068
:10341000980000241000024010040240884203D0AB
:10342000FE492068884204D12068006800F0080046
:1034300003E02068006800F0040060B394F85C00CA
:1034400000F01F0110208840B0602068006800F480
:10345000802080B12068006800F4002028B9206C2A
:10346000C8B12046216C884715E0A06C98B1204671
:10347000A16C88470FE02068006800F4807028B9CC
:103480002068006820F0080021680860206C10B1F6
:103490002046216C884794F85C0000F01F01202032
:1034A0008840384000287DD0DD492068884249D0D6
:1034B000DB4918312068884244D0D949303120682E
:1034C00088423FD0D6494831206888423AD0D44912
:1034D00060312068884235D0D149783120688842EF
:1034E00030D0CF499031206888422BD0CC49A831C8
:1034F0002068884226D0C949A8392068884221D04E
:10350000C6499039206888421CD0C449783920685F
:10351000884217D0C14960392068884212D0BF491B
:103520004839206888420DD0BC493039206888422B
:1035300008D0BA4918392068884203D0B7492068B2
:10354000884204D12068006800F0100003E0206881
:10355000006800F0020028B394F85C0000F01F013E
:1035600020208840B06094F8350004282DD12068D0
:10357000006820F01600216808602068406920F08B
:10358000800021684861206C08B9A06C28B12068CF
:10359000006820F008002168086094F85C0000F0E2
:1035A0001F0100E03FE03F208840B060012084F828
:1035B000350000BF002084F8340000BF206D10B13A
:1035C0002046216D8847BDE8F88F2068006800F428
:1035D000802080B12068006800F4002028B9606C69
:1035E00008B32046616C88471DE0E06BD8B12046E7
:1035F000E16B884717E02068006800F4807068B9C4
:103600002068006820F0100021680860012084F81C
:10361000350000BF002084F8340000BFE06B10B11B
:103620002046E16B8847606D00287AD0606D00F01D
:103630000100E8B3042084F8350079492068884205
:103640004BD0774918312068884246D074493031D0
:103650002068884241D072494831206888423CD075
:103660006F4960312068884237D06D4978312068D1
:10367000884232D06A499031206888422DD068490A
:10368000A8312068884228D06449A8392068884237
:1036900023D062499039206888421ED05F4978392A
:1036A0002068884219D05D4960392068884200E06E
:1036B00040E012D059494839206888420DD0574916
:1036C00030392068884208D0544918392068884227
:1036D00003D052492068884206D12068006820F053
:1036E00001002168086005E02068006820F0010002
:1036F0002168086000BF0098401C0090504500D928
:1037000005E02068006800F001000028F3D100BF48
:103710002068006800F0010020B1032084F8350023
:1037200003E00DE0012084F8350000BF002084F89C
:10373000340000BFE06C002802D02046E16C8847CE
:10374000D9E138492068884222D0364914312068AE
:1037500088421DD0334928312068884218D0314929
:103760003C312068884213D02E495031206888426D
:103770000ED02C4964312068884209D0294978311B
:103780002068884204D027498C312068884201D1C2
:10379000012000E000200028D2D02068056894F8BD
:1037A0005C0000F01F010420884000EA0900D8B343
:1037B00005F00400C0B394F85C0000F01F01042081
:1037C0008840C8F8040005F4004080B105F480305A
:1037D00030B9A06C0028B3D02046A16C88478AE19C
:1037E000206C0028ACD02046216C884783E105F08E
:1037F0002000E8BB0A492068884253D008491831A4
:10380000206888424ED0064930312068884249D02D
:10381000034948312068884244D006E0B804024099
:1038200010000240085402584FE0B449603120684B
:10383000884237D0B14978312068884232D0AF49C8
:103840009031206888422DD0AC49A8312068884248
:1038500028D0AB492068884224D0A9491831206873
:1038600088421FD0A6493031206888421AD000E033
:1038700025E0A34948312068884213D0A04960312F
:10388000206888420ED09E4978312068884209D04D
:103890009B4990312068884204D09949A83120681A
:1038A000884206D12068006820F00800216808607E
:1038B00005E02068006820F0040021680860206CA2
:1038C00010B32046216C884715E194F85C0000F0A5
:1038D0001F010220884000EA0900E8B305F0020059
:1038E000D0B394F85C0000F01F0102208840C8F8B3
:1038F000040005F4004070B105F4803028B9606C14
:1039000010B12046616C8847F5E0E06BF0B32046CB
:10391000E16B8847EFE005F02000C0BB77492068E5
:1039200088424ED0754918312068884249D0734981
:1039300030312068884244D070494831206888423C
:103940003FD06E496031206888423AD06B49783167
:103950002068884235D000E04EE068499031206808
:1039600088422ED06549A8312068884229D0644910
:103970002068884225D0624918312068884220D0CA
:103980005F493031206888421BD001E06EE02DE0B5
:103990005B4948312068884213D05949603120681A
:1039A00088420ED0564978312068884209D054495F
:1039B00090312068884204D05149A831206888425B
:1039C00006D12068006820F014002168086005E036
:1039D0002068006820F00A0021680860012084F84F
:1039E000350000BF002084F8340000BFE06BE8B36E
:1039F0002046E16B88477EE094F85C0000F01F01F0
:103A00000820884000EA090080B305F0080068B388
:103A10003A49206888424BD038491831206888429A
:103A200046D0364930312068884241D03349483148
:103A3000206888423CD0314960312068884237D0C4
:103A40002E4978312068884232D02C499031206844
:103A500088422DD02949A8312068884228D0284999
:103A60002068884224D02649183100E043E02068CD
:103A700088421DD0224930312068884218D0204920
:103A800048312068884213D01D496031206888423F
:103A90000ED01B4978312068884209D018499031EE
:103AA0002068884204D01649A8312068884206D18F
:103AB0002068006820F01C002168086005E020688C
:103AC000006820F00E002168086094F85C0000F0A7
:103AD0001F0101208840C8F804000120606584F8B7
:103AE000350000BF002084F8340000BFE06C10B146
:103AF0002046E16C884700BF65E5000010000240E9
:103B0000100402402DE9F041044600F079FE8046A1
:103B100014B90120BDE8F081FE492068884249D0EF
:103B2000FC4918312068884244D0FA493031206875
:103B300088423FD0F7494831206888423AD0F54959
:103B400060312068884235D0F24978312068884257
:103B500030D0F0499031206888422BD0ED49A8310F
:103B60002068884226D0EC492068884222D0EA4961
:103B70001831206888421DD0E749303120688842DA
:103B800018D0E54948312068884213D0E2496031B5
:103B9000206888420ED0E04978312068884209D0F8
:103BA000DD4990312068884204D0DB49A831206883
:103BB000884201D1012000E00020002873D0606A13
:103BC00000B100BF022084F8350000BF002084F857
:103BD000340000BFCF492068884249D0CD49183110
:103BE0002068884244D0CB493031206888423FD099
:103BF000C8494831206888423AD0C64960312068B7
:103C0000884235D0C34978312068884230D0C149D4
:103C10009031206888422BD0BE49A8312068884264
:103C200026D0BD492068884222D0BB49183120687F
:103C300088421DD0B84930312068884218D0B64932
:103C400048312068884213D0B349603120688842E7
:103C50000ED0B14978312068884209D0AE49903100
:103C60002068884204D0AC49A8312068884206D137
:103C70002068006820F001002168086005E02068E5
:103C8000006820F00100216808600DE000F0B8FD38
:103C9000A0EB0800052807D920206065032084F8E0
:103CA0003500012036E76AE02068006800F0010076
:103CB0000028EBD12068056898480540D4E9020146
:103CC00008432169084361690843A1690843E16920
:103CD0000843216A08430543606A042803D1D4E9F4
:103CE0000B01084305438E4800686FF30F00B0F1E5
:103CF000005F1DD36068292802D360682E2811D97F
:103D000060683F2802D3606842280BD96068472862
:103D100002D36068482805D960684F2804D36068DA
:103D2000522801D8012000E0002008B145F4801598
:103D3000206805602068456925F00705606A05432D
:103D4000606A04280DD1A06A0543E06A48B12046A4
:103D5000FDF7BAFF28B140206065012084F83500E6
:103D6000D8E6206845612046FDF78AFE064694F8AD
:103D70005C0000F01F013F208840B0609EE0694970
:103D80002068884222D067491431206888421DD0BB
:103D9000644928312068884218D062493C31206843
:103DA000884213D05F495031206888420ED05D4967
:103DB00064312068884209D05A49783120688842A5
:103DC00004D058498C312068884201D1012000E09C
:103DD0000020E0B353492068884222D05149143171
:103DE000206888421DD04F4928312068884218D069
:103DF0004C493C312068884213D04A4950312068F0
:103E000088420ED0474964312068884209D045492C
:103E100078312068884204D042498C312068884239
:103E200001D1012000E0002000B100BF022084F891
:103E3000350000BF002084F8340000BF206805680A
:103E400039480540A068402802D1102106E02EE044
:103E5000A068802801D1C10100E00021E06841EAAA
:103E6000D001206941EAD001606941EAD001A0692E
:103E700041EAD001E06941EAD001206A41EA10102C
:103E800005432068056027492068401A1421B0FBCB
:103E9000F1F08000E0652046FDF7F2FD074694F85A
:103EA0005C0000F01F0101208840786006E040209F
:103EB0006065032084F8350001202BE61549206851
:103EC00088427FD013491831206888427AD011493E
:103ED00030312068884275D00E49483120688842C8
:103EE00070D00C496031206888426BD00949783124
:103EF0002068884266D0074990312068884261D0A6
:103F00000449A831206888425CD00349206888426F
:103F100058D00BE010000240100402403F8010FE19
:103F20000010005C085402580F00FEFF3B49183196
:103F30002068884246D0394930312068884241D0D3
:103F400036494831206888423CD034496031206885
:103F5000884237D0314978312068884232D02F49A1
:103F60009031206888422DD02C49A83120688842A1
:103F700028D02B492068884224D029491431206850
:103F800088421FD026492831206888421AD0244907
:103F90003C312068884215D0214950312068884240
:103FA00010D01F496431206888420BD01C497831F9
:103FB0002068884206D01A498C312068884200E087
:103FC00000E001D1012000E0002000B32046FDF711
:103FD000CDFDA068802801D1002060602079216E8D
:103FE0000860D4E919104860606860B1606808280A
:103FF00009D82046FDF71CFE0020E16E0860D4E9D8
:104000001C10486003E00020E06620676067002025
:104010006065012084F8350000207BE51004024033
:10402000085402582DE9F04104460D4616461F4635
:104030004FF0000814B90120BDE8F08100BF94F8EA
:104040003400012801D10220F6E7012084F8340071
:1040500000BF94F8350001287ED1022084F8350095
:1040600000206065E4492068884249D0E24918315F
:104070002068884244D0E0493031206888423FD0EF
:10408000DD494831206888423AD0DB4960312068F8
:10409000884235D0D84978312068884230D0D64916
:1040A0009031206888422BD0D349A83120688842BB
:1040B00026D0D2492068884222D0D04918312068C1
:1040C00088421DD0CD4930312068884218D0CB4974
:1040D00048312068884213D0C8496031206888423E
:1040E0000ED0C64978312068884209D0C349903142
:1040F0002068884204D0C149A8312068884206D18E
:104100002068006820F001002168086005E0206850
:10411000006820F00100216808603B4632462946CD
:104120002046FDF729FEB449206888424BD0B249A9
:1041300018312068884246D0AF4930312068884223
:1041400041D0AD494831206888423CD0AA4960310D
:104150002068884237D000E042E1A74978312068E2
:10416000884230D0A4499031206888422BD0A2499F
:10417000A8312068884226D0A0492068884222D0F1
:104180009E491831206888421DD09C4930312068F2
:10419000884218D0994948312068884213D09749FD
:1041A0006031206888420ED0944978312068884276
:1041B00009D0924990312068884204D08F49A831B3
:1041C0002068884201D1012000E0002080B12068F1
:1041D000006820F01E0040F0160021680860206C86
:1041E000B0B12068006840F00800216808600FE066
:1041F0002068006820F00E0040F00A002168086086
:10420000206C28B12068006840F004002168086034
:1042100079492068884270D07749183120688842EF
:104220006BD0754930312068884266D07249483178
:104230002068884261D070496031206888425CD033
:104240006D4978312068884257D06B499031206899
:10425000884252D06849A831206888424DD06749C9
:104260002068884249D0654918312068884244D086
:1042700062493031206888423FD060494831206827
:1042800088423AD05D4960312068884235D05B4928
:1042900078312068884230D058499031206888426F
:1042A0002BD05649A8312068884226D0544920682E
:1042B000884222D052491431206888421DD050498A
:1042C00028312068884218D04D493C312068884206
:1042D00013D04B495031206888420ED04849643190
:1042E0002068884209D0464978312068884204D045
:1042F00043498C312068884201D1012000E0002030
:1043000090B1206E006800F4803028B1206E006803
:1043100040F48070216E0860E06E28B1E06E0068A5
:1043200040F48070E16E086033492068884249D0CB
:10433000314918312068884244D02F4930312068F3
:1043400088423FD02C494831206888423AD02A49D7
:1043500060312068884235D027497831206888420A
:1043600030D025499031206888422BD02249A8318D
:104370002068884226D021492068884222D01F49DF
:104380001831206888421DD01C493031206888428D
:1043900018D01A4948312068884213D01749603133
:1043A000206888420ED0154978312068884209D0AB
:1043B000124990312068884204D01049A831206801
:1043C000884206D12068006840F00100216808603A
:1043D00010E02068006840F001002168086009E0F2
:1043E0004FF40060606500BF002084F8340000BF17
:1043F0004FF0010840461FE6100002401004024042
:104400000854025870B5044600F0FAF906462546ED
:10441000681C10B104480078054400BF00F0F0F9B2
:10442000801BA842FAD370BDA800002400B587B055
:10443000142102A8FCF706F800BF5C48006840F4AD
:1044400080505A4908600846006800F48050019086
:1044500000BF00BF00BF55480C30006840F00400AA
:1044600052490C3108600846006800F004000190D1
:1044700000BF00BF00BF0846006840F008000860A9
:104480000846006800F00800019000BF00BF00BFB0
:104490000846006840F0100008600846006800F018
:1044A0001000019000BF00BF00BF0846006840F048
:1044B000200008600846006800F02000019000BF5E
:1044C00000BF00BF0846006840F040000860084692
:1044D000006800F04000019000BF00BF00BF084628
:1044E000006840F0800008600846006800F0800026
:1044F000019000BF00BF4FF63F00029002200390E2
:1045000000200490032005900C20069002A9284862
:1045100000F05AF80C200290022003900020049032
:10452000032005900C20069002A9224800F04CF8C8
:1045300048F23710029002200390002004900320DC
:1045400005900C20069002A91B4800F03DF84FF69C
:1045500083700290022003900020049003200590B5
:104560000C20069002A9154800F02EF84CF20370BA
:1045700002900220039000200490032005900C205C
:10458000069002A90E4800F01FF8012002900220B8
:10459000039000200490032005900C20069002A9AF
:1045A000084800F011F807B000BD0000D4440258DC
:1045B00000140258001C025800180258001002583B
:1045C000000C025800080258F8B502460B460021BC
:1045D0006F4DD7E001278F401E6806EA0704002CC4
:1045E00072D01E7906F00306012E04D01E7906F063
:1045F0000306022E13D190684F000326BE40B0433D
:104600004F00DE68BE4030439060506801268E4007
:10461000B0431E79C6F300168E40304350601E79B9
:1046200006F00306032E09D0D0684F000326BE40D3
:10463000B0434F009E68BE403043D0601E7906F004
:104640000306022E13D1CF0802F1200656F82700E8
:104650004E07F70E0F26BE40B0434F07FF0E1E69F0
:10466000BE403043CF0802F1200646F8270010680C
:104670004F000326BE40B0431E7906F003064F00EC
:10468000BE40304310605E6806F44036002E78D09D
:1046900000BF404E366846F002063E4F3E603E4642
:1046A000366806F00206009600BF00BF3A4E8F083B
:1046B00056F827008E07370F0F26BE40B043374EFF
:1046C000B24202D100262EE05BE0354EB24201D16B
:1046D000012628E0334EB24201D1022623E0324EB9
:1046E000B24201D103261EE0304EB24201D104266F
:1046F00019E02F4EB24201D1052614E02D4EB242F0
:1047000001D106260FE02C4EB24201D107260AE065
:104710002A4EB24201D1082605E0294EB24201D10B
:10472000092600E00A268F073F0FBE4030431A4E8D
:104730008F0846F827004FF0B0463068A0435E6807
:1047400006F4801606B120434FF0B0463060706822
:10475000A0435E6806F4001606B120434FF0B04651
:1047600070606868A0435E6806F4003606B12043B6
:1047700068602868A0435E6806F4803606B120436E
:104780002860491C1E68CE40002E7FF423AFF8BD80
:1047900080000058F44402580804005800000258F1
:1047A0000004025800080258000C02580010025879
:1047B0000014025800180258001C02580020025829
:1047C00000240258024613690B400BB1012000E09F
:1047D0000020704710B5426921EA020302EA010491
:1047E00043EA0443836110BD0AB1816101E00B0417
:1047F0008361704701480068000C70470010005C3E
:104800000148006870470000A0000024024692F8AA
:10481000410020282DD100BF92F84000012801D18D
:1048200002207047012082F8400000BF242082F857
:1048300041001068006820F00100136818601068DB
:10484000006820F4805013681860106800680843FE
:10485000136818601068006840F001001368186061
:10486000202082F8410000BF002082F8400000BFF5
:10487000D7E70220D5E710B502460B4692F8410073
:1048800020282AD100BF92F84000012801D102203F
:1048900010BD012082F8400000BF242082F84100B2
:1048A0001068006820F0010014682060106801683A
:1048B00021F4706141EA032110680160106800680A
:1048C00040F0010014682060202082F8410000BF01
:1048D000002082F8400000BFDAE70220D8E700009D
:1048E00010B504460CB9012010BD94F8410028B958
:1048F000002084F84000204600F0F0F9242084F8DD
:1049000041002068006820F00100216808606068AC
:1049100020F07060216808612068806820F4004001
:1049200021688860E068012805D1A06840F4004053
:104930002168886004E0A06840F404402168886031
:10494000E068022802D1800221684860206840683F
:1049500013490843216848602068C06820F400407B
:104960002168C860D4E904010843A16940EA012034
:104970002168C860D4E907010843216808602068FD
:10498000006840F001002168086000206064202079
:1049900084F841000020206384F8420000BFA3E7B0
:1049A000008000022DE9FC5F0446894692469B4642
:1049B000DDE90C780E9E94F8410020287ED117B1D5
:1049C000B8F1000F05D14FF4007060640120BDE81C
:1049D000FC9F00BF94F84000012801D10220F6E7B7
:1049E000012084F8400000BFFFF70AFF05461923A5
:1049F0000122D1032046009507F06AFE08B101208C
:104A0000E5E7222084F84100402084F8420000209D
:104A100060646762A4F82A8060635B465246494638
:104A20002046CDE9006507F0BBFD30B100BF002096
:104A300084F8400000BF0120C9E7608DFF280CD931
:104A4000FF2020853D48009094F828204FF0807387
:104A50004946204607F020FE0BE0608D2085374850
:104A6000009094F828204FF000734946204607F044
:104A700013FE00BF3346002204212046009507F0B4
:104A800027FE08B10120A2E72068406A616A087029
:104A9000606A401C6062208D401E2085608D401E33
:104AA0006085608D48B3208D38BB3346002280215D
:104AB0002046009507F00CFE18B100E03CE0012014
:104AC00085E7608DFF280CD9FF202085002000900D
:104AD00094F828204FF080734946204607F0DCFD0B
:104AE0000BE0608D20850020009094F828204FF086
:104AF00000734946204607F0CFFD608D0028B9D1EC
:104B00002A463146204607F01CFE08B101205EE728
:104B100020202168C8612068406809490840216850
:104B20004860202084F84100002084F8420000BF43
:104B300084F8400000BF4AE7022048E700240080D4
:104B400000E800FE2DE9FC5F0446894692469B463C
:104B5000DDE90C780E9E94F8410020287DD117B134
:104B6000B8F1000F05D14FF4007060640120BDE87A
:104B7000FC9F00BF94F84000012801D10220F6E715
:104B8000012084F8400000BFFFF73AFE05461923D4
:104B90000122D1032046009507F09AFD08B10120BB
:104BA000E5E7212084F84100402084F842000020FD
:104BB00060646762A4F82A8060635B465246494697
:104BC0002046CDE9006507F029FD30B100BF002087
:104BD00084F8400000BF0120C9E7608DFF280CD990
:104BE000FF2020850020009094F828204FF080734B
:104BF0004946204607F050FD0BE0608D20850020DF
:104C0000009094F828204FF000734946204607F0A2
:104C100043FD00BF2A463146204607F0C2FD08B1D9
:104C20000120A4E7606A007821688862606A401CFD
:104C30006062608D401E6085208D401E2085608DE5
:104C400040B3208D30BB33460022802120460095A2
:104C500007F03EFD10B1012089E73AE0608DFF28A2
:104C60000CD9FF2020850020009094F828204FF0D8
:104C700080734946204607F00FFD0BE0608D2085CC
:104C80000020009094F828204FF0007349462046F9
:104C900007F002FD608D0028BCD12A46314620462F
:104CA00007F04FFD08B1012061E720202168C861AD
:104CB000206840680849084021684860202084F83E
:104CC0004100002084F8420000BF84F8400000BF8B
:104CD0004DE702204BE7000000E800FE10B5B8B039
:104CE0000446142132A8FBF7ADFBC02102A8FBF754
:104CF000A9FB1E492068884236D108210020CDE951
:104D00000210239002A802F0F1FD08B1FDF706FAA7
:104D100000BF1748006840F00200154908600846C7
:104D2000006800F00200019000BF00BF4FF4407027
:104D30003290122033900020349035900420369029
:104D400032A90C48FFF740FC00BF09480830006852
:104D500040F400100649083108600846006800F475
:104D60000010019000BF00BF38B010BD00540040DB
:104D7000E0440258000402580348006803490978D7
:104D80000844014908607047A0000024A8000024DE
:104D900010B5032000F0C4FB03F06CFE1049096855
:104DA000C1F303210F4A515C01F01F0120FA01F405
:104DB0000B48006800F00F001146085C00F01F006F
:104DC00024FA00F008490860084804600F2000F049
:104DD0000FF808B1012010BD00F038FB0020FAE701
:104DE00018440258507B05089C00002498000024B9
:104DF00070B58AB00446102C0AD2002221467620D3
:104E000000F050FB762000F039FB1948046002E006
:104E100001200AB070BD00BF1648006840F4802031
:104E2000144908600846006800F48020009000BF24
:104E300000BF01A902A803F09DFD03F009FE450093
:104E40000D48B5FBF0F0461E0C480D49086040F2D5
:104E5000E7310B48C160466000210161816005F0C7
:104E6000A7FB18B9064805F0F3FBD2E70120D0E70D
:104E7000A4000024F044025840420F0000480140C2
:104E80000007002470B504460E46154600BF94F88E
:104E9000A000012801D1022070BD012084F8A000EB
:104EA00000BF022084F8A10005EB850101EBC502DB
:104EB00004F1380101EB820034223146FBF79BFA02
:104EC0002A463146204607F099FF012021684862B2
:104ED00084F8A10000BF002084F8A00000BF00BF3C
:104EE000DAE7704770B504462068856B2068466B2A
:104EF00005F00400E0B106F00400C8B12068406B82
:104F000020F004002168486304202168C863D4F8B5
:104F1000A40040F00100C4F8A400042084F8A1001B
:104F200000BF002084F8A00000BF2046FFF7D9FF93
:104F300005F00200E0B106F00200C8B12068406B45
:104F400020F002002168486302202168C863D4F879
:104F5000A40040F00200C4F8A400042084F8A100DA
:104F600000BF002084F8A00000BF2046FFF7B9FF73
:104F700005F00100A8B106F0010090B12068406B77
:104F800020F001002168486301202168C86384F88B
:104F9000A10000BF002084F8A00000BF204600F060
:104FA000A7F805F00800B0B106F0080098B1206835
:104FB000406B20F008002168486308202168C8631E
:104FC000012084F8A10000BF002084F8A00000BFE9
:104FD000204600F0D5F970BD70B504460CB901202B
:104FE00070BD94F8A10028B9002084F8A0002046E4
:104FF00000F08CF8022084F8A1002068806920F07D
:10500000704021688861D4E901010843E1680843E0
:1050100021690843216889690843216888612068FB
:1050200080683249084021688860A08A05042068A9
:105030008068A16929430843216888602068C068A6
:105040002A4908402168C860A08B05042068C06810
:10505000216A294308432168C86020680069234900
:10506000084021680861A08C050420680069A16AD5
:105070002943084321680861206840691B490840AA
:1050800021684861A08D050420684069216B29438F
:1050900008432168486194F83500050294F8360009
:1050A00006042068C06A00F07F402168C86246EAB2
:1050B000050094F8341008432168C96A0843216840
:1050C000C8622068406B40F0060021684863206891
:1050D000806940F00100216888610020C4F8A400C4
:1050E000012084F8A10000207AE7000000F800F019
:1050F00010B504462068406A40F00100216848620B
:105100000021204600F012F910BD000030B587B034
:1051100004460025142102A8FBF794F97C49206875
:1051200088427CD100BF7B48006840F00800794984
:1051300008600846006800F00800019000BF00BF4A
:1051400000BF081F006840F48060091F086008461F
:10515000006800F48060019000BF00BF00BF0846F7
:10516000006840F0400008600846006800F0400019
:10517000019000BF00BF00BF0846006840F4007007
:1051800008600846006800F40070019000BF00BF8E
:1051900000BF0846006840F08000086008460068CC
:1051A00000F08000019000BF00BF00BF084600680B
:1051B00040F4807008600846006800F48070019038
:1051C00000BF00BF00BF0846006840F080000860D4
:1051D0000846006800F08000019000BF00BF00207A
:1051E000039004904FF40040029002A94A48FFF750
:1051F000EBF98020029002A94848FFF7E5F94FF447
:105200008050029002A94548FFF7DEF94FF40041B3
:105210004148FFF7D7FA68B98021404800E075E0BF
:10522000FFF7D0FA30B94FF480513C48FFF7CAFA83
:1052300000B90125FE200290022003900020049076
:10524000032005900E20069002A93548FFF7BCF90F
:105250004FF480600290022003900020049003200D
:1052600005900920069002A92E48FFF7ADF94FF2EC
:10527000FF3002900220039000200490032005904C
:105280000E20069002A92548FFF79EF94FF4004032
:1052900002900220039000200490032005900E202D
:1052A000069002A92048FFF78FF94FF47040029052
:1052B0000220039000200490032005900E20069009
:1052C00002A91548FFF780F91020029002200390F0
:1052D00000200490032005900920069002A912489E
:1052E000FFF772F940200290012003900020049003
:1052F000059002A90C48FFF767F9002240210A48EF
:10530000FFF772FA012D01D107F05EFC07B030BD46
:1053100000100050E44402580020025800240258B3
:105320000028025800180258001C0258024600BF0C
:1053300092F8A000012801D102207047012082F8D4
:10534000A00000BF022082F8A1001068406B20F08E
:10535000010013685863094801641068406B40F00D
:10536000010013685863012082F8A10000BF0020EB
:1053700082F8A00000BF00BFDFE70000001000506F
:10538000704700004178154A11600178F9B1121D8B
:1053900041681160017B0907C27A41EA0261827AA1
:1053A00041EAC241427B41EA8241827B41EA424179
:1053B000C27B41EA0241427A41EA0221027A41EA91
:1053C000420102781143054A0832116005E00021CC
:1053D000024A121D1160121D1160704798ED00E025
:1053E00000BF00BF00BFBFF35F8F00BF00BF00BFA3
:1053F0000548006820F48030034908600020024915
:10540000703108607047000024ED00E040F00101B9
:105410000D4A11600C497039096841F480310A4A1B
:10542000703A116000BF00BF00BFBFF34F8F00BFD5
:1054300000BF00BF00BF00BF00BFBFF36F8F00BF42
:1054400000BF00BF7047000094ED00E008B500BF4A
:105450000948006840F002000749086008460068F3
:1054600000F00200009000BF00BF00220F21901E3C
:1054700000F018F808BD0000F44402580146084640
:1054800000280DDB00BF00BF00F01F0301229A407F
:1054900043099B0003F1E023C3F8002100BF00BFD4
:1054A00000BF70472DE9F05F80460D46164610F0AC
:1054B000F1FA074639462A46334601F00700C0F1A3
:1054C000070ABAF1040F02D94FF0040A01E0C0F153
:1054D000070AD14600F1040ABAF1070F02D24FF0D1
:1054E000000A01E0A0F1030AD4464FF0010A0AFACB
:1054F00009FAAAF1010A0AEA020A0AFA0CFA4FF0BA
:10550000010B0BFA0CFBABF1010B0BEA030B4AEAA4
:105510000B042146404610F0C5FABDE8F09F00009C
:1055200000BF00F00702064B19684FF6FF03194051
:10553000044B0B4343EA0221014B196000BF704743
:105540000CED00E00000FA0501460A680120C1F8F0
:105550000005002081F8F404906940F0006090613B
:10556000506D024B18435065002070470300001037
:10557000704702461068416200207047F0B503464C
:1055800015461868446A21B944EA05401E68B062AD
:1055900019E01868806A04EB1044002208E01868DB
:1055A00000F5827050F8220004EB1044501CC2B287
:1055B000481E9042F3D844EA0547186800F5827007
:1055C0004E1E40F826700020F0BD10B50446D4F8F9
:1055D00008050EF067F910BD70B504460D4605EBE1
:1055E000C50304F13C0101EB8301CA682946D4F8E4
:1055F00008050EF04AF870BD70B504460D4605EB7F
:10560000C50304F51F7101EB8301CA682946D4F86C
:1056100008050EF0C2F870BD10B50446D4F80805B0
:105620000EF043F910BD2DE9F04104460D4605F09A
:105630008000802808D105F00F0000EBC00104F1C4
:105640003C0000EB810607E005F00F0000EBC00115
:1056500004F51F7000EB8106314620680FF070FBE7
:1056600007463846BDE8F08170B504460E4606F0A0
:10567000800080280AD106F00F0000EBC00104F181
:105680003C0000EB81050120687009E006F00F0086
:1056900000EBC00104F51F7000EB8105002068706D
:1056A00006F00F00287000BF94F8BC04012801D157
:1056B000022070BD012084F8BC0400BF2946206888
:1056C0000EF0DAFE00BF002084F8BC0400BF00BF6B
:1056D000EFE770B504460E4606F00F006168884299
:1056E00001D9012070BD06F0800080280AD106F0A3
:1056F0000F0000EBC00104F13C0000EB810501202C
:10570000687009E006F00F0000EBC00104F51F709F
:1057100000EB8105002068700020A87006F00F00E3
:10572000287000BF94F8BC04012801D10220D9E7F9
:10573000012084F8BC0400BF294620680FF092F8CD
:1057400000BF002084F8BC0400BF00BFCAE70246C7
:1057500001F00F0000EBC00302F51F7000EB8300A7
:10576000406970472DE9F04705460E4690461F46B2
:105770004FF0000906F0800080280AD106F00F00E3
:1057800000EBC00105F13C0000EB810401206070DA
:1057900009E006F00F0000EBC00105F51F7000EBFB
:1057A00081040020607006F00F002070C4F80880AB
:1057B0002771607808B120786083022F01D1002022
:1057C000607100BF95F8BC04012802D10220BDE839
:1057D000F087012085F8BC0400BF214628680EF040
:1057E00057FD00BF002085F8BC0400BF4846EEE727
:1057F0002DE9F04105460E461746984606F00F0083
:1058000000EBC00105F51F7000EB8104E760C4F8F0
:10581000108000206061607006F00F002070E86862
:10582000012800D1E7612A7B214628680FF0AEF8F5
:105830000020BDE8F08170B504460D4605F00F006C
:105840006168884201D9012070BD05F08000802880
:105850000AD105F00F0000EBC00104F13C0000EBA1
:1058600081060120707007E005EBC50104F51F708B
:1058700000EB8106002070700120B07005F00F0071
:10588000307000BF94F8BC04012801D10220DBE78E
:10589000012084F8BC0400BF314620680FF029F8CD
:1058A00005F00F0028B9217B04F2C44220680EF0F5
:1058B000A1FF00BF002084F8BC0400BF00BFC3E705
:1058C0002DE9F04105460E461746984606F00F00B2
:1058D00000EBC00105F13C0000EB8104E760C4F877
:1058E0001080002060610120607006F00F002070C1
:1058F000E868012800D1E7612A7B214628680FF07B
:1059000045F80020BDE8F0812DE9FE4F0446D4F8AB
:1059100000B05E4620680FF002FB002874D12068BA
:105920000FF0AAFB08B9BDE8FE8F40F608008059C9
:10593000C0F30D20C4F8FC0420680FF09DFB00F0BC
:105940000200022805D12068406900F002002168A9
:10595000486120680FF090FB00F01000102845D13E
:105960002068806920F0100021688861DBF82090B1
:1059700009F00F0000EBC00104F51F7000EB810A75
:10598000C9F3434002281AD147F6F07009EA000033
:1059900030B3C9F30A125846DAF80C100FF071FB55
:1059A000C9F30A11DAF80C000844CAF80C00C9F36C
:1059B0000A11DAF814000844CAF8140010E0C9F318
:1059C000434006280CD1082204F2C44158460FF087
:1059D00058FBC9F30A11DAF814000844CAF8140095
:1059E0002068806940F010002168886120680FF00D
:1059F00043FB00F40020B0F5002F7BD10025206888
:105A00000FF00AFB029072E003E3029800F001003D
:105A1000002868D0E9B220680FF021FB804608F02A
:105A2000010048B1012106F5306000EB45108160AE
:105A30002946204608F060FD08F00800082809D132
:105A4000082106F5306000EB4510816029462046AC
:105A500008F020FD08F01000102805D1102106F5EF
:105A6000306000EB4510816008F00200022824D16C
:105A7000DBF8140000F08000802807D140F6040015
:105A8000805940F4806140F60400815105EBC50166
:105A900004F51F7000EB810A9AF80300012806D173
:105AA00000208AF80300E9B2204600F0BDFA022186
:105AB00006F5306000EB4510816008F020002028DA
:105AC00005D1202106F5306000EB4510816008F417
:105AD0000050B0F5005F06D14FF4005106F530607C
